{
  "contractName": "FundsManager",
  "abi": [
    {
      "inputs": [],
      "stateMutability": "nonpayable",
      "type": "constructor"
    },
    {
      "anonymous": false,
      "inputs": [
        {
          "indexed": true,
          "internalType": "address",
          "name": "_cp",
          "type": "address"
        },
        {
          "indexed": true,
          "internalType": "uint256",
          "name": "_rfcId",
          "type": "uint256"
        },
        {
          "indexed": false,
          "internalType": "uint256",
          "name": "_amount",
          "type": "uint256"
        }
      ],
      "name": "CPRewardRedeemed",
      "type": "event"
    },
    {
      "anonymous": false,
      "inputs": [
        {
          "indexed": true,
          "internalType": "address",
          "name": "userDepositing",
          "type": "address"
        },
        {
          "indexed": false,
          "internalType": "uint256",
          "name": "deposit",
          "type": "uint256"
        },
        {
          "indexed": true,
          "internalType": "uint256",
          "name": "RfCid",
          "type": "uint256"
        }
      ],
      "name": "DepositForRfC",
      "type": "event"
    },
    {
      "anonymous": false,
      "inputs": [
        {
          "indexed": false,
          "internalType": "address",
          "name": "user",
          "type": "address"
        },
        {
          "indexed": false,
          "internalType": "uint256",
          "name": "rfcId",
          "type": "uint256"
        },
        {
          "indexed": false,
          "internalType": "uint256",
          "name": "unlockDate",
          "type": "uint256"
        }
      ],
      "name": "FundsCommittedToRfC",
      "type": "event"
    },
    {
      "anonymous": false,
      "inputs": [
        {
          "indexed": true,
          "internalType": "address",
          "name": "_investor",
          "type": "address"
        },
        {
          "indexed": true,
          "internalType": "uint256",
          "name": "_rfcId",
          "type": "uint256"
        },
        {
          "indexed": false,
          "internalType": "uint256",
          "name": "_amount",
          "type": "uint256"
        }
      ],
      "name": "InvestmentRedeemed",
      "type": "event"
    },
    {
      "anonymous": false,
      "inputs": [],
      "name": "InvestorSharesMinted",
      "type": "event"
    },
    {
      "anonymous": false,
      "inputs": [
        {
          "indexed": true,
          "internalType": "address",
          "name": "member",
          "type": "address"
        }
      ],
      "name": "MadeSafeDeposit",
      "type": "event"
    },
    {
      "anonymous": false,
      "inputs": [
        {
          "indexed": true,
          "internalType": "bytes32",
          "name": "role",
          "type": "bytes32"
        },
        {
          "indexed": true,
          "internalType": "bytes32",
          "name": "previousAdminRole",
          "type": "bytes32"
        },
        {
          "indexed": true,
          "internalType": "bytes32",
          "name": "newAdminRole",
          "type": "bytes32"
        }
      ],
      "name": "RoleAdminChanged",
      "type": "event"
    },
    {
      "anonymous": false,
      "inputs": [
        {
          "indexed": true,
          "internalType": "bytes32",
          "name": "role",
          "type": "bytes32"
        },
        {
          "indexed": true,
          "internalType": "address",
          "name": "account",
          "type": "address"
        },
        {
          "indexed": true,
          "internalType": "address",
          "name": "sender",
          "type": "address"
        }
      ],
      "name": "RoleGranted",
      "type": "event"
    },
    {
      "anonymous": false,
      "inputs": [
        {
          "indexed": true,
          "internalType": "bytes32",
          "name": "role",
          "type": "bytes32"
        },
        {
          "indexed": true,
          "internalType": "address",
          "name": "account",
          "type": "address"
        },
        {
          "indexed": true,
          "internalType": "address",
          "name": "sender",
          "type": "address"
        }
      ],
      "name": "RoleRevoked",
      "type": "event"
    },
    {
      "anonymous": false,
      "inputs": [
        {
          "indexed": false,
          "internalType": "address",
          "name": "investor",
          "type": "address"
        },
        {
          "indexed": false,
          "internalType": "bool",
          "name": "success",
          "type": "bool"
        }
      ],
      "name": "WithdrawSafeDeposit",
      "type": "event"
    },
    {
      "inputs": [],
      "name": "DEFAULT_ADMIN_ROLE",
      "outputs": [
        {
          "internalType": "bytes32",
          "name": "",
          "type": "bytes32"
        }
      ],
      "stateMutability": "view",
      "type": "function"
    },
    {
      "inputs": [],
      "name": "FUNDS_MANAGER_ROLE",
      "outputs": [
        {
          "internalType": "bytes32",
          "name": "",
          "type": "bytes32"
        }
      ],
      "stateMutability": "view",
      "type": "function"
    },
    {
      "inputs": [],
      "name": "GOVERN_ROLE",
      "outputs": [
        {
          "internalType": "bytes32",
          "name": "",
          "type": "bytes32"
        }
      ],
      "stateMutability": "view",
      "type": "function"
    },
    {
      "inputs": [],
      "name": "GUARDIAN_ROLE",
      "outputs": [
        {
          "internalType": "bytes32",
          "name": "",
          "type": "bytes32"
        }
      ],
      "stateMutability": "view",
      "type": "function"
    },
    {
      "inputs": [],
      "name": "MEMBER_ROLE",
      "outputs": [
        {
          "internalType": "bytes32",
          "name": "",
          "type": "bytes32"
        }
      ],
      "stateMutability": "view",
      "type": "function"
    },
    {
      "inputs": [],
      "name": "MINTER_ROLE",
      "outputs": [
        {
          "internalType": "bytes32",
          "name": "",
          "type": "bytes32"
        }
      ],
      "stateMutability": "view",
      "type": "function"
    },
    {
      "inputs": [
        {
          "internalType": "bytes32",
          "name": "role",
          "type": "bytes32"
        },
        {
          "internalType": "bytes32",
          "name": "adminRole",
          "type": "bytes32"
        }
      ],
      "name": "createRole",
      "outputs": [],
      "stateMutability": "nonpayable",
      "type": "function"
    },
    {
      "inputs": [
        {
          "internalType": "bytes32",
          "name": "role",
          "type": "bytes32"
        }
      ],
      "name": "getRoleAdmin",
      "outputs": [
        {
          "internalType": "bytes32",
          "name": "",
          "type": "bytes32"
        }
      ],
      "stateMutability": "view",
      "type": "function"
    },
    {
      "inputs": [
        {
          "internalType": "bytes32",
          "name": "role",
          "type": "bytes32"
        },
        {
          "internalType": "uint256",
          "name": "index",
          "type": "uint256"
        }
      ],
      "name": "getRoleMember",
      "outputs": [
        {
          "internalType": "address",
          "name": "",
          "type": "address"
        }
      ],
      "stateMutability": "view",
      "type": "function"
    },
    {
      "inputs": [
        {
          "internalType": "bytes32",
          "name": "role",
          "type": "bytes32"
        }
      ],
      "name": "getRoleMemberCount",
      "outputs": [
        {
          "internalType": "uint256",
          "name": "",
          "type": "uint256"
        }
      ],
      "stateMutability": "view",
      "type": "function"
    },
    {
      "inputs": [
        {
          "internalType": "address",
          "name": "fmProxy",
          "type": "address"
        }
      ],
      "name": "grantFMProxy",
      "outputs": [],
      "stateMutability": "nonpayable",
      "type": "function"
    },
    {
      "inputs": [
        {
          "internalType": "address",
          "name": "governor",
          "type": "address"
        }
      ],
      "name": "grantGovernor",
      "outputs": [],
      "stateMutability": "nonpayable",
      "type": "function"
    },
    {
      "inputs": [
        {
          "internalType": "address",
          "name": "guardian",
          "type": "address"
        }
      ],
      "name": "grantGuardian",
      "outputs": [],
      "stateMutability": "nonpayable",
      "type": "function"
    },
    {
      "inputs": [
        {
          "internalType": "address",
          "name": "member",
          "type": "address"
        }
      ],
      "name": "grantMember",
      "outputs": [],
      "stateMutability": "nonpayable",
      "type": "function"
    },
    {
      "inputs": [
        {
          "internalType": "address",
          "name": "minter",
          "type": "address"
        }
      ],
      "name": "grantMinter",
      "outputs": [],
      "stateMutability": "nonpayable",
      "type": "function"
    },
    {
      "inputs": [
        {
          "internalType": "bytes32",
          "name": "role",
          "type": "bytes32"
        },
        {
          "internalType": "address",
          "name": "account",
          "type": "address"
        }
      ],
      "name": "grantRole",
      "outputs": [],
      "stateMutability": "nonpayable",
      "type": "function"
    },
    {
      "inputs": [
        {
          "internalType": "bytes32",
          "name": "role",
          "type": "bytes32"
        },
        {
          "internalType": "address",
          "name": "account",
          "type": "address"
        }
      ],
      "name": "hasRole",
      "outputs": [
        {
          "internalType": "bool",
          "name": "",
          "type": "bool"
        }
      ],
      "stateMutability": "view",
      "type": "function"
    },
    {
      "inputs": [
        {
          "internalType": "address",
          "name": "_address",
          "type": "address"
        }
      ],
      "name": "isFMProxy",
      "outputs": [
        {
          "internalType": "bool",
          "name": "",
          "type": "bool"
        }
      ],
      "stateMutability": "view",
      "type": "function"
    },
    {
      "inputs": [
        {
          "internalType": "address",
          "name": "_address",
          "type": "address"
        }
      ],
      "name": "isGovernor",
      "outputs": [
        {
          "internalType": "bool",
          "name": "",
          "type": "bool"
        }
      ],
      "stateMutability": "view",
      "type": "function"
    },
    {
      "inputs": [
        {
          "internalType": "address",
          "name": "_address",
          "type": "address"
        }
      ],
      "name": "isGuardian",
      "outputs": [
        {
          "internalType": "bool",
          "name": "",
          "type": "bool"
        }
      ],
      "stateMutability": "view",
      "type": "function"
    },
    {
      "inputs": [
        {
          "internalType": "address",
          "name": "_address",
          "type": "address"
        }
      ],
      "name": "isMember",
      "outputs": [
        {
          "internalType": "bool",
          "name": "",
          "type": "bool"
        }
      ],
      "stateMutability": "view",
      "type": "function"
    },
    {
      "inputs": [
        {
          "internalType": "address",
          "name": "_address",
          "type": "address"
        }
      ],
      "name": "isMinter",
      "outputs": [
        {
          "internalType": "bool",
          "name": "",
          "type": "bool"
        }
      ],
      "stateMutability": "view",
      "type": "function"
    },
    {
      "inputs": [
        {
          "internalType": "bytes32",
          "name": "role",
          "type": "bytes32"
        },
        {
          "internalType": "address",
          "name": "account",
          "type": "address"
        }
      ],
      "name": "renounceRole",
      "outputs": [],
      "stateMutability": "nonpayable",
      "type": "function"
    },
    {
      "inputs": [
        {
          "internalType": "address",
          "name": "fmProxy",
          "type": "address"
        }
      ],
      "name": "revokeFMProxy",
      "outputs": [],
      "stateMutability": "nonpayable",
      "type": "function"
    },
    {
      "inputs": [
        {
          "internalType": "address",
          "name": "governor",
          "type": "address"
        }
      ],
      "name": "revokeGovernor",
      "outputs": [],
      "stateMutability": "nonpayable",
      "type": "function"
    },
    {
      "inputs": [
        {
          "internalType": "address",
          "name": "guardian",
          "type": "address"
        }
      ],
      "name": "revokeGuardian",
      "outputs": [],
      "stateMutability": "nonpayable",
      "type": "function"
    },
    {
      "inputs": [
        {
          "internalType": "address",
          "name": "member",
          "type": "address"
        }
      ],
      "name": "revokeMember",
      "outputs": [],
      "stateMutability": "nonpayable",
      "type": "function"
    },
    {
      "inputs": [
        {
          "internalType": "address",
          "name": "minter",
          "type": "address"
        }
      ],
      "name": "revokeMinter",
      "outputs": [],
      "stateMutability": "nonpayable",
      "type": "function"
    },
    {
      "inputs": [
        {
          "internalType": "bytes32",
          "name": "role",
          "type": "bytes32"
        },
        {
          "internalType": "address",
          "name": "account",
          "type": "address"
        }
      ],
      "name": "revokeOverride",
      "outputs": [],
      "stateMutability": "nonpayable",
      "type": "function"
    },
    {
      "inputs": [
        {
          "internalType": "bytes32",
          "name": "role",
          "type": "bytes32"
        },
        {
          "internalType": "address",
          "name": "account",
          "type": "address"
        }
      ],
      "name": "revokeRole",
      "outputs": [],
      "stateMutability": "nonpayable",
      "type": "function"
    },
    {
      "inputs": [
        {
          "internalType": "bytes4",
          "name": "interfaceId",
          "type": "bytes4"
        }
      ],
      "name": "supportsInterface",
      "outputs": [
        {
          "internalType": "bool",
          "name": "",
          "type": "bool"
        }
      ],
      "stateMutability": "view",
      "type": "function"
    },
    {
      "inputs": [],
      "name": "getContractBalance",
      "outputs": [
        {
          "internalType": "uint256",
          "name": "",
          "type": "uint256"
        }
      ],
      "stateMutability": "view",
      "type": "function"
    },
    {
      "inputs": [
        {
          "internalType": "address",
          "name": "_user",
          "type": "address"
        }
      ],
      "name": "getSDstatus",
      "outputs": [
        {
          "internalType": "bool",
          "name": "",
          "type": "bool"
        }
      ],
      "stateMutability": "view",
      "type": "function"
    },
    {
      "inputs": [
        {
          "internalType": "uint256",
          "name": "_rfcId",
          "type": "uint256"
        }
      ],
      "name": "getRfCStatus",
      "outputs": [
        {
          "internalType": "bool",
          "name": "",
          "type": "bool"
        }
      ],
      "stateMutability": "view",
      "type": "function"
    },
    {
      "inputs": [
        {
          "internalType": "address",
          "name": "_user",
          "type": "address"
        },
        {
          "internalType": "uint256",
          "name": "_rfcId",
          "type": "uint256"
        },
        {
          "internalType": "address",
          "name": "_rfcToken",
          "type": "address"
        }
      ],
      "name": "getRfCFund",
      "outputs": [
        {
          "internalType": "uint256",
          "name": "",
          "type": "uint256"
        }
      ],
      "stateMutability": "view",
      "type": "function"
    },
    {
      "inputs": [
        {
          "internalType": "uint256",
          "name": "_rcfId",
          "type": "uint256"
        }
      ],
      "name": "getRfCTokenAddress",
      "outputs": [
        {
          "internalType": "address",
          "name": "",
          "type": "address"
        }
      ],
      "stateMutability": "view",
      "type": "function"
    },
    {
      "inputs": [
        {
          "internalType": "address",
          "name": "_account",
          "type": "address"
        },
        {
          "internalType": "uint256",
          "name": "_amount",
          "type": "uint256"
        },
        {
          "internalType": "uint256",
          "name": "_RfCid",
          "type": "uint256"
        }
      ],
      "name": "getAmountUserDepositForRfC",
      "outputs": [
        {
          "internalType": "uint256",
          "name": "amount",
          "type": "uint256"
        }
      ],
      "stateMutability": "view",
      "type": "function"
    },
    {
      "inputs": [
        {
          "internalType": "address",
          "name": "_user",
          "type": "address"
        },
        {
          "internalType": "uint256",
          "name": "_amount",
          "type": "uint256"
        }
      ],
      "name": "setTotalAmountUserDepositToTheProtocol",
      "outputs": [
        {
          "internalType": "uint256",
          "name": "",
          "type": "uint256"
        }
      ],
      "stateMutability": "nonpayable",
      "type": "function"
    },
    {
      "inputs": [
        {
          "internalType": "uint256",
          "name": "_rfcId",
          "type": "uint256"
        },
        {
          "internalType": "address",
          "name": "_rfcToken",
          "type": "address"
        }
      ],
      "name": "investETH",
      "outputs": [],
      "stateMutability": "payable",
      "type": "function"
    },
    {
      "inputs": [
        {
          "internalType": "address",
          "name": "_aspiringMember",
          "type": "address"
        }
      ],
      "name": "safeDepositForMembership",
      "outputs": [],
      "stateMutability": "payable",
      "type": "function"
    },
    {
      "inputs": [
        {
          "internalType": "address",
          "name": "_member",
          "type": "address"
        }
      ],
      "name": "initiateWithdrawSafeDeposit",
      "outputs": [],
      "stateMutability": "nonpayable",
      "type": "function"
    },
    {
      "inputs": [],
      "name": "withdrawETH",
      "outputs": [],
      "stateMutability": "nonpayable",
      "type": "function"
    },
    {
      "inputs": [
        {
          "internalType": "address",
          "name": "_account",
          "type": "address"
        },
        {
          "internalType": "uint256",
          "name": "_matureTime",
          "type": "uint256"
        },
        {
          "internalType": "uint256",
          "name": "_rfcId",
          "type": "uint256"
        }
      ],
      "name": "withdrawFromEscrow",
      "outputs": [],
      "stateMutability": "nonpayable",
      "type": "function"
    },
    {
      "inputs": [
        {
          "internalType": "uint256",
          "name": "_rfcId",
          "type": "uint256"
        },
        {
          "internalType": "uint256",
          "name": "_amount",
          "type": "uint256"
        }
      ],
      "name": "depositPayAccessContent",
      "outputs": [],
      "stateMutability": "nonpayable",
      "type": "function"
    },
    {
      "inputs": [
        {
          "internalType": "address",
          "name": "_investorOrCP",
          "type": "address"
        }
      ],
      "name": "getRfCid",
      "outputs": [
        {
          "internalType": "uint256",
          "name": "",
          "type": "uint256"
        }
      ],
      "stateMutability": "nonpayable",
      "type": "function"
    },
    {
      "inputs": [
        {
          "internalType": "uint256",
          "name": "_id",
          "type": "uint256"
        }
      ],
      "name": "setRfCIdFund",
      "outputs": [],
      "stateMutability": "nonpayable",
      "type": "function"
    },
    {
      "inputs": [],
      "name": "getFMContractAddr",
      "outputs": [
        {
          "internalType": "address",
          "name": "",
          "type": "address"
        }
      ],
      "stateMutability": "view",
      "type": "function"
    }
  ],
  "bytecode": "0x60c0604052604051620000129062000635565b604051809103906000f0801580156200002f573d6000803e3d6000fd5b50600360006101000a81548173ffffffffffffffffffffffffffffffffffffffff021916908373ffffffffffffffffffffffffffffffffffffffff1602179055506040516200007e9062000643565b604051809103906000f0801580156200009b573d6000803e3d6000fd5b50600460006101000a81548173ffffffffffffffffffffffffffffffffffffffff021916908373ffffffffffffffffffffffffffffffffffffffff16021790555067016345785d8a000060809081525062278d0060a0908152506000601660006101000a81548160ff0219169083151502179055503480156200011d57600080fd5b506200012f30620002e860201b60201c565b620001817f9f2df0fed2c77648de5860a4cc508cd0818c85b8b8a1ab4ceeef8d981c8956a67f899bd46557473cb80307a9dabc297131ced39608330a2d29b2d52b660c03923e6200031d60201b60201c565b620001d37f829b824e2329e205435d941c9f13baf578548505283d29261236d8e6596d46367f899bd46557473cb80307a9dabc297131ced39608330a2d29b2d52b660c03923e6200031d60201b60201c565b620002257f9d98d3d08f0062b192694645e127c98e5f96f3bbec331d061acaac3ace2327f97f899bd46557473cb80307a9dabc297131ced39608330a2d29b2d52b660c03923e6200031d60201b60201c565b620002777f55435dd261a4b9b3364963f7738a7a662ad9c84396d64be3365284bb7f0a50417f899bd46557473cb80307a9dabc297131ced39608330a2d29b2d52b660c03923e6200031d60201b60201c565b6001600281905550620002b17f9d98d3d08f0062b192694645e127c98e5f96f3bbec331d061acaac3ace2327f9306200038060201b60201c565b6000604051620002c19062000635565b604051809103906000f080158015620002de573d6000803e3d6000fd5b5090505062000650565b6200031a7f899bd46557473cb80307a9dabc297131ced39608330a2d29b2d52b660c03923e826200038060201b60201c565b50565b600062000330836200039660201b60201c565b905081600080858152602001908152602001600020600101819055508181847fbd79b86ffe0ab8e8776151514217cd7cacd52c909f66475c3af44e129f0b00ff60405160405180910390a4505050565b620003928282620003b560201b60201c565b5050565b6000806000838152602001908152602001600020600101549050919050565b620003cc8282620003fd60201b620026491760201c565b620003f88160016000858152602001908152602001600020620004ee60201b620027291790919060201c565b505050565b6200040f82826200052660201b60201c565b620004ea57600160008084815260200190815260200160002060000160008373ffffffffffffffffffffffffffffffffffffffff1673ffffffffffffffffffffffffffffffffffffffff16815260200190815260200160002060006101000a81548160ff0219169083151502179055506200048f6200059060201b60201c565b73ffffffffffffffffffffffffffffffffffffffff168173ffffffffffffffffffffffffffffffffffffffff16837f2f8788117e7eff1d82e926ec794901d17c78024a50270940304540a733656f0d60405160405180910390a45b5050565b60006200051e836000018373ffffffffffffffffffffffffffffffffffffffff1660001b6200059860201b60201c565b905092915050565b600080600084815260200190815260200160002060000160008373ffffffffffffffffffffffffffffffffffffffff1673ffffffffffffffffffffffffffffffffffffffff16815260200190815260200160002060009054906101000a900460ff16905092915050565b600033905090565b6000620005ac83836200061260201b60201c565b620006075782600001829080600181540180825580915050600190039060005260206000200160009091909190915055826000018054905083600101600084815260200190815260200160002081905550600190506200060c565b600090505b92915050565b600080836001016000848152602001908152602001600020541415905092915050565b6150b98062004a7583390190565b605c8062009b2e83390190565b60805160a0516143f462000681600039600081816114880152818161244e0152612a730152600050506143f46000f3fe6080604052600436106102885760003560e01c806391d148541161015a578063c9876d54116100c1578063df34e6521161007a578063df34e65214610a18578063e086e5ec14610a55578063e43581b814610a6c578063e6eb982f14610aa9578063e78ee6a014610ad2578063f5221a6714610b0f57610288565b8063c9876d54146108f8578063ca15c87314610935578063cfbd488514610972578063d53913931461099b578063d547741f146109c6578063dc301a7c146109ef57610288565b8063af648c3d11610113578063af648c3d1461081a578063b6a9bd7814610843578063ba0cb6871461085f578063bb795f721461087b578063bcb9d2dd146108a4578063c4707a83146108cd57610288565b806391d14854146106e457806394b1d2c014610721578063a10f469e1461074a578063a217fddf14610775578063a230c524146107a0578063aa271e1a146107dd57610288565b8063358ee2f9116101fe5780634c9f9384116101b75780634c9f9384146105b0578063567fb779146105d95780636f9fb98a146106165780638adf23b9146106415780638fcd08bd1461066a5780639010d07c146106a757610288565b8063358ee2f9146104a257806336568abe146104cd57806338b7f446146104f6578063395c62e8146105215780633d54a9fd1461054a5780633e53762c1461058757610288565b8063248a9ca311610250578063248a9ca31461038257806324ea54f4146103bf578063256864c0146103ea578063261707fa1461042757806329fe8ead146104505780632f2ff15d1461047957610288565b806301ffc9a71461028d578063080bf57c146102ca5780630c68ba21146102f357806313e15efc146103305780632320eabf14610359575b600080fd5b34801561029957600080fd5b506102b460048036038101906102af91906134e9565b610b4c565b6040516102c19190613e60565b60405180910390f35b3480156102d657600080fd5b506102f160048036038101906102ec9190613435565b610bc6565b005b3480156102ff57600080fd5b5061031a60048036038101906103159190613309565b610ce2565b6040516103279190613e60565b60405180910390f35b34801561033c57600080fd5b5061035760048036038101906103529190613309565b610d15565b005b34801561036557600080fd5b50610380600480360381019061037b9190613309565b610d8a565b005b34801561038e57600080fd5b506103a960048036038101906103a4919061340c565b610dff565b6040516103b69190613e7b565b60405180910390f35b3480156103cb57600080fd5b506103d4610e1e565b6040516103e19190613e7b565b60405180910390f35b3480156103f657600080fd5b50610411600480360381019061040c9190613309565b610e42565b60405161041e9190614121565b60405180910390f35b34801561043357600080fd5b5061044e60048036038101906104499190613309565b610eed565b005b34801561045c57600080fd5b5061047760048036038101906104729190613309565b610f62565b005b34801561048557600080fd5b506104a0600480360381019061049b9190613435565b6110ac565b005b3480156104ae57600080fd5b506104b76110d5565b6040516104c49190613e1c565b60405180910390f35b3480156104d957600080fd5b506104f460048036038101906104ef9190613435565b611125565b005b34801561050257600080fd5b5061050b6111a8565b6040516105189190613e7b565b60405180910390f35b34801561052d57600080fd5b5061054860048036038101906105439190613309565b6111cc565b005b34801561055657600080fd5b50610571600480360381019061056c919061336e565b611241565b60405161057e9190614121565b60405180910390f35b34801561059357600080fd5b506105ae60048036038101906105a991906133bd565b61137b565b005b3480156105bc57600080fd5b506105d760048036038101906105d29190613471565b61183c565b005b3480156105e557600080fd5b5061060060048036038101906105fb9190613512565b611892565b60405161060d9190613e1c565b60405180910390f35b34801561062257600080fd5b5061062b6118cf565b6040516106389190614121565b60405180910390f35b34801561064d57600080fd5b5061066860048036038101906106639190613309565b6118d7565b005b34801561067657600080fd5b50610691600480360381019061068c9190613332565b61194c565b60405161069e9190614121565b60405180910390f35b3480156106b357600080fd5b506106ce60048036038101906106c991906134ad565b6119ab565b6040516106db9190613e1c565b60405180910390f35b3480156106f057600080fd5b5061070b60048036038101906107069190613435565b6119da565b6040516107189190613e60565b60405180910390f35b34801561072d57600080fd5b5061074860048036038101906107439190613309565b611a44565b005b34801561075657600080fd5b5061075f611ab9565b60405161076c9190613e7b565b60405180910390f35b34801561078157600080fd5b5061078a611add565b6040516107979190613e7b565b60405180910390f35b3480156107ac57600080fd5b506107c760048036038101906107c29190613309565b611ae4565b6040516107d49190613e60565b60405180910390f35b3480156107e957600080fd5b5061080460048036038101906107ff9190613309565b611b17565b6040516108119190613e60565b60405180910390f35b34801561082657600080fd5b50610841600480360381019061083c9190613309565b611b4a565b005b61085d60048036038101906108589190613309565b611bbf565b005b61087960048036038101906108749190613564565b611d55565b005b34801561088757600080fd5b506108a2600480360381019061089d9190613512565b611f51565b005b3480156108b057600080fd5b506108cb60048036038101906108c69190613309565b611f54565b005b3480156108d957600080fd5b506108e2611fc9565b6040516108ef9190613e7b565b60405180910390f35b34801561090457600080fd5b5061091f600480360381019061091a9190613309565b611fed565b60405161092c9190613e60565b60405180910390f35b34801561094157600080fd5b5061095c6004803603810190610957919061340c565b612020565b6040516109699190614121565b60405180910390f35b34801561097e57600080fd5b5061099960048036038101906109949190613309565b612044565b005b3480156109a757600080fd5b506109b06120b9565b6040516109bd9190613e7b565b60405180910390f35b3480156109d257600080fd5b506109ed60048036038101906109e89190613435565b6120dd565b005b3480156109fb57600080fd5b50610a166004803603810190610a1191906135a0565b612106565b005b348015610a2457600080fd5b50610a3f6004803603810190610a3a91906133bd565b6122e5565b604051610a4c9190614121565b60405180910390f35b348015610a6157600080fd5b50610a6a612341565b005b348015610a7857600080fd5b50610a936004803603810190610a8e9190613309565b612544565b604051610aa09190613e60565b60405180910390f35b348015610ab557600080fd5b50610ad06004803603810190610acb9190613309565b612577565b005b348015610ade57600080fd5b50610af96004803603810190610af49190613512565b6125ec565b604051610b069190613e60565b60405180910390f35b348015610b1b57600080fd5b50610b366004803603810190610b319190613309565b6125f3565b604051610b439190613e60565b60405180910390f35b60007f5a05180f000000000000000000000000000000000000000000000000000000007bffffffffffffffffffffffffffffffffffffffffffffffffffffffff1916827bffffffffffffffffffffffffffffffffffffffffffffffffffffffff19161480610bbf5750610bbe82612759565b5b9050919050565b610bcf33610ce2565b610c0e576040517f08c379a0000000000000000000000000000000000000000000000000000000008152600401610c0590614041565b60405180910390fd5b7f899bd46557473cb80307a9dabc297131ced39608330a2d29b2d52b660c03923e821415610c71576040517f08c379a0000000000000000000000000000000000000000000000000000000008152600401610c68906140a1565b60405180910390fd5b3073ffffffffffffffffffffffffffffffffffffffff1663d547741f83836040518363ffffffff1660e01b8152600401610cac929190613e96565b600060405180830381600087803b158015610cc657600080fd5b505af1158015610cda573d6000803e3d6000fd5b505050505050565b6000610d0e7f55435dd261a4b9b3364963f7738a7a662ad9c84396d64be3365284bb7f0a5041836119da565b9050919050565b610d1e33612544565b610d5d576040517f08c379a0000000000000000000000000000000000000000000000000000000008152600401610d5490613f21565b60405180910390fd5b610d877f829b824e2329e205435d941c9f13baf578548505283d29261236d8e6596d4636826110ac565b50565b610d9333612544565b610dd2576040517f08c379a0000000000000000000000000000000000000000000000000000000008152600401610dc990613f21565b60405180910390fd5b610dfc7f9d98d3d08f0062b192694645e127c98e5f96f3bbec331d061acaac3ace2327f9826110ac565b50565b6000806000838152602001908152602001600020600101549050919050565b7f55435dd261a4b9b3364963f7738a7a662ad9c84396d64be3365284bb7f0a504181565b6000600360009054906101000a900473ffffffffffffffffffffffffffffffffffffffff1673ffffffffffffffffffffffffffffffffffffffff16632f832d356040518163ffffffff1660e01b8152600401602060405180830381600087803b158015610eae57600080fd5b505af1158015610ec2573d6000803e3d6000fd5b505050506040513d601f19601f82011682018060405250810190610ee6919061353b565b9050919050565b610ef633612544565b610f35576040517f08c379a0000000000000000000000000000000000000000000000000000000008152600401610f2c90613f21565b60405180910390fd5b610f5f7f9f2df0fed2c77648de5860a4cc508cd0818c85b8b8a1ab4ceeef8d981c8956a6826110ac565b50565b6001151560086000600560009054906101000a900473ffffffffffffffffffffffffffffffffffffffff1673ffffffffffffffffffffffffffffffffffffffff1673ffffffffffffffffffffffffffffffffffffffff16815260200190815260200160002060009054906101000a900460ff16151514611017576040517f08c379a000000000000000000000000000000000000000000000000000000000815260040161100e906140c1565b60405180910390fd5b6000600860008373ffffffffffffffffffffffffffffffffffffffff1673ffffffffffffffffffffffffffffffffffffffff16815260200190815260200160002060006101000a81548160ff0219169083151502179055507f0aca395aa56c30eb87bd7b4d35a0363ae5fb24dff8d6a192832291333373362f3360016040516110a1929190613e37565b60405180910390a150565b6110b582610dff565b6110c6816110c16127d3565b6127db565b6110d08383612878565b505050565b60006110e033611fed565b61111f576040517f08c379a0000000000000000000000000000000000000000000000000000000008152600401611116906140e1565b60405180910390fd5b30905090565b61112d6127d3565b73ffffffffffffffffffffffffffffffffffffffff168173ffffffffffffffffffffffffffffffffffffffff161461119a576040517f08c379a000000000000000000000000000000000000000000000000000000000815260040161119190614101565b60405180910390fd5b6111a482826128ac565b5050565b7f899bd46557473cb80307a9dabc297131ced39608330a2d29b2d52b660c03923e81565b6111d533612544565b611214576040517f08c379a000000000000000000000000000000000000000000000000000000000815260040161120b90613f21565b60405180910390fd5b61123e7f899bd46557473cb80307a9dabc297131ced39608330a2d29b2d52b660c03923e826110ac565b50565b600080831015611286576040517f08c379a000000000000000000000000000000000000000000000000000000000815260040161127d90613f61565b60405180910390fd5b600073ffffffffffffffffffffffffffffffffffffffff168273ffffffffffffffffffffffffffffffffffffffff1614156112f6576040517f08c379a00000000000000000000000000000000000000000000000000000000081526004016112ed90614081565b60405180910390fd5b600073ffffffffffffffffffffffffffffffffffffffff168473ffffffffffffffffffffffffffffffffffffffff161415611366576040517f08c379a000000000000000000000000000000000000000000000000000000000815260040161135d90613fc1565b60405180910390fd5b600061137184611892565b9050509392505050565b6001151560086000600560009054906101000a900473ffffffffffffffffffffffffffffffffffffffff1673ffffffffffffffffffffffffffffffffffffffff1673ffffffffffffffffffffffffffffffffffffffff16815260200190815260200160002060009054906101000a900460ff16151514611430576040517f08c379a0000000000000000000000000000000000000000000000000000000008152600401611427906140c1565b60405180910390fd5b60001515601160009054906101000a900460ff16151514611486576040517f08c379a000000000000000000000000000000000000000000000000000000000815260040161147d90613f41565b60405180910390fd5b7f000000000000000000000000000000000000000000000000000000000000000060096000600560009054906101000a900473ffffffffffffffffffffffffffffffffffffffff1673ffffffffffffffffffffffffffffffffffffffff1673ffffffffffffffffffffffffffffffffffffffff168152602001908152602001600020546115139190614163565b42101561151f57600080fd5b3373ffffffffffffffffffffffffffffffffffffffff1631600660009054906101000a900473ffffffffffffffffffffffffffffffffffffffff1673ffffffffffffffffffffffffffffffffffffffff1631111561157c57600080fd5b428210156115bf576040517f08c379a00000000000000000000000000000000000000000000000000000000081526004016115b690614061565b60405180910390fd5b600360009054906101000a900473ffffffffffffffffffffffffffffffffffffffff1673ffffffffffffffffffffffffffffffffffffffff16635e64b75b826040518263ffffffff1660e01b815260040161161a9190614121565b600060405180830381600087803b15801561163457600080fd5b505af1158015611648573d6000803e3d6000fd5b50505050600c60008473ffffffffffffffffffffffffffffffffffffffff1673ffffffffffffffffffffffffffffffffffffffff168152602001908152602001600020600082815260200190815260200160002054600760003073ffffffffffffffffffffffffffffffffffffffff1673ffffffffffffffffffffffffffffffffffffffff16815260200190815260200160002060008282546116eb9190614213565b92505081905550600c60008473ffffffffffffffffffffffffffffffffffffffff1673ffffffffffffffffffffffffffffffffffffffff168152602001908152602001600020600082815260200190815260200160002054600760008573ffffffffffffffffffffffffffffffffffffffff1673ffffffffffffffffffffffffffffffffffffffff16815260200190815260200160002060008282546117919190614163565b92505081905550808373ffffffffffffffffffffffffffffffffffffffff167fb2e011f7561cad3d4f94ede484a09ba367934c0a295f35f67dda16d8b41329e9600c60008773ffffffffffffffffffffffffffffffffffffffff1673ffffffffffffffffffffffffffffffffffffffff16815260200190815260200160002060008581526020019081526020016000205460405161182f9190614121565b60405180910390a3505050565b61184533612544565b611884576040517f08c379a000000000000000000000000000000000000000000000000000000000815260040161187b90613f21565b60405180910390fd5b61188e82826128e0565b5050565b6000600e600083815260200190815260200160002060009054906101000a900473ffffffffffffffffffffffffffffffffffffffff169050919050565b600047905090565b6118e033612544565b61191f576040517f08c379a000000000000000000000000000000000000000000000000000000000815260040161191690613f21565b60405180910390fd5b6119497f829b824e2329e205435d941c9f13baf578548505283d29261236d8e6596d4636826120dd565b50565b600081601060008573ffffffffffffffffffffffffffffffffffffffff1673ffffffffffffffffffffffffffffffffffffffff168152602001908152602001600020600082825461199d9190614163565b925050819055905092915050565b60006119d2826001600086815260200190815260200160002061293b90919063ffffffff16565b905092915050565b600080600084815260200190815260200160002060000160008373ffffffffffffffffffffffffffffffffffffffff1673ffffffffffffffffffffffffffffffffffffffff16815260200190815260200160002060009054906101000a900460ff16905092915050565b611a4d33612544565b611a8c576040517f08c379a0000000000000000000000000000000000000000000000000000000008152600401611a8390613f21565b60405180910390fd5b611ab67f55435dd261a4b9b3364963f7738a7a662ad9c84396d64be3365284bb7f0a5041826110ac565b50565b7f829b824e2329e205435d941c9f13baf578548505283d29261236d8e6596d463681565b6000801b81565b6000611b107f829b824e2329e205435d941c9f13baf578548505283d29261236d8e6596d4636836119da565b9050919050565b6000611b437f9f2df0fed2c77648de5860a4cc508cd0818c85b8b8a1ab4ceeef8d981c8956a6836119da565b9050919050565b611b5333612544565b611b92576040517f08c379a0000000000000000000000000000000000000000000000000000000008152600401611b8990613f21565b60405180910390fd5b611bbc7f55435dd261a4b9b3364963f7738a7a662ad9c84396d64be3365284bb7f0a5041826120dd565b50565b60003373ffffffffffffffffffffffffffffffffffffffff16311015611c1a576040517f08c379a0000000000000000000000000000000000000000000000000000000008152600401611c1190613f81565b60405180910390fd5b67016345785d8a00003414611c64576040517f08c379a0000000000000000000000000000000000000000000000000000000008152600401611c5b90613fe1565b60405180910390fd5b611c6d81612955565b67016345785d8a0000600760003373ffffffffffffffffffffffffffffffffffffffff1673ffffffffffffffffffffffffffffffffffffffff1681526020019081526020016000206000828254611cc49190614213565b9250508190555042600a60008373ffffffffffffffffffffffffffffffffffffffff1673ffffffffffffffffffffffffffffffffffffffff168152602001908152602001600020819055508073ffffffffffffffffffffffffffffffffffffffff167fe354f0cf679c86f6893ff16487e64267deeffb2e5e6ace0aca8286beddf9bd0d60405160405180910390a250565b6001151560086000600560009054906101000a900473ffffffffffffffffffffffffffffffffffffffff1673ffffffffffffffffffffffffffffffffffffffff1673ffffffffffffffffffffffffffffffffffffffff16815260200190815260200160002060009054906101000a900460ff16151514611e0a576040517f08c379a0000000000000000000000000000000000000000000000000000000008152600401611e01906140c1565b60405180910390fd5b343373ffffffffffffffffffffffffffffffffffffffff16311015611e64576040517f08c379a0000000000000000000000000000000000000000000000000000000008152600401611e5b90613fa1565b60405180910390fd5b42600960003373ffffffffffffffffffffffffffffffffffffffff1673ffffffffffffffffffffffffffffffffffffffff1681526020019081526020016000208190555034600760003373ffffffffffffffffffffffffffffffffffffffff1673ffffffffffffffffffffffffffffffffffffffff1681526020019081526020016000206000828254611ef79190614213565b92505081905550813373ffffffffffffffffffffffffffffffffffffffff167f8c303db574f6e1e8a1fae833138421d6040c616f1bf5b3a2b3234e2e6a9bf6be34604051611f459190614121565b60405180910390a35050565b50565b611f5d33612544565b611f9c576040517f08c379a0000000000000000000000000000000000000000000000000000000008152600401611f9390613f21565b60405180910390fd5b611fc67f9d98d3d08f0062b192694645e127c98e5f96f3bbec331d061acaac3ace2327f9826120dd565b50565b7f9d98d3d08f0062b192694645e127c98e5f96f3bbec331d061acaac3ace2327f981565b60006120197f9d98d3d08f0062b192694645e127c98e5f96f3bbec331d061acaac3ace2327f9836119da565b9050919050565b600061203d60016000848152602001908152602001600020612b9b565b9050919050565b61204d33612544565b61208c576040517f08c379a000000000000000000000000000000000000000000000000000000000815260040161208390613f21565b60405180910390fd5b6120b67f9f2df0fed2c77648de5860a4cc508cd0818c85b8b8a1ab4ceeef8d981c8956a6826120dd565b50565b7f9f2df0fed2c77648de5860a4cc508cd0818c85b8b8a1ab4ceeef8d981c8956a681565b6120e682610dff565b6120f7816120f26127d3565b6127db565b61210183836128ac565b505050565b6001151560086000600560009054906101000a900473ffffffffffffffffffffffffffffffffffffffff1673ffffffffffffffffffffffffffffffffffffffff1673ffffffffffffffffffffffffffffffffffffffff16815260200190815260200160002060009054906101000a900460ff161515146121bb576040517f08c379a00000000000000000000000000000000000000000000000000000000081526004016121b2906140c1565b60405180910390fd5b60011515600860003373ffffffffffffffffffffffffffffffffffffffff1673ffffffffffffffffffffffffffffffffffffffff16815260200190815260200160002060009054906101000a900460ff1615151461224e576040517f08c379a000000000000000000000000000000000000000000000000000000000815260040161224590613f01565b60405180910390fd5b6000600c60003373ffffffffffffffffffffffffffffffffffffffff1673ffffffffffffffffffffffffffffffffffffffff168152602001908152602001600020600084815260200190815260200160002054146122e1576040517f08c379a00000000000000000000000000000000000000000000000000000000081526004016122d890614021565b60405180910390fd5b5050565b6000600c60008573ffffffffffffffffffffffffffffffffffffffff1673ffffffffffffffffffffffffffffffffffffffff16815260200190815260200160002060008381526020019081526020016000205490509392505050565b6001151560086000600560009054906101000a900473ffffffffffffffffffffffffffffffffffffffff1673ffffffffffffffffffffffffffffffffffffffff1673ffffffffffffffffffffffffffffffffffffffff16815260200190815260200160002060009054906101000a900460ff161515146123f6576040517f08c379a00000000000000000000000000000000000000000000000000000000081526004016123ed906140c1565b60405180910390fd5b60001515601160009054906101000a900460ff1615151461244c576040517f08c379a000000000000000000000000000000000000000000000000000000000815260040161244390613f41565b60405180910390fd5b7f000000000000000000000000000000000000000000000000000000000000000060096000600560009054906101000a900473ffffffffffffffffffffffffffffffffffffffff1673ffffffffffffffffffffffffffffffffffffffff1673ffffffffffffffffffffffffffffffffffffffff168152602001908152602001600020546124d99190614163565b4210156124e557600080fd5b3373ffffffffffffffffffffffffffffffffffffffff1631600660009054906101000a900473ffffffffffffffffffffffffffffffffffffffff1673ffffffffffffffffffffffffffffffffffffffff1631111561254257600080fd5b565b60006125707f899bd46557473cb80307a9dabc297131ced39608330a2d29b2d52b660c03923e836119da565b9050919050565b61258033612544565b6125bf576040517f08c379a00000000000000000000000000000000000000000000000000000000081526004016125b690613f21565b60405180910390fd5b6125e97f899bd46557473cb80307a9dabc297131ced39608330a2d29b2d52b660c03923e826120dd565b50565b6000919050565b6000600f60008373ffffffffffffffffffffffffffffffffffffffff1673ffffffffffffffffffffffffffffffffffffffff16815260200190815260200160002060009054906101000a900460ff169050919050565b61265382826119da565b61272557600160008084815260200190815260200160002060000160008373ffffffffffffffffffffffffffffffffffffffff1673ffffffffffffffffffffffffffffffffffffffff16815260200190815260200160002060006101000a81548160ff0219169083151502179055506126ca6127d3565b73ffffffffffffffffffffffffffffffffffffffff168173ffffffffffffffffffffffffffffffffffffffff16837f2f8788117e7eff1d82e926ec794901d17c78024a50270940304540a733656f0d60405160405180910390a45b5050565b6000612751836000018373ffffffffffffffffffffffffffffffffffffffff1660001b612bb0565b905092915050565b60007f7965db0b000000000000000000000000000000000000000000000000000000007bffffffffffffffffffffffffffffffffffffffffffffffffffffffff1916827bffffffffffffffffffffffffffffffffffffffffffffffffffffffff191614806127cc57506127cb82612c20565b5b9050919050565b600033905090565b6127e582826119da565b6128745761280a8173ffffffffffffffffffffffffffffffffffffffff166014612c8a565b6128188360001c6020612c8a565b604051602001612829929190613de2565b6040516020818303038152906040526040517f08c379a000000000000000000000000000000000000000000000000000000000815260040161286b9190613ebf565b60405180910390fd5b5050565b6128828282612649565b6128a7816001600085815260200190815260200160002061272990919063ffffffff16565b505050565b6128b68282612f84565b6128db816001600085815260200190815260200160002061306590919063ffffffff16565b505050565b60006128eb83610dff565b905081600080858152602001908152602001600020600101819055508181847fbd79b86ffe0ab8e8776151514217cd7cacd52c909f66475c3af44e129f0b00ff60405160405180910390a4505050565b600061294a8360000183613095565b60001c905092915050565b61295e33611fed565b61299d576040517f08c379a0000000000000000000000000000000000000000000000000000000008152600401612994906140e1565b60405180910390fd5b60011515600f60008373ffffffffffffffffffffffffffffffffffffffff1673ffffffffffffffffffffffffffffffffffffffff16815260200190815260200160002060009054906101000a900460ff1615151415612a31576040517f08c379a0000000000000000000000000000000000000000000000000000000008152600401612a2890614001565b60405180910390fd5b600a60008273ffffffffffffffffffffffffffffffffffffffff1673ffffffffffffffffffffffffffffffffffffffff168152602001908152602001600020547f000000000000000000000000000000000000000000000000000000000000000042612a9d9190614213565b10612b78576001601160006101000a81548160ff0219169083151502179055506001600f60008373ffffffffffffffffffffffffffffffffffffffff1673ffffffffffffffffffffffffffffffffffffffff16815260200190815260200160002060006101000a81548160ff02191690831515021790555067016345785d8a0000600760003073ffffffffffffffffffffffffffffffffffffffff1673ffffffffffffffffffffffffffffffffffffffff1681526020019081526020016000206000828254612b6c9190614163565b92505081905550612b98565b6000601160006101000a81548160ff021916908315150217905550600080fd5b50565b6000612ba9826000016130e6565b9050919050565b6000612bbc83836130f7565b612c15578260000182908060018154018082558091505060019003906000526020600020016000909190919091505582600001805490508360010160008481526020019081526020016000208190555060019050612c1a565b600090505b92915050565b60007f01ffc9a7000000000000000000000000000000000000000000000000000000007bffffffffffffffffffffffffffffffffffffffffffffffffffffffff1916827bffffffffffffffffffffffffffffffffffffffffffffffffffffffff1916149050919050565b606060006002836002612c9d91906141b9565b612ca79190614163565b67ffffffffffffffff811115612ce6577f4e487b7100000000000000000000000000000000000000000000000000000000600052604160045260246000fd5b6040519080825280601f01601f191660200182016040528015612d185781602001600182028036833780820191505090505b5090507f300000000000000000000000000000000000000000000000000000000000000081600081518110612d76577f4e487b7100000000000000000000000000000000000000000000000000000000600052603260045260246000fd5b60200101907effffffffffffffffffffffffffffffffffffffffffffffffffffffffffffff1916908160001a9053507f780000000000000000000000000000000000000000000000000000000000000081600181518110612e00577f4e487b7100000000000000000000000000000000000000000000000000000000600052603260045260246000fd5b60200101907effffffffffffffffffffffffffffffffffffffffffffffffffffffffffffff1916908160001a90535060006001846002612e4091906141b9565b612e4a9190614163565b90505b6001811115612f36577f3031323334353637383961626364656600000000000000000000000000000000600f861660108110612eb2577f4e487b7100000000000000000000000000000000000000000000000000000000600052603260045260246000fd5b1a60f81b828281518110612eef577f4e487b7100000000000000000000000000000000000000000000000000000000600052603260045260246000fd5b60200101907effffffffffffffffffffffffffffffffffffffffffffffffffffffffffffff1916908160001a905350600485901c945080612f2f906142f8565b9050612e4d565b5060008414612f7a576040517f08c379a0000000000000000000000000000000000000000000000000000000008152600401612f7190613ee1565b60405180910390fd5b8091505092915050565b612f8e82826119da565b1561306157600080600084815260200190815260200160002060000160008373ffffffffffffffffffffffffffffffffffffffff1673ffffffffffffffffffffffffffffffffffffffff16815260200190815260200160002060006101000a81548160ff0219169083151502179055506130066127d3565b73ffffffffffffffffffffffffffffffffffffffff168173ffffffffffffffffffffffffffffffffffffffff16837ff6391f5c32d9c69d2a47ea670b442974b53935d1edc7fd64eb21e047a839171b60405160405180910390a45b5050565b600061308d836000018373ffffffffffffffffffffffffffffffffffffffff1660001b61311a565b905092915050565b60008260000182815481106130d3577f4e487b7100000000000000000000000000000000000000000000000000000000600052603260045260246000fd5b9060005260206000200154905092915050565b600081600001805490509050919050565b600080836001016000848152602001908152602001600020541415905092915050565b6000808360010160008481526020019081526020016000205490506000811461329457600060018261314c9190614213565b90506000600186600001805490506131649190614213565b905081811461321f5760008660000182815481106131ab577f4e487b7100000000000000000000000000000000000000000000000000000000600052603260045260246000fd5b90600052602060002001549050808760000184815481106131f5577f4e487b7100000000000000000000000000000000000000000000000000000000600052603260045260246000fd5b90600052602060002001819055508387600101600083815260200190815260200160002081905550505b85600001805480613259577f4e487b7100000000000000000000000000000000000000000000000000000000600052603160045260246000fd5b60019003818190600052602060002001600090559055856001016000868152602001908152602001600020600090556001935050505061329a565b60009150505b92915050565b6000813590506132af81614362565b92915050565b6000813590506132c481614379565b92915050565b6000813590506132d981614390565b92915050565b6000813590506132ee816143a7565b92915050565b600081519050613303816143a7565b92915050565b60006020828403121561331b57600080fd5b6000613329848285016132a0565b91505092915050565b6000806040838503121561334557600080fd5b6000613353858286016132a0565b9250506020613364858286016132df565b9150509250929050565b60008060006060848603121561338357600080fd5b6000613391868287016132a0565b93505060206133a2868287016132df565b92505060406133b3868287016132a0565b9150509250925092565b6000806000606084860312156133d257600080fd5b60006133e0868287016132a0565b93505060206133f1868287016132df565b9250506040613402868287016132df565b9150509250925092565b60006020828403121561341e57600080fd5b600061342c848285016132b5565b91505092915050565b6000806040838503121561344857600080fd5b6000613456858286016132b5565b9250506020613467858286016132a0565b9150509250929050565b6000806040838503121561348457600080fd5b6000613492858286016132b5565b92505060206134a3858286016132b5565b9150509250929050565b600080604083850312156134c057600080fd5b60006134ce858286016132b5565b92505060206134df858286016132df565b9150509250929050565b6000602082840312156134fb57600080fd5b6000613509848285016132ca565b91505092915050565b60006020828403121561352457600080fd5b6000613532848285016132df565b91505092915050565b60006020828403121561354d57600080fd5b600061355b848285016132f4565b91505092915050565b6000806040838503121561357757600080fd5b6000613585858286016132df565b9250506020613596858286016132a0565b9150509250929050565b600080604083850312156135b357600080fd5b60006135c1858286016132df565b92505060206135d2858286016132df565b9150509250929050565b6135e581614247565b82525050565b6135f481614259565b82525050565b61360381614265565b82525050565b60006136148261413c565b61361e8185614147565b935061362e8185602086016142c5565b61363781614351565b840191505092915050565b600061364d8261413c565b6136578185614158565b93506136678185602086016142c5565b80840191505092915050565b6000613680602083614147565b91507f537472696e67733a20686578206c656e67746820696e73756666696369656e746000830152602082019050919050565b60006136c0603f83614147565b91507f416e792070726f746f636f6c27732075736572206d757374206669727374206d60008301527f616b6520612073616665206465706f736974206f6620302e31206574686572006020830152604082019050919050565b6000613726602583614147565b91507f5065726d697373696f6e733a2043616c6c6572206973206e6f74206120676f7660008301527f65726e6f720000000000000000000000000000000000000000000000000000006020830152604082019050919050565b600061378c601083614147565b91507f66756e647320617265206c6f636b6564000000000000000000000000000000006000830152602082019050919050565b60006137cc600e83614147565b91507f6e6f7420612076616c69642069640000000000000000000000000000000000006000830152602082019050919050565b600061380c601883614147565b91507f62616c616e6365206d75737420626520706f73697469766500000000000000006000830152602082019050919050565b600061384c602883614147565b91507f7573657220646f65736e2774206861766520656d6f7567682066756e6473203d60008301527f3e207265766572740000000000000000000000000000000000000000000000006020830152604082019050919050565b60006138b2600b83614147565b91507f696e76616c696420454f410000000000000000000000000000000000000000006000830152602082019050919050565b60006138f2602683614147565b91507f54686520616d6f756e74206f6620302e31206574686572206973206e6f74207260008301527f65616368656400000000000000000000000000000000000000000000000000006020830152604082019050919050565b6000613958602383614147565b91507f546865207365637572697479206465706f73697420697320616c72656164792060008301527f6d657400000000000000000000000000000000000000000000000000000000006020830152604082019050919050565b60006139be606683614147565b91507f54686520757365722068617320616c726561647920696e76657374656420696e60008301527f2074686973205266432c207468656e2068652f7368652f7468657920646f6e2760208301527f74206e65656420616e20746f2070617920746f2061636365737320746865206360408301527f6f6e74656e7400000000000000000000000000000000000000000000000000006060830152608082019050919050565b6000613a70602583614147565b91507f5065726d697373696f6e733a2043616c6c6572206973206e6f7420612067756160008301527f726469616e0000000000000000000000000000000000000000000000000000006020830152604082019050919050565b6000613ad6601a83614147565b91507f457363726f7720706572696f64206e6f7420657870697265642e0000000000006000830152602082019050919050565b6000613b16603583614147565b91507f616464726573732063616e277420626520302c2074686520636f6e747261637460008301527f2068617320746f20657869737420616c726561647900000000000000000000006020830152604082019050919050565b6000613b7c602c83614147565b91507f5065726d697373696f6e733a20477561726469616e2063616e6e6f742072657660008301527f6f6b6520676f7665726e6f7200000000000000000000000000000000000000006020830152604082019050919050565b6000613be2604683614147565b91507f5065726d697373696f6e733a2043616c6c657220646f6573206e6f742068617660008301527f6520612073616665206465706f73697420616e6420616374697665206d656d6260208301527f65727368697000000000000000000000000000000000000000000000000000006040830152606082019050919050565b6000613c6e601783614158565b91507f416363657373436f6e74726f6c3a206163636f756e74200000000000000000006000830152601782019050919050565b6000613cae604683614147565b91507f5065726d697373696f6e733a2043616c6c6572206973206e6f7420612046756e60008301527f64734d616e616765722070726f746f636f6c277320636f6e747261637420696e60208301527f7374616e636500000000000000000000000000000000000000000000000000006040830152606082019050919050565b6000613d3a601183614158565b91507f206973206d697373696e6720726f6c65200000000000000000000000000000006000830152601182019050919050565b6000613d7a602f83614147565b91507f416363657373436f6e74726f6c3a2063616e206f6e6c792072656e6f756e636560008301527f20726f6c657320666f722073656c6600000000000000000000000000000000006020830152604082019050919050565b613ddc816142bb565b82525050565b6000613ded82613c61565b9150613df98285613642565b9150613e0482613d2d565b9150613e108284613642565b91508190509392505050565b6000602082019050613e3160008301846135dc565b92915050565b6000604082019050613e4c60008301856135dc565b613e5960208301846135eb565b9392505050565b6000602082019050613e7560008301846135eb565b92915050565b6000602082019050613e9060008301846135fa565b92915050565b6000604082019050613eab60008301856135fa565b613eb860208301846135dc565b9392505050565b60006020820190508181036000830152613ed98184613609565b905092915050565b60006020820190508181036000830152613efa81613673565b9050919050565b60006020820190508181036000830152613f1a816136b3565b9050919050565b60006020820190508181036000830152613f3a81613719565b9050919050565b60006020820190508181036000830152613f5a8161377f565b9050919050565b60006020820190508181036000830152613f7a816137bf565b9050919050565b60006020820190508181036000830152613f9a816137ff565b9050919050565b60006020820190508181036000830152613fba8161383f565b9050919050565b60006020820190508181036000830152613fda816138a5565b9050919050565b60006020820190508181036000830152613ffa816138e5565b9050919050565b6000602082019050818103600083015261401a8161394b565b9050919050565b6000602082019050818103600083015261403a816139b1565b9050919050565b6000602082019050818103600083015261405a81613a63565b9050919050565b6000602082019050818103600083015261407a81613ac9565b9050919050565b6000602082019050818103600083015261409a81613b09565b9050919050565b600060208201905081810360008301526140ba81613b6f565b9050919050565b600060208201905081810360008301526140da81613bd5565b9050919050565b600060208201905081810360008301526140fa81613ca1565b9050919050565b6000602082019050818103600083015261411a81613d6d565b9050919050565b60006020820190506141366000830184613dd3565b92915050565b600081519050919050565b600082825260208201905092915050565b600081905092915050565b600061416e826142bb565b9150614179836142bb565b9250827fffffffffffffffffffffffffffffffffffffffffffffffffffffffffffffffff038211156141ae576141ad614322565b5b828201905092915050565b60006141c4826142bb565b91506141cf836142bb565b9250817fffffffffffffffffffffffffffffffffffffffffffffffffffffffffffffffff048311821515161561420857614207614322565b5b828202905092915050565b600061421e826142bb565b9150614229836142bb565b92508282101561423c5761423b614322565b5b828203905092915050565b60006142528261429b565b9050919050565b60008115159050919050565b6000819050919050565b60007fffffffff0000000000000000000000000000000000000000000000000000000082169050919050565b600073ffffffffffffffffffffffffffffffffffffffff82169050919050565b6000819050919050565b60005b838110156142e35780820151818401526020810190506142c8565b838111156142f2576000848401525b50505050565b6000614303826142bb565b9150600082141561431757614316614322565b5b600182039050919050565b7f4e487b7100000000000000000000000000000000000000000000000000000000600052601160045260246000fd5b6000601f19601f8301169050919050565b61436b81614247565b811461437657600080fd5b50565b61438281614265565b811461438d57600080fd5b50565b6143998161426f565b81146143a457600080fd5b50565b6143b0816142bb565b81146143bb57600080fd5b5056fea2646970667358221220e0813f84c7dc8fe5a8187f6388a46725e94bd1adf15aafe371d2b38497d560c464736f6c6343000800003360806040523480156200001157600080fd5b506040518060400160405280601181526020017f52657175657374466f72436f6e74656e740000000000000000000000000000008152506040518060400160405280600381526020017f52464300000000000000000000000000000000000000000000000000000000008152506200008f306200021160201b60201c565b620000e17f9f2df0fed2c77648de5860a4cc508cd0818c85b8b8a1ab4ceeef8d981c8956a67f899bd46557473cb80307a9dabc297131ced39608330a2d29b2d52b660c03923e6200024660201b60201c565b620001337f829b824e2329e205435d941c9f13baf578548505283d29261236d8e6596d46367f899bd46557473cb80307a9dabc297131ced39608330a2d29b2d52b660c03923e6200024660201b60201c565b620001857f9d98d3d08f0062b192694645e127c98e5f96f3bbec331d061acaac3ace2327f97f899bd46557473cb80307a9dabc297131ced39608330a2d29b2d52b660c03923e6200024660201b60201c565b620001d77f55435dd261a4b9b3364963f7738a7a662ad9c84396d64be3365284bb7f0a50417f899bd46557473cb80307a9dabc297131ced39608330a2d29b2d52b660c03923e6200024660201b60201c565b8160029080519060200190620001ef9291906200055e565b508060039080519060200190620002089291906200055e565b50505062000673565b620002437f899bd46557473cb80307a9dabc297131ced39608330a2d29b2d52b660c03923e82620002a960201b60201c565b50565b60006200025983620002bf60201b60201c565b905081600080858152602001908152602001600020600101819055508181847fbd79b86ffe0ab8e8776151514217cd7cacd52c909f66475c3af44e129f0b00ff60405160405180910390a4505050565b620002bb8282620002de60201b60201c565b5050565b6000806000838152602001908152602001600020600101549050919050565b620002f582826200032660201b62001b461760201c565b6200032181600160008581526020019081526020016000206200041760201b62001c261790919060201c565b505050565b6200033882826200044f60201b60201c565b6200041357600160008084815260200190815260200160002060000160008373ffffffffffffffffffffffffffffffffffffffff1673ffffffffffffffffffffffffffffffffffffffff16815260200190815260200160002060006101000a81548160ff021916908315150217905550620003b8620004b960201b60201c565b73ffffffffffffffffffffffffffffffffffffffff168173ffffffffffffffffffffffffffffffffffffffff16837f2f8788117e7eff1d82e926ec794901d17c78024a50270940304540a733656f0d60405160405180910390a45b5050565b600062000447836000018373ffffffffffffffffffffffffffffffffffffffff1660001b620004c160201b60201c565b905092915050565b600080600084815260200190815260200160002060000160008373ffffffffffffffffffffffffffffffffffffffff1673ffffffffffffffffffffffffffffffffffffffff16815260200190815260200160002060009054906101000a900460ff16905092915050565b600033905090565b6000620004d583836200053b60201b60201c565b6200053057826000018290806001815401808255809150506001900390600052602060002001600090919091909150558260000180549050836001016000848152602001908152602001600020819055506001905062000535565b600090505b92915050565b600080836001016000848152602001908152602001600020541415905092915050565b8280546200056c906200060e565b90600052602060002090601f016020900481019282620005905760008555620005dc565b82601f10620005ab57805160ff1916838001178555620005dc565b82800160010185558215620005dc579182015b82811115620005db578251825591602001919060010190620005be565b5b509050620005eb9190620005ef565b5090565b5b808211156200060a576000816000905550600101620005f0565b5090565b600060028204905060018216806200062757607f821691505b602082108114156200063e576200063d62000644565b5b50919050565b7f4e487b7100000000000000000000000000000000000000000000000000000000600052602260045260246000fd5b614a3680620006836000396000f3fe608060405234801561001057600080fd5b506004361061030c5760003560e01c80638667c2981161019d578063b88d4fde116100e9578063cfbd4885116100a2578063d547741f1161007c578063d547741f14610981578063e43581b81461099d578063e6eb982f146109cd578063e985e9c5146109e95761030c565b8063cfbd488514610929578063d5056dab14610945578063d5391393146109635761030c565b8063b88d4fde14610843578063bcb9d2dd1461085f578063c4707a831461087b578063c87b56dd14610899578063c9876d54146108c9578063ca15c873146108f95761030c565b8063a0c2b03611610156578063a22cb46511610130578063a22cb465146107ab578063a230c524146107c7578063aa271e1a146107f7578063af648c3d146108275761030c565b8063a0c2b0361461073f578063a10f469e1461076f578063a217fddf1461078d5761030c565b80638667c2981461066b5780638adf23b9146106895780639010d07c146106a557806391d14854146106d557806394b1d2c01461070557806395d89b41146107215761030c565b80632f832d351161025c5780634c9f9384116102155780636073e406116101ef5780636073e406146105bf5780636352211e146105ef57806369bfca8d1461061f57806370a082311461063b5761030c565b80634c9f93841461057d578063535865b1146105995780635e64b75b146105a35761030c565b80632f832d35146104d157806336568abe146104ef57806338b7f4461461050b578063395c62e81461052957806340d097c31461054557806342842e0e146105615761030c565b806313e15efc116102c9578063248a9ca3116102a3578063248a9ca31461044b57806324ea54f41461047b578063261707fa146104995780632f2ff15d146104b55761030c565b806313e15efc146103f75780632320eabf1461041357806323b872dd1461042f5761030c565b806301ffc9a71461031157806306fdde0314610341578063080bf57c1461035f578063081812fc1461037b578063095ea7b3146103ab5780630c68ba21146103c7575b600080fd5b61032b600480360381019061032691906137a1565b610a19565b60405161033891906141fd565b60405180910390f35b610349610a2b565b604051610356919061425c565b60405180910390f35b610379600480360381019061037491906136ed565b610abd565b005b610395600480360381019061039091906137f3565b610bd9565b6040516103a2919061415f565b60405180910390f35b6103c560048036038101906103c09190613639565b610c5e565b005b6103e160048036038101906103dc91906134ce565b610d76565b6040516103ee91906141fd565b60405180910390f35b610411600480360381019061040c91906134ce565b610da9565b005b61042d600480360381019061042891906134ce565b610e1e565b005b61044960048036038101906104449190613533565b610e93565b005b610465600480360381019061046091906136c4565b610ef3565b6040516104729190614218565b60405180910390f35b610483610f12565b6040516104909190614218565b60405180910390f35b6104b360048036038101906104ae91906134ce565b610f36565b005b6104cf60048036038101906104ca91906136ed565b610fab565b005b6104d9610fd4565b6040516104e691906144fe565b60405180910390f35b610509600480360381019061050491906136ed565b61102d565b005b6105136110b0565b6040516105209190614218565b60405180910390f35b610543600480360381019061053e91906134ce565b6110d4565b005b61055f600480360381019061055a91906134ce565b611149565b005b61057b60048036038101906105769190613533565b6111f2565b005b61059760048036038101906105929190613729565b611212565b005b6105a1611268565b005b6105bd60048036038101906105b891906137f3565b61126a565b005b6105d960048036038101906105d49190613639565b611276565b6040516105e691906141fd565b60405180910390f35b610609600480360381019061060491906137f3565b61127e565b604051610616919061415f565b60405180910390f35b61063960048036038101906106349190613675565b611330565b005b610655600480360381019061065091906134ce565b611335565b60405161066291906144fe565b60405180910390f35b6106736113ed565b60405161068091906144fe565b60405180910390f35b6106a3600480360381019061069e91906134ce565b6113f3565b005b6106bf60048036038101906106ba9190613765565b611468565b6040516106cc919061415f565b60405180910390f35b6106ef60048036038101906106ea91906136ed565b611497565b6040516106fc91906141fd565b60405180910390f35b61071f600480360381019061071a91906134ce565b611501565b005b610729611576565b604051610736919061425c565b60405180910390f35b610759600480360381019061075491906134f7565b611608565b60405161076691906144fe565b60405180910390f35b61077761162d565b6040516107849190614218565b60405180910390f35b610795611651565b6040516107a29190614218565b60405180910390f35b6107c560048036038101906107c091906135fd565b611658565b005b6107e160048036038101906107dc91906134ce565b61166e565b6040516107ee91906141fd565b60405180910390f35b610811600480360381019061080c91906134ce565b6116a1565b60405161081e91906141fd565b60405180910390f35b610841600480360381019061083c91906134ce565b6116d4565b005b61085d60048036038101906108589190613582565b611749565b005b610879600480360381019061087491906134ce565b6117ab565b005b610883611820565b6040516108909190614218565b60405180910390f35b6108b360048036038101906108ae91906137f3565b611844565b6040516108c0919061425c565b60405180910390f35b6108e360048036038101906108de91906134ce565b6118eb565b6040516108f091906141fd565b60405180910390f35b610913600480360381019061090e91906136c4565b61191e565b60405161092091906144fe565b60405180910390f35b610943600480360381019061093e91906134ce565b611942565b005b61094d6119b7565b60405161095a91906144fe565b60405180910390f35b61096b6119bd565b6040516109789190614218565b60405180910390f35b61099b600480360381019061099691906136ed565b6119e1565b005b6109b760048036038101906109b291906134ce565b611a0a565b6040516109c491906141fd565b60405180910390f35b6109e760048036038101906109e291906134ce565b611a3d565b005b610a0360048036038101906109fe91906134f7565b611ab2565b604051610a1091906141fd565b60405180910390f35b6000610a2482611c56565b9050919050565b606060028054610a3a906147c6565b80601f0160208091040260200160405190810160405280929190818152602001828054610a66906147c6565b8015610ab35780601f10610a8857610100808354040283529160200191610ab3565b820191906000526020600020905b815481529060010190602001808311610a9657829003601f168201915b5050505050905090565b610ac633610d76565b610b05576040517f08c379a0000000000000000000000000000000000000000000000000000000008152600401610afc9061445e565b60405180910390fd5b7f899bd46557473cb80307a9dabc297131ced39608330a2d29b2d52b660c03923e821415610b68576040517f08c379a0000000000000000000000000000000000000000000000000000000008152600401610b5f9061449e565b60405180910390fd5b3073ffffffffffffffffffffffffffffffffffffffff1663d547741f83836040518363ffffffff1660e01b8152600401610ba3929190614233565b600060405180830381600087803b158015610bbd57600080fd5b505af1158015610bd1573d6000803e3d6000fd5b505050505050565b6000610be482611d38565b610c23576040517f08c379a0000000000000000000000000000000000000000000000000000000008152600401610c1a906143de565b60405180910390fd5b6006600083815260200190815260200160002060009054906101000a900473ffffffffffffffffffffffffffffffffffffffff169050919050565b6000610c698261127e565b90508073ffffffffffffffffffffffffffffffffffffffff168373ffffffffffffffffffffffffffffffffffffffff161415610cda576040517f08c379a0000000000000000000000000000000000000000000000000000000008152600401610cd19061443e565b60405180910390fd5b8073ffffffffffffffffffffffffffffffffffffffff16610cf9611da4565b73ffffffffffffffffffffffffffffffffffffffff161480610d285750610d2781610d22611da4565b611ab2565b5b610d67576040517f08c379a0000000000000000000000000000000000000000000000000000000008152600401610d5e9061435e565b60405180910390fd5b610d718383611dac565b505050565b6000610da27f55435dd261a4b9b3364963f7738a7a662ad9c84396d64be3365284bb7f0a504183611497565b9050919050565b610db233611a0a565b610df1576040517f08c379a0000000000000000000000000000000000000000000000000000000008152600401610de89061429e565b60405180910390fd5b610e1b7f829b824e2329e205435d941c9f13baf578548505283d29261236d8e6596d463682610fab565b50565b610e2733611a0a565b610e66576040517f08c379a0000000000000000000000000000000000000000000000000000000008152600401610e5d9061429e565b60405180910390fd5b610e907f9d98d3d08f0062b192694645e127c98e5f96f3bbec331d061acaac3ace2327f982610fab565b50565b610ea4610e9e611da4565b82611e65565b610ee3576040517f08c379a0000000000000000000000000000000000000000000000000000000008152600401610eda9061447e565b60405180910390fd5b610eee838383611f43565b505050565b6000806000838152602001908152602001600020600101549050919050565b7f55435dd261a4b9b3364963f7738a7a662ad9c84396d64be3365284bb7f0a504181565b610f3f33611a0a565b610f7e576040517f08c379a0000000000000000000000000000000000000000000000000000000008152600401610f759061429e565b60405180910390fd5b610fa87f9f2df0fed2c77648de5860a4cc508cd0818c85b8b8a1ab4ceeef8d981c8956a682610fab565b50565b610fb482610ef3565b610fc581610fc0611da4565b61219f565b610fcf838361223c565b505050565b6000610fdf336118eb565b61101e576040517f08c379a0000000000000000000000000000000000000000000000000000000008152600401611015906144be565b60405180910390fd5b6110286008612270565b905090565b611035611da4565b73ffffffffffffffffffffffffffffffffffffffff168173ffffffffffffffffffffffffffffffffffffffff16146110a2576040517f08c379a0000000000000000000000000000000000000000000000000000000008152600401611099906144de565b60405180910390fd5b6110ac828261227e565b5050565b7f899bd46557473cb80307a9dabc297131ced39608330a2d29b2d52b660c03923e81565b6110dd33611a0a565b61111c576040517f08c379a00000000000000000000000000000000000000000000000000000000081526004016111139061429e565b60405180910390fd5b6111467f899bd46557473cb80307a9dabc297131ced39608330a2d29b2d52b660c03923e82610fab565b50565b611152336118eb565b611191576040517f08c379a0000000000000000000000000000000000000000000000000000000008152600401611188906144be565b60405180910390fd5b600061119d6008612270565b90506111a960086122b2565b6111b382826122c8565b7f0e8f1329102f0782f62a7d1a4cabe52055721bce7cf1e4768db820abf1dc79e78282426040516111e6939291906141c6565b60405180910390a15050565b61120d83838360405180602001604052806000815250611749565b505050565b61121b33611a0a565b61125a576040517f08c379a00000000000000000000000000000000000000000000000000000000081526004016112519061429e565b60405180910390fd5b61126482826122e6565b5050565b565b61127381612341565b50565b600092915050565b6000806004600084815260200190815260200160002060009054906101000a900473ffffffffffffffffffffffffffffffffffffffff169050600073ffffffffffffffffffffffffffffffffffffffff168173ffffffffffffffffffffffffffffffffffffffff161415611327576040517f08c379a000000000000000000000000000000000000000000000000000000000815260040161131e9061439e565b60405180910390fd5b80915050919050565b505050565b60008073ffffffffffffffffffffffffffffffffffffffff168273ffffffffffffffffffffffffffffffffffffffff1614156113a6576040517f08c379a000000000000000000000000000000000000000000000000000000000815260040161139d9061437e565b60405180910390fd5b600560008373ffffffffffffffffffffffffffffffffffffffff1673ffffffffffffffffffffffffffffffffffffffff168152602001908152602001600020549050919050565b600d5481565b6113fc33611a0a565b61143b576040517f08c379a00000000000000000000000000000000000000000000000000000000081526004016114329061429e565b60405180910390fd5b6114657f829b824e2329e205435d941c9f13baf578548505283d29261236d8e6596d4636826119e1565b50565b600061148f826001600086815260200190815260200160002061245290919063ffffffff16565b905092915050565b600080600084815260200190815260200160002060000160008373ffffffffffffffffffffffffffffffffffffffff1673ffffffffffffffffffffffffffffffffffffffff16815260200190815260200160002060009054906101000a900460ff16905092915050565b61150a33611a0a565b611549576040517f08c379a00000000000000000000000000000000000000000000000000000000081526004016115409061429e565b60405180910390fd5b6115737f55435dd261a4b9b3364963f7738a7a662ad9c84396d64be3365284bb7f0a504182610fab565b50565b606060038054611585906147c6565b80601f01602080910402602001604051908101604052809291908181526020018280546115b1906147c6565b80156115fe5780601f106115d3576101008083540402835291602001916115fe565b820191906000526020600020905b8154815290600101906020018083116115e157829003601f168201915b5050505050905090565b600e602052816000526040600020602052806000526040600020600091509150505481565b7f829b824e2329e205435d941c9f13baf578548505283d29261236d8e6596d463681565b6000801b81565b61166a611663611da4565b838361246c565b5050565b600061169a7f829b824e2329e205435d941c9f13baf578548505283d29261236d8e6596d463683611497565b9050919050565b60006116cd7f9f2df0fed2c77648de5860a4cc508cd0818c85b8b8a1ab4ceeef8d981c8956a683611497565b9050919050565b6116dd33611a0a565b61171c576040517f08c379a00000000000000000000000000000000000000000000000000000000081526004016117139061429e565b60405180910390fd5b6117467f55435dd261a4b9b3364963f7738a7a662ad9c84396d64be3365284bb7f0a5041826119e1565b50565b61175a611754611da4565b83611e65565b611799576040517f08c379a00000000000000000000000000000000000000000000000000000000081526004016117909061447e565b60405180910390fd5b6117a5848484846125d9565b50505050565b6117b433611a0a565b6117f3576040517f08c379a00000000000000000000000000000000000000000000000000000000081526004016117ea9061429e565b60405180910390fd5b61181d7f9d98d3d08f0062b192694645e127c98e5f96f3bbec331d061acaac3ace2327f9826119e1565b50565b7f9d98d3d08f0062b192694645e127c98e5f96f3bbec331d061acaac3ace2327f981565b606061184f82611d38565b61188e576040517f08c379a00000000000000000000000000000000000000000000000000000000081526004016118859061441e565b60405180910390fd5b6000611898612635565b905060008151116118b857604051806020016040528060008152506118e3565b806118c284612655565b6040516020016118d3929190614101565b6040516020818303038152906040525b915050919050565b60006119177f9d98d3d08f0062b192694645e127c98e5f96f3bbec331d061acaac3ace2327f983611497565b9050919050565b600061193b60016000848152602001908152602001600020612802565b9050919050565b61194b33611a0a565b61198a576040517f08c379a00000000000000000000000000000000000000000000000000000000081526004016119819061429e565b60405180910390fd5b6119b47f9f2df0fed2c77648de5860a4cc508cd0818c85b8b8a1ab4ceeef8d981c8956a6826119e1565b50565b60105481565b7f9f2df0fed2c77648de5860a4cc508cd0818c85b8b8a1ab4ceeef8d981c8956a681565b6119ea82610ef3565b6119fb816119f6611da4565b61219f565b611a05838361227e565b505050565b6000611a367f899bd46557473cb80307a9dabc297131ced39608330a2d29b2d52b660c03923e83611497565b9050919050565b611a4633611a0a565b611a85576040517f08c379a0000000000000000000000000000000000000000000000000000000008152600401611a7c9061429e565b60405180910390fd5b611aaf7f899bd46557473cb80307a9dabc297131ced39608330a2d29b2d52b660c03923e826119e1565b50565b6000600760008473ffffffffffffffffffffffffffffffffffffffff1673ffffffffffffffffffffffffffffffffffffffff16815260200190815260200160002060008373ffffffffffffffffffffffffffffffffffffffff1673ffffffffffffffffffffffffffffffffffffffff16815260200190815260200160002060009054906101000a900460ff16905092915050565b611b508282611497565b611c2257600160008084815260200190815260200160002060000160008373ffffffffffffffffffffffffffffffffffffffff1673ffffffffffffffffffffffffffffffffffffffff16815260200190815260200160002060006101000a81548160ff021916908315150217905550611bc7611da4565b73ffffffffffffffffffffffffffffffffffffffff168173ffffffffffffffffffffffffffffffffffffffff16837f2f8788117e7eff1d82e926ec794901d17c78024a50270940304540a733656f0d60405160405180910390a45b5050565b6000611c4e836000018373ffffffffffffffffffffffffffffffffffffffff1660001b612817565b905092915050565b60007f80ac58cd000000000000000000000000000000000000000000000000000000007bffffffffffffffffffffffffffffffffffffffffffffffffffffffff1916827bffffffffffffffffffffffffffffffffffffffffffffffffffffffff19161480611d2157507f5b5e139f000000000000000000000000000000000000000000000000000000007bffffffffffffffffffffffffffffffffffffffffffffffffffffffff1916827bffffffffffffffffffffffffffffffffffffffffffffffffffffffff1916145b80611d315750611d3082612887565b5b9050919050565b60008073ffffffffffffffffffffffffffffffffffffffff166004600084815260200190815260200160002060009054906101000a900473ffffffffffffffffffffffffffffffffffffffff1673ffffffffffffffffffffffffffffffffffffffff1614159050919050565b600033905090565b816006600083815260200190815260200160002060006101000a81548173ffffffffffffffffffffffffffffffffffffffff021916908373ffffffffffffffffffffffffffffffffffffffff160217905550808273ffffffffffffffffffffffffffffffffffffffff16611e1f8361127e565b73ffffffffffffffffffffffffffffffffffffffff167f8c5be1e5ebec7d5bd14f71427d1e84f3dd0314c0f7b2291e5b200ac8c7c3b92560405160405180910390a45050565b6000611e7082611d38565b611eaf576040517f08c379a0000000000000000000000000000000000000000000000000000000008152600401611ea69061433e565b60405180910390fd5b6000611eba8361127e565b90508073ffffffffffffffffffffffffffffffffffffffff168473ffffffffffffffffffffffffffffffffffffffff161480611f2957508373ffffffffffffffffffffffffffffffffffffffff16611f1184610bd9565b73ffffffffffffffffffffffffffffffffffffffff16145b80611f3a5750611f398185611ab2565b5b91505092915050565b8273ffffffffffffffffffffffffffffffffffffffff16611f638261127e565b73ffffffffffffffffffffffffffffffffffffffff1614611fb9576040517f08c379a0000000000000000000000000000000000000000000000000000000008152600401611fb0906143fe565b60405180910390fd5b600073ffffffffffffffffffffffffffffffffffffffff168273ffffffffffffffffffffffffffffffffffffffff161415612029576040517f08c379a0000000000000000000000000000000000000000000000000000000008152600401612020906142fe565b60405180910390fd5b612034838383612901565b61203f600082611dac565b6001600560008573ffffffffffffffffffffffffffffffffffffffff1673ffffffffffffffffffffffffffffffffffffffff168152602001908152602001600020600082825461208f919061469e565b925050819055506001600560008473ffffffffffffffffffffffffffffffffffffffff1673ffffffffffffffffffffffffffffffffffffffff16815260200190815260200160002060008282546120e691906145bd565b92505081905550816004600083815260200190815260200160002060006101000a81548173ffffffffffffffffffffffffffffffffffffffff021916908373ffffffffffffffffffffffffffffffffffffffff160217905550808273ffffffffffffffffffffffffffffffffffffffff168473ffffffffffffffffffffffffffffffffffffffff167fddf252ad1be2c89b69c2b068fc378daa952ba7f163c4a11628f55a4df523b3ef60405160405180910390a4505050565b6121a98282611497565b612238576121ce8173ffffffffffffffffffffffffffffffffffffffff166014612906565b6121dc8360001c6020612906565b6040516020016121ed929190614125565b6040516020818303038152906040526040517f08c379a000000000000000000000000000000000000000000000000000000000815260040161222f919061425c565b60405180910390fd5b5050565b6122468282611b46565b61226b8160016000858152602001908152602001600020611c2690919063ffffffff16565b505050565b600081600001549050919050565b6122888282612c00565b6122ad8160016000858152602001908152602001600020612ce190919063ffffffff16565b505050565b6001816000016000828254019250508190555050565b6122e2828260405180602001604052806000815250612d11565b5050565b60006122f183610ef3565b905081600080858152602001908152602001600020600101819055508181847fbd79b86ffe0ab8e8776151514217cd7cacd52c909f66475c3af44e129f0b00ff60405160405180910390a4505050565b600061234c8261127e565b905061235a81600084612901565b612365600083611dac565b6001600560008373ffffffffffffffffffffffffffffffffffffffff1673ffffffffffffffffffffffffffffffffffffffff16815260200190815260200160002060008282546123b5919061469e565b925050819055506004600083815260200190815260200160002060006101000a81549073ffffffffffffffffffffffffffffffffffffffff021916905581600073ffffffffffffffffffffffffffffffffffffffff168273ffffffffffffffffffffffffffffffffffffffff167fddf252ad1be2c89b69c2b068fc378daa952ba7f163c4a11628f55a4df523b3ef60405160405180910390a45050565b60006124618360000183612d6c565b60001c905092915050565b8173ffffffffffffffffffffffffffffffffffffffff168373ffffffffffffffffffffffffffffffffffffffff1614156124db576040517f08c379a00000000000000000000000000000000000000000000000000000000081526004016124d29061431e565b60405180910390fd5b80600760008573ffffffffffffffffffffffffffffffffffffffff1673ffffffffffffffffffffffffffffffffffffffff16815260200190815260200160002060008473ffffffffffffffffffffffffffffffffffffffff1673ffffffffffffffffffffffffffffffffffffffff16815260200190815260200160002060006101000a81548160ff0219169083151502179055508173ffffffffffffffffffffffffffffffffffffffff168373ffffffffffffffffffffffffffffffffffffffff167f17307eab39ab6107e8899845ad3d59bd9653f200f220920489ca2b5937696c31836040516125cc91906141fd565b60405180910390a3505050565b6125e4848484611f43565b6125f084848484612dbd565b61262f576040517f08c379a0000000000000000000000000000000000000000000000000000000008152600401612626906142be565b60405180910390fd5b50505050565b60606040518060600160405280603781526020016149ca60379139905090565b6060600082141561269d576040518060400160405280600181526020017f300000000000000000000000000000000000000000000000000000000000000081525090506127fd565b600082905060005b600082146126cf5780806126b8906147f8565b915050600a826126c89190614613565b91506126a5565b60008167ffffffffffffffff811115612711577f4e487b7100000000000000000000000000000000000000000000000000000000600052604160045260246000fd5b6040519080825280601f01601f1916602001820160405280156127435781602001600182028036833780820191505090505b5090505b600085146127f65760018261275c919061469e565b9150600a8561276b9190614841565b603061277791906145bd565b60f81b8183815181106127b3577f4e487b7100000000000000000000000000000000000000000000000000000000600052603260045260246000fd5b60200101907effffffffffffffffffffffffffffffffffffffffffffffffffffffffffffff1916908160001a905350600a856127ef9190614613565b9450612747565b8093505050505b919050565b600061281082600001612f54565b9050919050565b60006128238383612f65565b61287c578260000182908060018154018082558091505060019003906000526020600020016000909190919091505582600001805490508360010160008481526020019081526020016000208190555060019050612881565b600090505b92915050565b60007f5a05180f000000000000000000000000000000000000000000000000000000007bffffffffffffffffffffffffffffffffffffffffffffffffffffffff1916827bffffffffffffffffffffffffffffffffffffffffffffffffffffffff191614806128fa57506128f982612f88565b5b9050919050565b505050565b6060600060028360026129199190614644565b61292391906145bd565b67ffffffffffffffff811115612962577f4e487b7100000000000000000000000000000000000000000000000000000000600052604160045260246000fd5b6040519080825280601f01601f1916602001820160405280156129945781602001600182028036833780820191505090505b5090507f3000000000000000000000000000000000000000000000000000000000000000816000815181106129f2577f4e487b7100000000000000000000000000000000000000000000000000000000600052603260045260246000fd5b60200101907effffffffffffffffffffffffffffffffffffffffffffffffffffffffffffff1916908160001a9053507f780000000000000000000000000000000000000000000000000000000000000081600181518110612a7c577f4e487b7100000000000000000000000000000000000000000000000000000000600052603260045260246000fd5b60200101907effffffffffffffffffffffffffffffffffffffffffffffffffffffffffffff1916908160001a90535060006001846002612abc9190614644565b612ac691906145bd565b90505b6001811115612bb2577f3031323334353637383961626364656600000000000000000000000000000000600f861660108110612b2e577f4e487b7100000000000000000000000000000000000000000000000000000000600052603260045260246000fd5b1a60f81b828281518110612b6b577f4e487b7100000000000000000000000000000000000000000000000000000000600052603260045260246000fd5b60200101907effffffffffffffffffffffffffffffffffffffffffffffffffffffffffffff1916908160001a905350600485901c945080612bab9061479c565b9050612ac9565b5060008414612bf6576040517f08c379a0000000000000000000000000000000000000000000000000000000008152600401612bed9061427e565b60405180910390fd5b8091505092915050565b612c0a8282611497565b15612cdd57600080600084815260200190815260200160002060000160008373ffffffffffffffffffffffffffffffffffffffff1673ffffffffffffffffffffffffffffffffffffffff16815260200190815260200160002060006101000a81548160ff021916908315150217905550612c82611da4565b73ffffffffffffffffffffffffffffffffffffffff168173ffffffffffffffffffffffffffffffffffffffff16837ff6391f5c32d9c69d2a47ea670b442974b53935d1edc7fd64eb21e047a839171b60405160405180910390a45b5050565b6000612d09836000018373ffffffffffffffffffffffffffffffffffffffff1660001b613002565b905092915050565b612d1b8383613188565b612d286000848484612dbd565b612d67576040517f08c379a0000000000000000000000000000000000000000000000000000000008152600401612d5e906142be565b60405180910390fd5b505050565b6000826000018281548110612daa577f4e487b7100000000000000000000000000000000000000000000000000000000600052603260045260246000fd5b9060005260206000200154905092915050565b6000612dde8473ffffffffffffffffffffffffffffffffffffffff16613356565b15612f47578373ffffffffffffffffffffffffffffffffffffffff1663150b7a02612e07611da4565b8786866040518563ffffffff1660e01b8152600401612e29949392919061417a565b602060405180830381600087803b158015612e4357600080fd5b505af1925050508015612e7457506040513d601f19601f82011682018060405250810190612e7191906137ca565b60015b612ef7573d8060008114612ea4576040519150601f19603f3d011682016040523d82523d6000602084013e612ea9565b606091505b50600081511415612eef576040517f08c379a0000000000000000000000000000000000000000000000000000000008152600401612ee6906142be565b60405180910390fd5b805181602001fd5b63150b7a0260e01b7bffffffffffffffffffffffffffffffffffffffffffffffffffffffff1916817bffffffffffffffffffffffffffffffffffffffffffffffffffffffff191614915050612f4c565b600190505b949350505050565b600081600001805490509050919050565b600080836001016000848152602001908152602001600020541415905092915050565b60007f7965db0b000000000000000000000000000000000000000000000000000000007bffffffffffffffffffffffffffffffffffffffffffffffffffffffff1916827bffffffffffffffffffffffffffffffffffffffffffffffffffffffff19161480612ffb5750612ffa82613369565b5b9050919050565b6000808360010160008481526020019081526020016000205490506000811461317c576000600182613034919061469e565b905060006001866000018054905061304c919061469e565b9050818114613107576000866000018281548110613093577f4e487b7100000000000000000000000000000000000000000000000000000000600052603260045260246000fd5b90600052602060002001549050808760000184815481106130dd577f4e487b7100000000000000000000000000000000000000000000000000000000600052603260045260246000fd5b90600052602060002001819055508387600101600083815260200190815260200160002081905550505b85600001805480613141577f4e487b7100000000000000000000000000000000000000000000000000000000600052603160045260246000fd5b600190038181906000526020600020016000905590558560010160008681526020019081526020016000206000905560019350505050613182565b60009150505b92915050565b600073ffffffffffffffffffffffffffffffffffffffff168273ffffffffffffffffffffffffffffffffffffffff1614156131f8576040517f08c379a00000000000000000000000000000000000000000000000000000000081526004016131ef906143be565b60405180910390fd5b61320181611d38565b15613241576040517f08c379a0000000000000000000000000000000000000000000000000000000008152600401613238906142de565b60405180910390fd5b61324d60008383612901565b6001600560008473ffffffffffffffffffffffffffffffffffffffff1673ffffffffffffffffffffffffffffffffffffffff168152602001908152602001600020600082825461329d91906145bd565b92505081905550816004600083815260200190815260200160002060006101000a81548173ffffffffffffffffffffffffffffffffffffffff021916908373ffffffffffffffffffffffffffffffffffffffff160217905550808273ffffffffffffffffffffffffffffffffffffffff16600073ffffffffffffffffffffffffffffffffffffffff167fddf252ad1be2c89b69c2b068fc378daa952ba7f163c4a11628f55a4df523b3ef60405160405180910390a45050565b600080823b905060008111915050919050565b60007f01ffc9a7000000000000000000000000000000000000000000000000000000007bffffffffffffffffffffffffffffffffffffffffffffffffffffffff1916827bffffffffffffffffffffffffffffffffffffffffffffffffffffffff1916149050919050565b60006133e66133e18461454a565b614519565b9050828152602081018484840111156133fe57600080fd5b61340984828561475a565b509392505050565b6000813590506134208161493f565b92915050565b60008135905061343581614956565b92915050565b60008135905061344a8161496d565b92915050565b60008135905061345f81614984565b92915050565b60008151905061347481614984565b92915050565b600082601f83011261348b57600080fd5b813561349b8482602086016133d3565b91505092915050565b6000813590506134b38161499b565b92915050565b6000813590506134c8816149b2565b92915050565b6000602082840312156134e057600080fd5b60006134ee84828501613411565b91505092915050565b6000806040838503121561350a57600080fd5b600061351885828601613411565b925050602061352985828601613411565b9150509250929050565b60008060006060848603121561354857600080fd5b600061355686828701613411565b935050602061356786828701613411565b9250506040613578868287016134b9565b9150509250925092565b6000806000806080858703121561359857600080fd5b60006135a687828801613411565b94505060206135b787828801613411565b93505060406135c8878288016134b9565b925050606085013567ffffffffffffffff8111156135e557600080fd5b6135f18782880161347a565b91505092959194509250565b6000806040838503121561361057600080fd5b600061361e85828601613411565b925050602061362f85828601613426565b9150509250929050565b6000806040838503121561364c57600080fd5b600061365a85828601613411565b925050602061366b858286016134b9565b9150509250929050565b60008060006060848603121561368a57600080fd5b600061369886828701613426565b93505060206136a9868287016134a4565b92505060406136ba868287016134b9565b9150509250925092565b6000602082840312156136d657600080fd5b60006136e48482850161343b565b91505092915050565b6000806040838503121561370057600080fd5b600061370e8582860161343b565b925050602061371f85828601613411565b9150509250929050565b6000806040838503121561373c57600080fd5b600061374a8582860161343b565b925050602061375b8582860161343b565b9150509250929050565b6000806040838503121561377857600080fd5b60006137868582860161343b565b9250506020613797858286016134b9565b9150509250929050565b6000602082840312156137b357600080fd5b60006137c184828501613450565b91505092915050565b6000602082840312156137dc57600080fd5b60006137ea84828501613465565b91505092915050565b60006020828403121561380557600080fd5b6000613813848285016134b9565b91505092915050565b613825816146d2565b82525050565b613834816146e4565b82525050565b613843816146f0565b82525050565b60006138548261457a565b61385e8185614590565b935061386e818560208601614769565b6138778161492e565b840191505092915050565b600061388d82614585565b61389781856145a1565b93506138a7818560208601614769565b6138b08161492e565b840191505092915050565b60006138c682614585565b6138d081856145b2565b93506138e0818560208601614769565b80840191505092915050565b60006138f96020836145a1565b91507f537472696e67733a20686578206c656e67746820696e73756666696369656e746000830152602082019050919050565b60006139396025836145a1565b91507f5065726d697373696f6e733a2043616c6c6572206973206e6f74206120676f7660008301527f65726e6f720000000000000000000000000000000000000000000000000000006020830152604082019050919050565b600061399f6032836145a1565b91507f4552433732313a207472616e7366657220746f206e6f6e20455243373231526560008301527f63656976657220696d706c656d656e74657200000000000000000000000000006020830152604082019050919050565b6000613a05601c836145a1565b91507f4552433732313a20746f6b656e20616c7265616479206d696e746564000000006000830152602082019050919050565b6000613a456024836145a1565b91507f4552433732313a207472616e7366657220746f20746865207a65726f2061646460008301527f72657373000000000000000000000000000000000000000000000000000000006020830152604082019050919050565b6000613aab6019836145a1565b91507f4552433732313a20617070726f766520746f2063616c6c6572000000000000006000830152602082019050919050565b6000613aeb602c836145a1565b91507f4552433732313a206f70657261746f7220717565727920666f72206e6f6e657860008301527f697374656e7420746f6b656e00000000000000000000000000000000000000006020830152604082019050919050565b6000613b516038836145a1565b91507f4552433732313a20617070726f76652063616c6c6572206973206e6f74206f7760008301527f6e6572206e6f7220617070726f76656420666f7220616c6c00000000000000006020830152604082019050919050565b6000613bb7602a836145a1565b91507f4552433732313a2062616c616e636520717565727920666f7220746865207a6560008301527f726f2061646472657373000000000000000000000000000000000000000000006020830152604082019050919050565b6000613c1d6029836145a1565b91507f4552433732313a206f776e657220717565727920666f72206e6f6e657869737460008301527f656e7420746f6b656e00000000000000000000000000000000000000000000006020830152604082019050919050565b6000613c836020836145a1565b91507f4552433732313a206d696e7420746f20746865207a65726f20616464726573736000830152602082019050919050565b6000613cc3602c836145a1565b91507f4552433732313a20617070726f76656420717565727920666f72206e6f6e657860008301527f697374656e7420746f6b656e00000000000000000000000000000000000000006020830152604082019050919050565b6000613d296029836145a1565b91507f4552433732313a207472616e73666572206f6620746f6b656e2074686174206960008301527f73206e6f74206f776e00000000000000000000000000000000000000000000006020830152604082019050919050565b6000613d8f602f836145a1565b91507f4552433732314d657461646174613a2055524920717565727920666f72206e6f60008301527f6e6578697374656e7420746f6b656e00000000000000000000000000000000006020830152604082019050919050565b6000613df56021836145a1565b91507f4552433732313a20617070726f76616c20746f2063757272656e74206f776e6560008301527f72000000000000000000000000000000000000000000000000000000000000006020830152604082019050919050565b6000613e5b6025836145a1565b91507f5065726d697373696f6e733a2043616c6c6572206973206e6f7420612067756160008301527f726469616e0000000000000000000000000000000000000000000000000000006020830152604082019050919050565b6000613ec16031836145a1565b91507f4552433732313a207472616e736665722063616c6c6572206973206e6f74206f60008301527f776e6572206e6f7220617070726f7665640000000000000000000000000000006020830152604082019050919050565b6000613f27602c836145a1565b91507f5065726d697373696f6e733a20477561726469616e2063616e6e6f742072657660008301527f6f6b6520676f7665726e6f7200000000000000000000000000000000000000006020830152604082019050919050565b6000613f8d6017836145b2565b91507f416363657373436f6e74726f6c3a206163636f756e74200000000000000000006000830152601782019050919050565b6000613fcd6046836145a1565b91507f5065726d697373696f6e733a2043616c6c6572206973206e6f7420612046756e60008301527f64734d616e616765722070726f746f636f6c277320636f6e747261637420696e60208301527f7374616e636500000000000000000000000000000000000000000000000000006040830152606082019050919050565b60006140596011836145b2565b91507f206973206d697373696e6720726f6c65200000000000000000000000000000006000830152601182019050919050565b6000614099602f836145a1565b91507f416363657373436f6e74726f6c3a2063616e206f6e6c792072656e6f756e636560008301527f20726f6c657320666f722073656c6600000000000000000000000000000000006020830152604082019050919050565b6140fb81614750565b82525050565b600061410d82856138bb565b915061411982846138bb565b91508190509392505050565b600061413082613f80565b915061413c82856138bb565b91506141478261404c565b915061415382846138bb565b91508190509392505050565b6000602082019050614174600083018461381c565b92915050565b600060808201905061418f600083018761381c565b61419c602083018661381c565b6141a960408301856140f2565b81810360608301526141bb8184613849565b905095945050505050565b60006060820190506141db600083018661381c565b6141e860208301856140f2565b6141f560408301846140f2565b949350505050565b6000602082019050614212600083018461382b565b92915050565b600060208201905061422d600083018461383a565b92915050565b6000604082019050614248600083018561383a565b614255602083018461381c565b9392505050565b600060208201905081810360008301526142768184613882565b905092915050565b60006020820190508181036000830152614297816138ec565b9050919050565b600060208201905081810360008301526142b78161392c565b9050919050565b600060208201905081810360008301526142d781613992565b9050919050565b600060208201905081810360008301526142f7816139f8565b9050919050565b6000602082019050818103600083015261431781613a38565b9050919050565b6000602082019050818103600083015261433781613a9e565b9050919050565b6000602082019050818103600083015261435781613ade565b9050919050565b6000602082019050818103600083015261437781613b44565b9050919050565b6000602082019050818103600083015261439781613baa565b9050919050565b600060208201905081810360008301526143b781613c10565b9050919050565b600060208201905081810360008301526143d781613c76565b9050919050565b600060208201905081810360008301526143f781613cb6565b9050919050565b6000602082019050818103600083015261441781613d1c565b9050919050565b6000602082019050818103600083015261443781613d82565b9050919050565b6000602082019050818103600083015261445781613de8565b9050919050565b6000602082019050818103600083015261447781613e4e565b9050919050565b6000602082019050818103600083015261449781613eb4565b9050919050565b600060208201905081810360008301526144b781613f1a565b9050919050565b600060208201905081810360008301526144d781613fc0565b9050919050565b600060208201905081810360008301526144f78161408c565b9050919050565b600060208201905061451360008301846140f2565b92915050565b6000604051905081810181811067ffffffffffffffff821117156145405761453f6148ff565b5b8060405250919050565b600067ffffffffffffffff821115614565576145646148ff565b5b601f19601f8301169050602081019050919050565b600081519050919050565b600081519050919050565b600082825260208201905092915050565b600082825260208201905092915050565b600081905092915050565b60006145c882614750565b91506145d383614750565b9250827fffffffffffffffffffffffffffffffffffffffffffffffffffffffffffffffff0382111561460857614607614872565b5b828201905092915050565b600061461e82614750565b915061462983614750565b925082614639576146386148a1565b5b828204905092915050565b600061464f82614750565b915061465a83614750565b9250817fffffffffffffffffffffffffffffffffffffffffffffffffffffffffffffffff048311821515161561469357614692614872565b5b828202905092915050565b60006146a982614750565b91506146b483614750565b9250828210156146c7576146c6614872565b5b828203905092915050565b60006146dd82614730565b9050919050565b60008115159050919050565b6000819050919050565b60007fffffffff0000000000000000000000000000000000000000000000000000000082169050919050565b6000819050919050565b600073ffffffffffffffffffffffffffffffffffffffff82169050919050565b6000819050919050565b82818337600083830152505050565b60005b8381101561478757808201518184015260208101905061476c565b83811115614796576000848401525b50505050565b60006147a782614750565b915060008214156147bb576147ba614872565b5b600182039050919050565b600060028204905060018216806147de57607f821691505b602082108114156147f2576147f16148d0565b5b50919050565b600061480382614750565b91507fffffffffffffffffffffffffffffffffffffffffffffffffffffffffffffffff82141561483657614835614872565b5b600182019050919050565b600061484c82614750565b915061485783614750565b925082614867576148666148a1565b5b828206905092915050565b7f4e487b7100000000000000000000000000000000000000000000000000000000600052601160045260246000fd5b7f4e487b7100000000000000000000000000000000000000000000000000000000600052601260045260246000fd5b7f4e487b7100000000000000000000000000000000000000000000000000000000600052602260045260246000fd5b7f4e487b7100000000000000000000000000000000000000000000000000000000600052604160045260246000fd5b6000601f19601f8301169050919050565b614948816146d2565b811461495357600080fd5b50565b61495f816146e4565b811461496a57600080fd5b50565b614976816146f0565b811461498157600080fd5b50565b61498d816146fa565b811461499857600080fd5b50565b6149a481614726565b81146149af57600080fd5b50565b6149bb81614750565b81146149c657600080fd5b5056fe697066733a2f2f626c61626c615f6d617374657270696563655f67656e6172745f62795f73757061647570614e4654737461722e6d7034a26469706673582212204312428b992b6421080c70a41c265ad65853c411dd3b081bff1bb6280196fc6a64736f6c634300080000336080604052348015600f57600080fd5b50603f80601d6000396000f3fe6080604052600080fdfea2646970667358221220e6c2ee75f19630d9cd1840edeb973c10552e72065cab471ae9aedea6046bbd5f64736f6c63430008000033",
  "immutableReferences": {
    "3980": [
      {
        "length": 32,
        "start": 5256
      },
      {
        "length": 32,
        "start": 9294
      },
      {
        "length": 32,
        "start": 10867
      }
    ]
  },
  "source": "// SPDX-License-Identifier: GPL-3.0-or-later\npragma solidity ^0.8.0;\n\n//import \"@openzeppelin/contracts/proxy/utils/Initializable.sol\";\nimport \"@openzeppelin/contracts/utils/math/SafeMath.sol\";\nimport \"@openzeppelin/contracts/security/ReentrancyGuard.sol\";  // => quick double check to se how to use it (modifier or other stuff?)\n//import \"@openzeppelin/contracts/token/ERC20/utils/SafeERC20.sol\";\n//import \"@openzeppelin/contracts/token/ERC20/utils/TokenTimelock.sol\";\nimport \"./RequestForContent.sol\";\nimport \"./RfCEscrow.sol\";\n// for defining role-based access control:\nimport \"./Permissions.sol\";\ncontract FundsManager is Permissions, /*Initializable,*/ ReentrancyGuard {\n    \n    //using Counters for Counters.Counter;\n    //using SafeERC20 for IERC20; // shouldn't be needed in 1st iteration as I limit ERC20-like to ether... or you make the choice to use WETH to simplify how you deal with tokens\n                                // and stay in the ERC20 standards and the reuse is enables instead of coding you own custom logic for every crypto-asset (especially since\n                                //  you intend to only use stablecoins in the end)\n    //Counters.Counter private id;\n    //Protocols Contracts deployed through minting this contract:\n    RequestForContent private rfcInstanceContract = new RequestForContent(); \n    RfCEscrow private escrowRfCContract = new RfCEscrow();\n\n    address private user;\n    //eventually make those 2 state variable the same... => can encompass EOA and contract addresses, no pb.\n    address private addr;\n\n    mapping(address => uint256 ) private balance;\n\n    mapping(address => bool) private membershipStatus;\n\n    //mapping(address => uint256) private balanceAccount;   => nod needed => balance.addr\n\n    mapping(address => uint256) private depositStartTime;    // to use only for cases different from safe deposits => use a specific state variable for both\n    mapping(address => uint256) private memberSafeDepositStartTime;\n    mapping(address => uint256) private maturationTime;\n\n    // allows to track the amount of one investor in one RfC (can have several investments):\n    // investor address => RfCid => amount   \n    mapping(address => mapping(uint256 => uint256)) private investorAmountToSpecificRfC;\n\n    //mapping(address => mapping(address => uint)) public allowance;\n    \n    //uint256 private contractBalance = address(this).balance; // to be used in functions where the state can be changed (limiting the scope through private)\n    \n    //uint256 private amount;\n\n    //keep track of the amount for a given RfC token:\n    mapping(address => mapping(uint256 => uint256)) private rfcIdFund;\n\n    mapping(uint256 => address) private tokenRfCAddr;\n\n    // used in SimpleInvestorsVote:\n    uint256 private immutable SECURITY_DEPOSIT = 0.1 ether; // arbitrary value for now in eth (should be expressed in $stablecoin eventually - next iteration)\n\n    uint256 private immutable MIN_ESCROW_TIME = 30 days;\n\n    // required for all users of the protocol\n    mapping (address =>  bool) private safeDepositMade;\n\n    //mapping(bool => uint256) private amountUserDepositCommittedToTheProtocol;\n\n    mapping(address => uint256) private totalAmountUserDepositToTheProtocol;\n\n    //mapping (address => mapping (uint256 => bool)) private securityDepositIsCommittedToAnRfC;\n\n    bool private locked;\n\n\n    // you don't need all those var:\n    uint256 private shareOfRfCOwnership;\n    mapping (address => mapping(uint256 => uint256)) private shareRatioOfRfC; \n    uint256 private ratio;\n\n    mapping(address => mapping(uint256 => uint256)) private rfcNFTTokenIdFundAmount;\n\n    //a value that says when a RfC is passes the proposal round and is now in \"processing\" (by a CP) status:\n    // => this value should be returned to this contract by the contract implementing the proposal logic\n    bool private hasPassed = false;\n\n   \n    modifier hasFunds{\n        require(user.balance >= msg.value, \"The user has not enough funds for the tx to happen\");\n        _;\n    }\n\n    // Shoud not be useful since I use now onlyMember and membershipStatus\n    // modifier userHasSecurityDeposit{\n    //     require(userSecurityDepositStatus == true, \"The user does not have made the safety deposit that enables to act as investor or content provider\");\n    //     _;\n    // }\n\n    modifier onlyMember() {\n        require(membershipStatus[user] == true, \"Permissions: Caller does not have a safe deposit and active membership\");\n        _;\n    }\n\n    modifier withdrawApproved() {\n        require(locked == false, \"funds are locked\");\n        require(block.timestamp >= depositStartTime[user] + MIN_ESCROW_TIME);\n        require(addr.balance <= msg.sender.balance);\n        _;\n    }\n\n    // modifier onlyFMProxy() {\n    //     require(isFMProxy(addres(this)), \"Permissions: This call can only be initiated by the actual protocol's instance of FundsManager contract\");\n    //     _;\n    // }\n\n    // modifier onlyRFCFactoryContract() {\n    //     require(address(rfcFactoryContract), \"this can only be done from the RfC factory contract\");\n    //     _;\n    // }\n\n    event MadeSafeDeposit(address indexed member);\n\n    event DepositForRfC(address indexed userDepositing, uint256 deposit, uint256 indexed RfCid);\n\n    event WithdrawSafeDeposit(address investor, bool success);\n\n    event CPRewardRedeemed(address indexed _cp, uint256 indexed _rfcId, uint256 _amount);\n\n    event InvestmentRedeemed(address indexed _investor, uint256 indexed _rfcId, uint256 _amount);\n\n    event InvestorSharesMinted();\n\n    event FundsCommittedToRfC(address user, uint256 rfcId, uint256 unlockDate);\n\n    constructor() {\n        //test pre-game (to disappear)\n        \n        //Define roles of the pattern access control\n        _setupRole(FUNDS_MANAGER_ROLE, address(this));\n\n        RequestForContent rfcContract = new RequestForContent();\n\n    }\n\n    //Returns balance of InvestorEscrow contract\n    function getContractBalance() public view returns(uint256){\n        return address(this).balance;\n    }\n\n    // check for security deposit status for a given account\n    function getSDstatus(address _user) public view returns(bool) {\n        \n        return safeDepositMade[_user];\n    }\n\n    function getRfCStatus(uint256 _rfcId) public view returns(bool) {\n        //TO DO\n    }\n\n    function getRfCFund( address _user, uint256 _rfcId, address  _rfcToken) external view returns(uint256) {\n        require(_rfcId >= 0, \"not a valid id\");\n        require(_rfcToken != address(0), \"address can't be 0, the contract has to exist already\");\n        require(_user != address(0), \"invalid EOA\");\n        address rfcTokenAddress;\n        rfcTokenAddress = getRfCTokenAddress(_rfcId);\n\n        //TO DO: get the amount of funds allocated to a specific RfC (maybe you don't need the token address but its id is enough?)\n    }\n\n    function getRfCTokenAddress(uint256 _rcfId) public view returns (address) {\n        // check if RfC exists => RfC should not ever have the same id => check if Counters from openZeppelin gives this certitude... \n        // TO DO\n        return tokenRfCAddr[_rcfId];\n    }\n\n    function setRfCTokenAddr(uint256 _id, address _rfc) internal {\n        //tokenRfCAddr[_id] = ?? => address of the minted token\n    }\n    function getAmountUserDepositForRfC(address _account, uint256 _amount, uint256 _RfCid) public view returns (uint256 amount) {\n        return investorAmountToSpecificRfC[_account][_RfCid];\n    }\n\n    //nee to increment this number at every invest & CP deposit\n    function setTotalAmountUserDepositToTheProtocol(address _user, uint256 _amount) external returns (uint256) {\n\n        return totalAmountUserDepositToTheProtocol[_user] += _amount;  // => gives us the total amount invested by an account in the protocol\n    }\n\n    function setTotalAmountUserDepositToTheProtocol(address _user) internal {\n\n    }\n\n    /**FINISH THAT **/\n    // function depositETHandLock() external payable override userHasSecurityDeposit {\n        \n    //     require(msg.value >= securityDeposit, \"the amount provided is insufficient to constitute a safetyDeposit\");\n\n    //     balance[msg.sender] -= msg.value;\n\n    //     address(this).balance += msg.value;\n\n    //     hasSafetyDeposit[msg.sender] = true;withdrawSafeDeposit(msg.sender, true);\n    //         rfcFund += _investor[safeDeposit];\n    //         //_investor.\n    //     }\n    //     else if () {\n    //         //check if amount includes a safeDeposit amount\n    //         require(_amount >= instanceFundsManagerContract.securityDeposit);\n    //         balance[_investor] -= _amount;\n    //         instanceFundsManagerContract.\n\n    //         instanceFundsManagerContract.rfcFund += 300;\n        \n\n    //     signalInterest(_investor);\n    //     }\n    //     else (instanceFundsManagerContract.securityDeposit ){\n    //         //...\n    //     }\n            \n    //     emit DepositETH(_userDepositing, msg.value);\n    // }\n\n    function investETH(uint256 _rfcId, address _rfcToken) external payable onlyMember {\n        require(msg.sender.balance >= msg.value, \"user doesn't have emough funds => revert\");\n\n    \n        //  address(this).balance += msg.value;     ==> NOT USEFUL: msg.value is implicitly added to the contract balance (but check during tests), by simply calling a \n        //                                              payable function\n        depositStartTime[msg.sender] = block.timestamp;\n        //allocateFundsToRfC();\n        //lockFunds(msg.sender);\n\n        balance[msg.sender] -= msg.value;\n        emit DepositForRfC(msg.sender, msg.value, _rfcId);\n\n    } \n\n\n    function safeDepositForMembership(address _aspiringMember) public payable {\n        // to think about: _setupRole(MEMBERS_W_SAFETY_DEPOSIT, member);\n        require(msg.sender.balance >= 0, \"balance must be positive\");  // don't think it is useful...\n        require(msg.value == 0.1 ether, \"The amount of 0.1 ether is not reached\");  // be ready for your exection to err here\n                                                                                    // simply bc more ether has been sent, and so it reverts\n                                                                                    // => how to make sure to maximize successful txs for users?\n                                                                                    //  so they get their funds back in case too much is sent?\n\n        lockSafeDeposit(_aspiringMember);\n        //try {\n        balance[msg.sender] -= 0.1 ether;\n        //test if you need this (as it will only be ether for now, you should not)\n        //address(this).balance += msg.value;\n        //}\n        //catch {revert()}\n        //safeDepositMade = true;\n\n        //set member status\n        //membershipStatus = true;\n        //set safety deposit time to calculate the unlock time\n        memberSafeDepositStartTime[_aspiringMember] = block.timestamp;                      // equivalent to now (using it to be explicit)\n        emit MadeSafeDeposit(_aspiringMember);\n    } \n\n    function initiateWithdrawSafeDeposit(address _member) external onlyMember {\n\n        //starts a timer that last about 30 days (check the ) that once done allow direct withdrawal (simplest form I can think of now)\n\n        // if timer finished, then withdraw, then once withdraw succesfully, revoke membership (that might be a tricky one in terms of\n        //  order and the access control you've implemented that way... anyway do it like that for now)\n\n        //change status to non-member:\n        membershipStatus[_member] = false;\n\n        //events: withdraw success or not, and then membership stopped \n        emit WithdrawSafeDeposit(msg.sender, true);\n    }\n\n    // function getPooledRfCamount(uint256 _RfCid) public view returns(uint256 rfcPoolAmount) {\n    //     // TO DO\n    // }\n\n    // function allocateFundsToRfC(address _user,uint256 _id, uint256 _startDepositTimer) public onlyMember returns(uint256 totalAmount) {\n    //     //TO DO\n        \n    // }\n\n    // again by seting the scope to private I only allow a function from this contract (does not mean it can't be abused if not careful...)\n    function lockSafeDeposit(address _user)private  onlyFMProxy {\n        require(safeDepositMade[_user] != true, \"The security deposit is already met\");\n\n        // >>>> check the conversion MIN_ESCROW_TIME to unix time so no bug:\n        if (block.timestamp - MIN_ESCROW_TIME >= memberSafeDepositStartTime[_user]) {\n            locked = true;\n            safeDepositMade[_user] = true;\n            balance[address(this)] += 0.1 ether;\n        }\n        else {\n            locked = false;\n            revert();   // I guess that would be enough? Trying to get an err that bubbles up to the iuser though\n        }\n\n    }\n\n    function unlock(address _user, uint256 _amount) private {\n        //call it from another function in this contract either once condition for unlock funds are met, or because the expiration date is reached\n    }\n\n    function withdrawETH() external onlyMember withdrawApproved {\n\n\n    }\n\n    //specific withdraw (ACTUALLY make it for both cases): when the RfC doesn't pass the investors vote (time of deposit for investors who vote with ether +\n    //  15 days):\n    function withdrawFromEscrow(address _account,/* uint256 _amount,*/ uint256 _matureTime, uint256 _rfcId) external onlyMember withdrawApproved {\n        require(_matureTime >= block.timestamp, \"Escrow period not expired.\");  // calculate the 30 days: time of deposit\n                                                                                 // (should be recorded in a state variable, like block.timestamp f the tx)\n                                                                                 // + 30 days (in linux time format)\n                                                                                 // check withdrawApproved to implement part of requirements\n\n        //that's a case requiring a burn feature:\n        rfcInstanceContract.burnRfCInCaseNotPassed(_rfcId);\n\n        \n        //(bool success, bytes data) = msg.sender.call{value: amount}(\"\");\n\n        // contract balance updated followed by user\n        balance[ address(this)] -= investorAmountToSpecificRfC[_account][_rfcId];\n        balance[_account] += investorAmountToSpecificRfC[_account][_rfcId];\n        //require(success, \"Transfer failed.\");\n\n        emit InvestmentRedeemed(_account, _rfcId, investorAmountToSpecificRfC[_account][_rfcId]);\n    }\n\n    function depositPayAccessContent(uint256 _rfcId, uint256 _amount) external onlyMember {\n        //as investors have shares to a content they produce (that they can eventually sell to other users,\n        //  but that will change their status back ti users, or RfCIdInvestor = false), they \n        //  will call another function to access content, if needed, that encodes the logic of their shares\n        //  in the content, etc. \n        require(membershipStatus[msg.sender] == true, \"Any protocol's user must first make a safe deposit of 0.1 ether\");\n        require(investorAmountToSpecificRfC[msg.sender][_rfcId] == 0, \"The user has already invested in this RfC, then he/she/they don't need an to pay to access the content\");\n\n        //should return a token that gives them all data/authorization to access content\n        //mintContentAccess();\n    } \n\n\n    /** Interactions with RequestForContent contract: **/\n\n    // likely replaced by the Counter contract inherited from openzeppelin\n    function getRfCid(address _investorOrCP) external returns (uint256){\n        \n        return rfcInstanceContract.getRfCTracker();\n    }\n\n    function setRfCIdFund(uint256 _id) public {\n        //sum of all investors' deposits for a certain RfC\n        \n    }\n\n    function commitFundsToRfC(address _user, uint256 _rfcId, address _rfcTokenAddr, uint256 _amount) internal returns (uint256) {\n        // way to lock/commit an amount to a specific NFT\n\n        // make sure the user authorize a certain amount \n        investorAmountToSpecificRfC[_user][_rfcId] -= _amount;\n        \n        //sum of all funds allocated to an RfC token:\n        rfcNFTTokenIdFundAmount[_rfcTokenAddr][_rfcId] += _amount;\n\n        //calculate unlockdate:\n        maturationTime[_user] = memberSafeDepositStartTime[_user] + 60 days + MIN_ESCROW_TIME;  // investing in a content production lead to vest investmenet on 3 months\n                                                                                                    // ideally, part of it will be unlocked progressively on the timeline of the content delivery\n\n        emit FundsCommittedToRfC(_user, _rfcId, maturationTime[_user]);\n\n        return rfcNFTTokenIdFundAmount[_rfcTokenAddr][_rfcId];\n    }\n\n    //Default functions in case of accidental crypto sent to the contract => revert => INCLUDE THE revert() logic in\n    //  the deposit function (eg. if an argument is missing, revert:   require(RfCid, etc. ))\n\n    // fallback() external payable {\n    //     //address(this).send(msg.value);\n    //     revert();\n    // }\n\n    function getFMContractAddr() external view onlyFMProxy returns(address) {\n        return address(this);\n    }\n\n\n}",
  "sourcePath": "/home/w31rdm4ch1n3s/ConsenSys_dev_bootcamp/final_project/consensys_bootcamp_2021_minimum_viable_final_project/contracts/FundsManager.sol",
  "compiler": {
    "name": "solc",
    "version": "0.8.0+commit.c7dfd78e.Emscripten.clang"
  },
  "schemaVersion": "3.4.4",
  "updatedAt": "2022-02-02T17:30:20.505Z",
  "devdoc": {
    "kind": "dev",
    "methods": {
      "createRole(bytes32,bytes32)": {
        "details": "can also be used to update admin of existing role",
        "params": {
          "adminRole": "the admin role id for `role`",
          "role": "the new role id"
        }
      },
      "getRoleAdmin(bytes32)": {
        "details": "Returns the admin role that controls `role`. See {grantRole} and {revokeRole}. To change a role's admin, use {_setRoleAdmin}."
      },
      "getRoleMember(bytes32,uint256)": {
        "details": "Returns one of the accounts that have `role`. `index` must be a value between 0 and {getRoleMemberCount}, non-inclusive. Role bearers are not sorted in any particular way, and their ordering may change at any point. WARNING: When using {getRoleMember} and {getRoleMemberCount}, make sure you perform all queries on the same block. See the following https://forum.openzeppelin.com/t/iterating-over-elements-on-enumerableset-in-openzeppelin-contracts/2296[forum post] for more information."
      },
      "getRoleMemberCount(bytes32)": {
        "details": "Returns the number of accounts that have `role`. Can be used together with {getRoleMember} to enumerate all bearers of a role."
      },
      "grantFMProxy(address)": {
        "params": {
          "fmProxy": "new FM contract instance address / FMProxy"
        }
      },
      "grantGovernor(address)": {
        "params": {
          "governor": "new governor"
        }
      },
      "grantGuardian(address)": {
        "params": {
          "guardian": "new guardian"
        }
      },
      "grantMember(address)": {
        "params": {
          "member": "new member"
        }
      },
      "grantMinter(address)": {
        "params": {
          "minter": "new minter"
        }
      },
      "grantRole(bytes32,address)": {
        "details": "Grants `role` to `account`. If `account` had not been already granted `role`, emits a {RoleGranted} event. Requirements: - the caller must have ``role``'s admin role."
      },
      "hasRole(bytes32,address)": {
        "details": "Returns `true` if `account` has been granted `role`."
      },
      "isFMProxy(address)": {
        "params": {
          "_address": "address to check"
        },
        "returns": {
          "_0": "true _address is a controller"
        }
      },
      "isGovernor(address)": {
        "params": {
          "_address": "address to check"
        },
        "returns": {
          "_0": "true _address is a governor"
        }
      },
      "isGuardian(address)": {
        "params": {
          "_address": "address to check"
        },
        "returns": {
          "_0": "true _address is a guardian"
        }
      },
      "isMember(address)": {
        "params": {
          "_address": "address to check"
        },
        "returns": {
          "_0": "true _address is a member"
        }
      },
      "isMinter(address)": {
        "params": {
          "_address": "address to check"
        },
        "returns": {
          "_0": "true _address is a minter"
        }
      },
      "renounceRole(bytes32,address)": {
        "details": "Revokes `role` from the calling account. Roles are often managed via {grantRole} and {revokeRole}: this function's purpose is to provide a mechanism for accounts to lose their privileges if they are compromised (such as when a trusted device is misplaced). If the calling account had been revoked `role`, emits a {RoleRevoked} event. Requirements: - the caller must be `account`."
      },
      "revokeFMProxy(address)": {
        "params": {
          "fmProxy": "ex fmProxy"
        }
      },
      "revokeGovernor(address)": {
        "params": {
          "governor": "ex governor"
        }
      },
      "revokeGuardian(address)": {
        "params": {
          "guardian": "ex guardian"
        }
      },
      "revokeMember(address)": {
        "params": {
          "member": "ex member"
        }
      },
      "revokeMinter(address)": {
        "params": {
          "minter": "ex minter"
        }
      },
      "revokeOverride(bytes32,address)": {
        "params": {
          "account": "the address to revoke the role from",
          "role": "the role to revoke"
        }
      },
      "revokeRole(bytes32,address)": {
        "details": "Revokes `role` from `account`. If `account` had been granted `role`, emits a {RoleRevoked} event. Requirements: - the caller must have ``role``'s admin role."
      },
      "supportsInterface(bytes4)": {
        "details": "See {IERC165-supportsInterface}."
      }
    },
    "version": 1
  },
  "userdoc": {
    "kind": "user",
    "methods": {
      "createRole(bytes32,bytes32)": {
        "notice": "creates a new role to be maintained"
      },
      "getRfCid(address)": {
        "notice": "Interactions with RequestForContent contract: *"
      },
      "grantFMProxy(address)": {
        "notice": "grants Funds Manager Proxy role to address"
      },
      "grantGovernor(address)": {
        "notice": "grants governor role to address"
      },
      "grantGuardian(address)": {
        "notice": "grants guardian role to address"
      },
      "grantMember(address)": {
        "notice": "grants member role to address"
      },
      "grantMinter(address)": {
        "notice": "grants minter role to address"
      },
      "investETH(uint256,address)": {
        "notice": "FINISH THAT *"
      },
      "isFMProxy(address)": {
        "notice": "checks if address is a FMProxy"
      },
      "isGovernor(address)": {
        "notice": "checks if address is a governor"
      },
      "isGuardian(address)": {
        "notice": "checks if address is a guardian"
      },
      "isMember(address)": {
        "notice": "checks if address is a burmemberner"
      },
      "isMinter(address)": {
        "notice": "checks if address is a minter"
      },
      "revokeFMProxy(address)": {
        "notice": "revokes FMProxy role from address of currently used instance in the protocol"
      },
      "revokeGovernor(address)": {
        "notice": "revokes governor role from address"
      },
      "revokeGuardian(address)": {
        "notice": "revokes guardian role from address"
      },
      "revokeMember(address)": {
        "notice": "revokes member role from address"
      },
      "revokeMinter(address)": {
        "notice": "revokes minter role from address"
      },
      "revokeOverride(bytes32,address)": {
        "notice": "revokes a role from address"
      }
    },
    "version": 1
  }
}