{
  "contractName": "FundsManager",
  "abi": [
    {
      "inputs": [],
      "stateMutability": "nonpayable",
      "type": "constructor"
    },
    {
      "anonymous": false,
      "inputs": [
        {
          "indexed": true,
          "internalType": "address",
          "name": "cp",
          "type": "address"
        },
        {
          "indexed": true,
          "internalType": "uint256",
          "name": "rfcId",
          "type": "uint256"
        },
        {
          "indexed": false,
          "internalType": "uint256",
          "name": "amount",
          "type": "uint256"
        }
      ],
      "name": "CPRewardRedeemed",
      "type": "event"
    },
    {
      "anonymous": false,
      "inputs": [
        {
          "indexed": true,
          "internalType": "address",
          "name": "userDepositing",
          "type": "address"
        },
        {
          "indexed": false,
          "internalType": "uint256",
          "name": "deposit",
          "type": "uint256"
        },
        {
          "indexed": true,
          "internalType": "uint256",
          "name": "RfCid",
          "type": "uint256"
        }
      ],
      "name": "DepositForRfC",
      "type": "event"
    },
    {
      "anonymous": false,
      "inputs": [
        {
          "indexed": false,
          "internalType": "address",
          "name": "user",
          "type": "address"
        },
        {
          "indexed": false,
          "internalType": "uint256",
          "name": "rfcId",
          "type": "uint256"
        },
        {
          "indexed": false,
          "internalType": "uint256",
          "name": "unlockDate",
          "type": "uint256"
        }
      ],
      "name": "FundsCommittedToRfC",
      "type": "event"
    },
    {
      "anonymous": false,
      "inputs": [
        {
          "indexed": true,
          "internalType": "address",
          "name": "investor",
          "type": "address"
        },
        {
          "indexed": true,
          "internalType": "uint256",
          "name": "rfcId",
          "type": "uint256"
        },
        {
          "indexed": false,
          "internalType": "uint256",
          "name": "amount",
          "type": "uint256"
        }
      ],
      "name": "InvestmentRedeemed",
      "type": "event"
    },
    {
      "anonymous": false,
      "inputs": [
        {
          "indexed": true,
          "internalType": "address",
          "name": "investor",
          "type": "address"
        },
        {
          "indexed": false,
          "internalType": "uint256",
          "name": "amount",
          "type": "uint256"
        }
      ],
      "name": "InvestorSharesMinted",
      "type": "event"
    },
    {
      "anonymous": false,
      "inputs": [
        {
          "indexed": true,
          "internalType": "address",
          "name": "member",
          "type": "address"
        }
      ],
      "name": "MadeSafeDeposit",
      "type": "event"
    },
    {
      "anonymous": false,
      "inputs": [
        {
          "indexed": true,
          "internalType": "bytes32",
          "name": "role",
          "type": "bytes32"
        },
        {
          "indexed": true,
          "internalType": "bytes32",
          "name": "previousAdminRole",
          "type": "bytes32"
        },
        {
          "indexed": true,
          "internalType": "bytes32",
          "name": "newAdminRole",
          "type": "bytes32"
        }
      ],
      "name": "RoleAdminChanged",
      "type": "event"
    },
    {
      "anonymous": false,
      "inputs": [
        {
          "indexed": true,
          "internalType": "bytes32",
          "name": "role",
          "type": "bytes32"
        },
        {
          "indexed": true,
          "internalType": "address",
          "name": "account",
          "type": "address"
        },
        {
          "indexed": true,
          "internalType": "address",
          "name": "sender",
          "type": "address"
        }
      ],
      "name": "RoleGranted",
      "type": "event"
    },
    {
      "anonymous": false,
      "inputs": [
        {
          "indexed": true,
          "internalType": "bytes32",
          "name": "role",
          "type": "bytes32"
        },
        {
          "indexed": true,
          "internalType": "address",
          "name": "account",
          "type": "address"
        },
        {
          "indexed": true,
          "internalType": "address",
          "name": "sender",
          "type": "address"
        }
      ],
      "name": "RoleRevoked",
      "type": "event"
    },
    {
      "anonymous": false,
      "inputs": [
        {
          "indexed": false,
          "internalType": "address",
          "name": "investor",
          "type": "address"
        },
        {
          "indexed": false,
          "internalType": "bool",
          "name": "success",
          "type": "bool"
        }
      ],
      "name": "WithdrawSafeDeposit",
      "type": "event"
    },
    {
      "inputs": [],
      "name": "DEFAULT_ADMIN_ROLE",
      "outputs": [
        {
          "internalType": "bytes32",
          "name": "",
          "type": "bytes32"
        }
      ],
      "stateMutability": "view",
      "type": "function",
      "constant": true
    },
    {
      "inputs": [],
      "name": "FUNDS_MANAGER_ROLE",
      "outputs": [
        {
          "internalType": "bytes32",
          "name": "",
          "type": "bytes32"
        }
      ],
      "stateMutability": "view",
      "type": "function",
      "constant": true
    },
    {
      "inputs": [],
      "name": "GOVERN_ROLE",
      "outputs": [
        {
          "internalType": "bytes32",
          "name": "",
          "type": "bytes32"
        }
      ],
      "stateMutability": "view",
      "type": "function",
      "constant": true
    },
    {
      "inputs": [],
      "name": "GUARDIAN_ROLE",
      "outputs": [
        {
          "internalType": "bytes32",
          "name": "",
          "type": "bytes32"
        }
      ],
      "stateMutability": "view",
      "type": "function",
      "constant": true
    },
    {
      "inputs": [],
      "name": "MEMBER_ROLE",
      "outputs": [
        {
          "internalType": "bytes32",
          "name": "",
          "type": "bytes32"
        }
      ],
      "stateMutability": "view",
      "type": "function",
      "constant": true
    },
    {
      "inputs": [],
      "name": "MINTER_ROLE",
      "outputs": [
        {
          "internalType": "bytes32",
          "name": "",
          "type": "bytes32"
        }
      ],
      "stateMutability": "view",
      "type": "function",
      "constant": true
    },
    {
      "inputs": [
        {
          "internalType": "bytes32",
          "name": "role",
          "type": "bytes32"
        },
        {
          "internalType": "bytes32",
          "name": "adminRole",
          "type": "bytes32"
        }
      ],
      "name": "createRole",
      "outputs": [],
      "stateMutability": "nonpayable",
      "type": "function"
    },
    {
      "inputs": [
        {
          "internalType": "bytes32",
          "name": "role",
          "type": "bytes32"
        }
      ],
      "name": "getRoleAdmin",
      "outputs": [
        {
          "internalType": "bytes32",
          "name": "",
          "type": "bytes32"
        }
      ],
      "stateMutability": "view",
      "type": "function",
      "constant": true
    },
    {
      "inputs": [
        {
          "internalType": "bytes32",
          "name": "role",
          "type": "bytes32"
        },
        {
          "internalType": "uint256",
          "name": "index",
          "type": "uint256"
        }
      ],
      "name": "getRoleMember",
      "outputs": [
        {
          "internalType": "address",
          "name": "",
          "type": "address"
        }
      ],
      "stateMutability": "view",
      "type": "function",
      "constant": true
    },
    {
      "inputs": [
        {
          "internalType": "bytes32",
          "name": "role",
          "type": "bytes32"
        }
      ],
      "name": "getRoleMemberCount",
      "outputs": [
        {
          "internalType": "uint256",
          "name": "",
          "type": "uint256"
        }
      ],
      "stateMutability": "view",
      "type": "function",
      "constant": true
    },
    {
      "inputs": [
        {
          "internalType": "address",
          "name": "fmProxy",
          "type": "address"
        }
      ],
      "name": "grantFMProxy",
      "outputs": [],
      "stateMutability": "nonpayable",
      "type": "function"
    },
    {
      "inputs": [
        {
          "internalType": "address",
          "name": "governor",
          "type": "address"
        }
      ],
      "name": "grantGovernor",
      "outputs": [],
      "stateMutability": "nonpayable",
      "type": "function"
    },
    {
      "inputs": [
        {
          "internalType": "address",
          "name": "guardian",
          "type": "address"
        }
      ],
      "name": "grantGuardian",
      "outputs": [],
      "stateMutability": "nonpayable",
      "type": "function"
    },
    {
      "inputs": [
        {
          "internalType": "address",
          "name": "member",
          "type": "address"
        }
      ],
      "name": "grantMember",
      "outputs": [],
      "stateMutability": "nonpayable",
      "type": "function"
    },
    {
      "inputs": [
        {
          "internalType": "address",
          "name": "minter",
          "type": "address"
        }
      ],
      "name": "grantMinter",
      "outputs": [],
      "stateMutability": "nonpayable",
      "type": "function"
    },
    {
      "inputs": [
        {
          "internalType": "bytes32",
          "name": "role",
          "type": "bytes32"
        },
        {
          "internalType": "address",
          "name": "account",
          "type": "address"
        }
      ],
      "name": "grantRole",
      "outputs": [],
      "stateMutability": "nonpayable",
      "type": "function"
    },
    {
      "inputs": [
        {
          "internalType": "bytes32",
          "name": "role",
          "type": "bytes32"
        },
        {
          "internalType": "address",
          "name": "account",
          "type": "address"
        }
      ],
      "name": "hasRole",
      "outputs": [
        {
          "internalType": "bool",
          "name": "",
          "type": "bool"
        }
      ],
      "stateMutability": "view",
      "type": "function",
      "constant": true
    },
    {
      "inputs": [
        {
          "internalType": "address",
          "name": "_address",
          "type": "address"
        }
      ],
      "name": "isFMProxy",
      "outputs": [
        {
          "internalType": "bool",
          "name": "",
          "type": "bool"
        }
      ],
      "stateMutability": "view",
      "type": "function",
      "constant": true
    },
    {
      "inputs": [
        {
          "internalType": "address",
          "name": "_address",
          "type": "address"
        }
      ],
      "name": "isGovernor",
      "outputs": [
        {
          "internalType": "bool",
          "name": "",
          "type": "bool"
        }
      ],
      "stateMutability": "view",
      "type": "function",
      "constant": true
    },
    {
      "inputs": [
        {
          "internalType": "address",
          "name": "_address",
          "type": "address"
        }
      ],
      "name": "isGuardian",
      "outputs": [
        {
          "internalType": "bool",
          "name": "",
          "type": "bool"
        }
      ],
      "stateMutability": "view",
      "type": "function",
      "constant": true
    },
    {
      "inputs": [
        {
          "internalType": "address",
          "name": "_address",
          "type": "address"
        }
      ],
      "name": "isMember",
      "outputs": [
        {
          "internalType": "bool",
          "name": "",
          "type": "bool"
        }
      ],
      "stateMutability": "view",
      "type": "function",
      "constant": true
    },
    {
      "inputs": [
        {
          "internalType": "address",
          "name": "_address",
          "type": "address"
        }
      ],
      "name": "isMinter",
      "outputs": [
        {
          "internalType": "bool",
          "name": "",
          "type": "bool"
        }
      ],
      "stateMutability": "view",
      "type": "function",
      "constant": true
    },
    {
      "inputs": [
        {
          "internalType": "bytes32",
          "name": "role",
          "type": "bytes32"
        },
        {
          "internalType": "address",
          "name": "account",
          "type": "address"
        }
      ],
      "name": "renounceRole",
      "outputs": [],
      "stateMutability": "nonpayable",
      "type": "function"
    },
    {
      "inputs": [
        {
          "internalType": "address",
          "name": "fmProxy",
          "type": "address"
        }
      ],
      "name": "revokeFMProxy",
      "outputs": [],
      "stateMutability": "nonpayable",
      "type": "function"
    },
    {
      "inputs": [
        {
          "internalType": "address",
          "name": "governor",
          "type": "address"
        }
      ],
      "name": "revokeGovernor",
      "outputs": [],
      "stateMutability": "nonpayable",
      "type": "function"
    },
    {
      "inputs": [
        {
          "internalType": "address",
          "name": "guardian",
          "type": "address"
        }
      ],
      "name": "revokeGuardian",
      "outputs": [],
      "stateMutability": "nonpayable",
      "type": "function"
    },
    {
      "inputs": [
        {
          "internalType": "address",
          "name": "member",
          "type": "address"
        }
      ],
      "name": "revokeMember",
      "outputs": [],
      "stateMutability": "nonpayable",
      "type": "function"
    },
    {
      "inputs": [
        {
          "internalType": "address",
          "name": "minter",
          "type": "address"
        }
      ],
      "name": "revokeMinter",
      "outputs": [],
      "stateMutability": "nonpayable",
      "type": "function"
    },
    {
      "inputs": [
        {
          "internalType": "bytes32",
          "name": "role",
          "type": "bytes32"
        },
        {
          "internalType": "address",
          "name": "account",
          "type": "address"
        }
      ],
      "name": "revokeOverride",
      "outputs": [],
      "stateMutability": "nonpayable",
      "type": "function"
    },
    {
      "inputs": [
        {
          "internalType": "bytes32",
          "name": "role",
          "type": "bytes32"
        },
        {
          "internalType": "address",
          "name": "account",
          "type": "address"
        }
      ],
      "name": "revokeRole",
      "outputs": [],
      "stateMutability": "nonpayable",
      "type": "function"
    },
    {
      "inputs": [
        {
          "internalType": "bytes4",
          "name": "interfaceId",
          "type": "bytes4"
        }
      ],
      "name": "supportsInterface",
      "outputs": [
        {
          "internalType": "bool",
          "name": "",
          "type": "bool"
        }
      ],
      "stateMutability": "view",
      "type": "function",
      "constant": true
    },
    {
      "inputs": [],
      "name": "getContractBalance",
      "outputs": [
        {
          "internalType": "uint256",
          "name": "",
          "type": "uint256"
        }
      ],
      "stateMutability": "view",
      "type": "function",
      "constant": true
    },
    {
      "inputs": [
        {
          "internalType": "address",
          "name": "_user",
          "type": "address"
        }
      ],
      "name": "getSDstatus",
      "outputs": [
        {
          "internalType": "bool",
          "name": "",
          "type": "bool"
        }
      ],
      "stateMutability": "view",
      "type": "function",
      "constant": true
    },
    {
      "inputs": [
        {
          "internalType": "uint256",
          "name": "_rfcId",
          "type": "uint256"
        }
      ],
      "name": "getRfCStatus",
      "outputs": [
        {
          "internalType": "bool",
          "name": "",
          "type": "bool"
        }
      ],
      "stateMutability": "view",
      "type": "function",
      "constant": true
    },
    {
      "inputs": [
        {
          "internalType": "uint256",
          "name": "_amount",
          "type": "uint256"
        },
        {
          "internalType": "uint256",
          "name": "_rfcId",
          "type": "uint256"
        }
      ],
      "name": "getRfCFundAmount",
      "outputs": [
        {
          "internalType": "uint256",
          "name": "",
          "type": "uint256"
        }
      ],
      "stateMutability": "view",
      "type": "function",
      "constant": true
    },
    {
      "inputs": [
        {
          "internalType": "uint256",
          "name": "_rcfId",
          "type": "uint256"
        }
      ],
      "name": "getRfCTokenAddress",
      "outputs": [
        {
          "internalType": "address",
          "name": "",
          "type": "address"
        }
      ],
      "stateMutability": "view",
      "type": "function",
      "constant": true
    },
    {
      "inputs": [
        {
          "internalType": "address",
          "name": "_account",
          "type": "address"
        },
        {
          "internalType": "uint256",
          "name": "_amount",
          "type": "uint256"
        },
        {
          "internalType": "uint256",
          "name": "_rcfId",
          "type": "uint256"
        }
      ],
      "name": "getAmountUserDepositForRfC",
      "outputs": [
        {
          "internalType": "uint256",
          "name": "amount",
          "type": "uint256"
        }
      ],
      "stateMutability": "view",
      "type": "function",
      "constant": true
    },
    {
      "inputs": [
        {
          "internalType": "address",
          "name": "_user",
          "type": "address"
        },
        {
          "internalType": "uint256",
          "name": "_amount",
          "type": "uint256"
        }
      ],
      "name": "setTotalAmountUserDepositToTheProtocol",
      "outputs": [
        {
          "internalType": "uint256",
          "name": "",
          "type": "uint256"
        }
      ],
      "stateMutability": "nonpayable",
      "type": "function"
    },
    {
      "inputs": [
        {
          "internalType": "uint256",
          "name": "_rfcId",
          "type": "uint256"
        },
        {
          "internalType": "address",
          "name": "_rfcToken",
          "type": "address"
        }
      ],
      "name": "investETH",
      "outputs": [],
      "stateMutability": "payable",
      "type": "function",
      "payable": true
    },
    {
      "inputs": [
        {
          "internalType": "address",
          "name": "_aspiringMember",
          "type": "address"
        }
      ],
      "name": "safeDepositForMembership",
      "outputs": [],
      "stateMutability": "payable",
      "type": "function",
      "payable": true
    },
    {
      "inputs": [
        {
          "internalType": "address",
          "name": "_member",
          "type": "address"
        }
      ],
      "name": "initiateWithdrawSafeDeposit",
      "outputs": [],
      "stateMutability": "nonpayable",
      "type": "function"
    },
    {
      "inputs": [
        {
          "internalType": "address",
          "name": "_account",
          "type": "address"
        },
        {
          "internalType": "uint256",
          "name": "_matureTime",
          "type": "uint256"
        },
        {
          "internalType": "uint256",
          "name": "_rfcId",
          "type": "uint256"
        }
      ],
      "name": "withdrawFromEscrow",
      "outputs": [],
      "stateMutability": "nonpayable",
      "type": "function"
    },
    {
      "inputs": [
        {
          "internalType": "uint256",
          "name": "_rfcId",
          "type": "uint256"
        },
        {
          "internalType": "uint256",
          "name": "_amount",
          "type": "uint256"
        }
      ],
      "name": "depositPayAccessContent",
      "outputs": [],
      "stateMutability": "nonpayable",
      "type": "function"
    },
    {
      "inputs": [
        {
          "internalType": "uint256",
          "name": "_id",
          "type": "uint256"
        }
      ],
      "name": "setRfCIdFund",
      "outputs": [],
      "stateMutability": "nonpayable",
      "type": "function"
    },
    {
      "inputs": [],
      "name": "getFMContractAddr",
      "outputs": [
        {
          "internalType": "address",
          "name": "",
          "type": "address"
        }
      ],
      "stateMutability": "view",
      "type": "function",
      "constant": true
    }
  ],
  "bytecode": "0x60c060405267016345785d8a000060809081525062278d0060a0908152506000601560006101000a81548160ff0219169083151502179055503480156200004557600080fd5b506200005730620001ee60201b60201c565b620000a97f9f2df0fed2c77648de5860a4cc508cd0818c85b8b8a1ab4ceeef8d981c8956a67f899bd46557473cb80307a9dabc297131ced39608330a2d29b2d52b660c03923e6200022360201b60201c565b620000fb7f829b824e2329e205435d941c9f13baf578548505283d29261236d8e6596d46367f899bd46557473cb80307a9dabc297131ced39608330a2d29b2d52b660c03923e6200022360201b60201c565b6200014d7f9d98d3d08f0062b192694645e127c98e5f96f3bbec331d061acaac3ace2327f97f899bd46557473cb80307a9dabc297131ced39608330a2d29b2d52b660c03923e6200022360201b60201c565b6200019f7f55435dd261a4b9b3364963f7738a7a662ad9c84396d64be3365284bb7f0a50417f899bd46557473cb80307a9dabc297131ced39608330a2d29b2d52b660c03923e6200022360201b60201c565b600160028190555033600560006101000a81548173ffffffffffffffffffffffffffffffffffffffff021916908373ffffffffffffffffffffffffffffffffffffffff1602179055506200053b565b620002207f899bd46557473cb80307a9dabc297131ced39608330a2d29b2d52b660c03923e826200028660201b60201c565b50565b600062000236836200029c60201b60201c565b905081600080858152602001908152602001600020600101819055508181847fbd79b86ffe0ab8e8776151514217cd7cacd52c909f66475c3af44e129f0b00ff60405160405180910390a4505050565b620002988282620002bb60201b60201c565b5050565b6000806000838152602001908152602001600020600101549050919050565b620002d282826200030360201b620024351760201c565b620002fe8160016000858152602001908152602001600020620003f460201b620025151790919060201c565b505050565b6200031582826200042c60201b60201c565b620003f057600160008084815260200190815260200160002060000160008373ffffffffffffffffffffffffffffffffffffffff1673ffffffffffffffffffffffffffffffffffffffff16815260200190815260200160002060006101000a81548160ff021916908315150217905550620003956200049660201b60201c565b73ffffffffffffffffffffffffffffffffffffffff168173ffffffffffffffffffffffffffffffffffffffff16837f2f8788117e7eff1d82e926ec794901d17c78024a50270940304540a733656f0d60405160405180910390a45b5050565b600062000424836000018373ffffffffffffffffffffffffffffffffffffffff1660001b6200049e60201b60201c565b905092915050565b600080600084815260200190815260200160002060000160008373ffffffffffffffffffffffffffffffffffffffff1673ffffffffffffffffffffffffffffffffffffffff16815260200190815260200160002060009054906101000a900460ff16905092915050565b600033905090565b6000620004b283836200051860201b60201c565b6200050d57826000018290806001815401808255809150506001900390600052602060002001600090919091909150558260000180549050836001016000848152602001908152602001600020819055506001905062000512565b600090505b92915050565b600080836001016000848152602001908152602001600020541415905092915050565b60805160a0516140c1620005656000396000818161128d01526128ab0152600050506140c16000f3fe6080604052600436106102725760003560e01c806391d148541161014f578063c4707a83116100c1578063dc301a7c1161007a578063dc301a7c1461099c578063df34e652146109c5578063e43581b814610a02578063e6eb982f14610a3f578063e78ee6a014610a68578063f5221a6714610aa557610272565b8063c4707a831461087a578063c9876d54146108a5578063ca15c873146108e2578063cfbd48851461091f578063d539139314610948578063d547741f1461097357610272565b8063aa271e1a11610113578063aa271e1a1461078a578063af648c3d146107c7578063b6a9bd78146107f0578063ba0cb6871461080c578063bb795f7214610828578063bcb9d2dd1461085157610272565b806391d148541461069157806394b1d2c0146106ce578063a10f469e146106f7578063a217fddf14610722578063a230c5241461074d57610272565b806336568abe116101e8578063567fb779116101ac578063567fb77914610549578063637269ac146105865780636f9fb98a146105c35780638adf23b9146105ee5780638fcd08bd146106175780639010d07c1461065457610272565b806336568abe1461047a57806338b7f446146104a3578063395c62e8146104ce5780633e53762c146104f75780634c9f93841461052057610272565b8063248a9ca31161023a578063248a9ca31461036c57806324ea54f4146103a9578063261707fa146103d457806329fe8ead146103fd5780632f2ff15d14610426578063358ee2f91461044f57610272565b806301ffc9a714610277578063080bf57c146102b45780630c68ba21146102dd57806313e15efc1461031a5780632320eabf14610343575b600080fd5b34801561028357600080fd5b5061029e600480360381019061029991906132c5565b610ae2565b6040516102ab9190613b6d565b60405180910390f35b3480156102c057600080fd5b506102db60048036038101906102d69190613211565b610b5c565b005b3480156102e957600080fd5b5061030460048036038101906102ff9190613134565b610c78565b6040516103119190613b6d565b60405180910390f35b34801561032657600080fd5b50610341600480360381019061033c9190613134565b610cab565b005b34801561034f57600080fd5b5061036a60048036038101906103659190613134565b610d20565b005b34801561037857600080fd5b50610393600480360381019061038e91906131e8565b610d95565b6040516103a09190613b88565b60405180910390f35b3480156103b557600080fd5b506103be610db4565b6040516103cb9190613b88565b60405180910390f35b3480156103e057600080fd5b506103fb60048036038101906103f69190613134565b610dd8565b005b34801561040957600080fd5b50610424600480360381019061041f9190613134565b610e4d565b005b34801561043257600080fd5b5061044d60048036038101906104489190613211565b610feb565b005b34801561045b57600080fd5b50610464611014565b6040516104719190613b29565b60405180910390f35b34801561048657600080fd5b506104a1600480360381019061049c9190613211565b611064565b005b3480156104af57600080fd5b506104b86110e7565b6040516104c59190613b88565b60405180910390f35b3480156104da57600080fd5b506104f560048036038101906104f09190613134565b61110b565b005b34801561050357600080fd5b5061051e60048036038101906105199190613199565b611180565b005b34801561052c57600080fd5b506105476004803603810190610542919061324d565b611608565b005b34801561055557600080fd5b50610570600480360381019061056b91906132ee565b61165e565b60405161057d9190613b29565b60405180910390f35b34801561059257600080fd5b506105ad60048036038101906105a89190613353565b61169b565b6040516105ba9190613dee565b60405180910390f35b3480156105cf57600080fd5b506105d8611703565b6040516105e59190613dee565b60405180910390f35b3480156105fa57600080fd5b5061061560048036038101906106109190613134565b61170b565b005b34801561062357600080fd5b5061063e6004803603810190610639919061315d565b611780565b60405161064b9190613dee565b60405180910390f35b34801561066057600080fd5b5061067b60048036038101906106769190613289565b611833565b6040516106889190613b29565b60405180910390f35b34801561069d57600080fd5b506106b860048036038101906106b39190613211565b611862565b6040516106c59190613b6d565b60405180910390f35b3480156106da57600080fd5b506106f560048036038101906106f09190613134565b6118cc565b005b34801561070357600080fd5b5061070c611941565b6040516107199190613b88565b60405180910390f35b34801561072e57600080fd5b50610737611965565b6040516107449190613b88565b60405180910390f35b34801561075957600080fd5b50610774600480360381019061076f9190613134565b61196c565b6040516107819190613b6d565b60405180910390f35b34801561079657600080fd5b506107b160048036038101906107ac9190613134565b61199f565b6040516107be9190613b6d565b60405180910390f35b3480156107d357600080fd5b506107ee60048036038101906107e99190613134565b6119d2565b005b61080a60048036038101906108059190613134565b611a47565b005b61082660048036038101906108219190613317565b611c31565b005b34801561083457600080fd5b5061084f600480360381019061084a91906132ee565b611ee8565b005b34801561085d57600080fd5b5061087860048036038101906108739190613134565b611eeb565b005b34801561088657600080fd5b5061088f611f60565b60405161089c9190613b88565b60405180910390f35b3480156108b157600080fd5b506108cc60048036038101906108c79190613134565b611f84565b6040516108d99190613b6d565b60405180910390f35b3480156108ee57600080fd5b50610909600480360381019061090491906131e8565b611fb7565b6040516109169190613dee565b60405180910390f35b34801561092b57600080fd5b5061094660048036038101906109419190613134565b611fdb565b005b34801561095457600080fd5b5061095d612050565b60405161096a9190613b88565b60405180910390f35b34801561097f57600080fd5b5061099a60048036038101906109959190613211565b612074565b005b3480156109a857600080fd5b506109c360048036038101906109be9190613353565b61209d565b005b3480156109d157600080fd5b506109ec60048036038101906109e79190613199565b6122d0565b6040516109f99190613dee565b60405180910390f35b348015610a0e57600080fd5b50610a296004803603810190610a249190613134565b61232c565b604051610a369190613b6d565b60405180910390f35b348015610a4b57600080fd5b50610a666004803603810190610a619190613134565b61235f565b005b348015610a7457600080fd5b50610a8f6004803603810190610a8a91906132ee565b6123d4565b604051610a9c9190613b6d565b60405180910390f35b348015610ab157600080fd5b50610acc6004803603810190610ac79190613134565b6123df565b604051610ad99190613b6d565b60405180910390f35b60007f5a05180f000000000000000000000000000000000000000000000000000000007bffffffffffffffffffffffffffffffffffffffffffffffffffffffff1916827bffffffffffffffffffffffffffffffffffffffffffffffffffffffff19161480610b555750610b5482612545565b5b9050919050565b610b6533610c78565b610ba4576040517f08c379a0000000000000000000000000000000000000000000000000000000008152600401610b9b90613d0e565b60405180910390fd5b7f899bd46557473cb80307a9dabc297131ced39608330a2d29b2d52b660c03923e821415610c07576040517f08c379a0000000000000000000000000000000000000000000000000000000008152600401610bfe90613d4e565b60405180910390fd5b3073ffffffffffffffffffffffffffffffffffffffff1663d547741f83836040518363ffffffff1660e01b8152600401610c42929190613ba3565b600060405180830381600087803b158015610c5c57600080fd5b505af1158015610c70573d6000803e3d6000fd5b505050505050565b6000610ca47f55435dd261a4b9b3364963f7738a7a662ad9c84396d64be3365284bb7f0a504183611862565b9050919050565b610cb43361232c565b610cf3576040517f08c379a0000000000000000000000000000000000000000000000000000000008152600401610cea90613c2e565b60405180910390fd5b610d1d7f829b824e2329e205435d941c9f13baf578548505283d29261236d8e6596d463682610feb565b50565b610d293361232c565b610d68576040517f08c379a0000000000000000000000000000000000000000000000000000000008152600401610d5f90613c2e565b60405180910390fd5b610d927f9d98d3d08f0062b192694645e127c98e5f96f3bbec331d061acaac3ace2327f982610feb565b50565b6000806000838152602001908152602001600020600101549050919050565b7f55435dd261a4b9b3364963f7738a7a662ad9c84396d64be3365284bb7f0a504181565b610de13361232c565b610e20576040517f08c379a0000000000000000000000000000000000000000000000000000000008152600401610e1790613c2e565b60405180910390fd5b610e4a7f9f2df0fed2c77648de5860a4cc508cd0818c85b8b8a1ab4ceeef8d981c8956a682610feb565b50565b6001151560076000600360009054906101000a900473ffffffffffffffffffffffffffffffffffffffff1673ffffffffffffffffffffffffffffffffffffffff1673ffffffffffffffffffffffffffffffffffffffff16815260200190815260200160002060009054906101000a900460ff16151514610f02576040517f08c379a0000000000000000000000000000000000000000000000000000000008152600401610ef990613d6e565b60405180910390fd5b600280541415610f47576040517f08c379a0000000000000000000000000000000000000000000000000000000008152600401610f3e90613dae565b60405180910390fd5b600280819055506000600760008373ffffffffffffffffffffffffffffffffffffffff1673ffffffffffffffffffffffffffffffffffffffff16815260200190815260200160002060006101000a81548160ff0219169083151502179055507f0aca395aa56c30eb87bd7b4d35a0363ae5fb24dff8d6a192832291333373362f336001604051610fd8929190613b44565b60405180910390a1600160028190555050565b610ff482610d95565b611005816110006125bf565b6125c7565b61100f8383612664565b505050565b600061101f33611f84565b61105e576040517f08c379a000000000000000000000000000000000000000000000000000000000815260040161105590613d8e565b60405180910390fd5b30905090565b61106c6125bf565b73ffffffffffffffffffffffffffffffffffffffff168173ffffffffffffffffffffffffffffffffffffffff16146110d9576040517f08c379a00000000000000000000000000000000000000000000000000000000081526004016110d090613dce565b60405180910390fd5b6110e38282612698565b5050565b7f899bd46557473cb80307a9dabc297131ced39608330a2d29b2d52b660c03923e81565b6111143361232c565b611153576040517f08c379a000000000000000000000000000000000000000000000000000000000815260040161114a90613c2e565b60405180910390fd5b61117d7f899bd46557473cb80307a9dabc297131ced39608330a2d29b2d52b660c03923e82610feb565b50565b6001151560076000600360009054906101000a900473ffffffffffffffffffffffffffffffffffffffff1673ffffffffffffffffffffffffffffffffffffffff1673ffffffffffffffffffffffffffffffffffffffff16815260200190815260200160002060009054906101000a900460ff16151514611235576040517f08c379a000000000000000000000000000000000000000000000000000000000815260040161122c90613d6e565b60405180910390fd5b60001515601060009054906101000a900460ff1615151461128b576040517f08c379a000000000000000000000000000000000000000000000000000000000815260040161128290613c4e565b60405180910390fd5b7f000000000000000000000000000000000000000000000000000000000000000060086000600360009054906101000a900473ffffffffffffffffffffffffffffffffffffffff1673ffffffffffffffffffffffffffffffffffffffff1673ffffffffffffffffffffffffffffffffffffffff168152602001908152602001600020546113189190613e30565b42101561132457600080fd5b3373ffffffffffffffffffffffffffffffffffffffff1631600460009054906101000a900473ffffffffffffffffffffffffffffffffffffffff1673ffffffffffffffffffffffffffffffffffffffff1631111561138157600080fd5b6002805414156113c6576040517f08c379a00000000000000000000000000000000000000000000000000000000081526004016113bd90613dae565b60405180910390fd5b6002808190555042821015611410576040517f08c379a000000000000000000000000000000000000000000000000000000000815260040161140790613d2e565b60405180910390fd5b600b60008473ffffffffffffffffffffffffffffffffffffffff1673ffffffffffffffffffffffffffffffffffffffff168152602001908152602001600020600082815260200190815260200160002054600660003073ffffffffffffffffffffffffffffffffffffffff1673ffffffffffffffffffffffffffffffffffffffff16815260200190815260200160002060008282546114af9190613ee0565b92505081905550600b60008473ffffffffffffffffffffffffffffffffffffffff1673ffffffffffffffffffffffffffffffffffffffff168152602001908152602001600020600082815260200190815260200160002054600660008573ffffffffffffffffffffffffffffffffffffffff1673ffffffffffffffffffffffffffffffffffffffff16815260200190815260200160002060008282546115559190613e30565b92505081905550808373ffffffffffffffffffffffffffffffffffffffff167fb2e011f7561cad3d4f94ede484a09ba367934c0a295f35f67dda16d8b41329e9600b60008773ffffffffffffffffffffffffffffffffffffffff1673ffffffffffffffffffffffffffffffffffffffff1681526020019081526020016000206000858152602001908152602001600020546040516115f39190613dee565b60405180910390a36001600281905550505050565b6116113361232c565b611650576040517f08c379a000000000000000000000000000000000000000000000000000000000815260040161164790613c2e565b60405180910390fd5b61165a82826126cc565b5050565b6000600d600083815260200190815260200160002060009054906101000a900473ffffffffffffffffffffffffffffffffffffffff169050919050565b6000806116a78361165e565b9050601460008273ffffffffffffffffffffffffffffffffffffffff1673ffffffffffffffffffffffffffffffffffffffff16815260200190815260200160002060008481526020019081526020016000205491505092915050565b600047905090565b6117143361232c565b611753576040517f08c379a000000000000000000000000000000000000000000000000000000000815260040161174a90613c2e565b60405180910390fd5b61177d7f829b824e2329e205435d941c9f13baf578548505283d29261236d8e6596d463682612074565b50565b60006002805414156117c7576040517f08c379a00000000000000000000000000000000000000000000000000000000081526004016117be90613dae565b60405180910390fd5b6002808190555081600f60008573ffffffffffffffffffffffffffffffffffffffff1673ffffffffffffffffffffffffffffffffffffffff168152602001908152602001600020600082825461181d9190613e30565b9250508190559050600160028190555092915050565b600061185a826001600086815260200190815260200160002061272790919063ffffffff16565b905092915050565b600080600084815260200190815260200160002060000160008373ffffffffffffffffffffffffffffffffffffffff1673ffffffffffffffffffffffffffffffffffffffff16815260200190815260200160002060009054906101000a900460ff16905092915050565b6118d53361232c565b611914576040517f08c379a000000000000000000000000000000000000000000000000000000000815260040161190b90613c2e565b60405180910390fd5b61193e7f55435dd261a4b9b3364963f7738a7a662ad9c84396d64be3365284bb7f0a504182610feb565b50565b7f829b824e2329e205435d941c9f13baf578548505283d29261236d8e6596d463681565b6000801b81565b60006119987f829b824e2329e205435d941c9f13baf578548505283d29261236d8e6596d463683611862565b9050919050565b60006119cb7f9f2df0fed2c77648de5860a4cc508cd0818c85b8b8a1ab4ceeef8d981c8956a683611862565b9050919050565b6119db3361232c565b611a1a576040517f08c379a0000000000000000000000000000000000000000000000000000000008152600401611a1190613c2e565b60405180910390fd5b611a447f55435dd261a4b9b3364963f7738a7a662ad9c84396d64be3365284bb7f0a504182612074565b50565b600280541415611a8c576040517f08c379a0000000000000000000000000000000000000000000000000000000008152600401611a8390613dae565b60405180910390fd5b6002808190555060003373ffffffffffffffffffffffffffffffffffffffff16311015611aee576040517f08c379a0000000000000000000000000000000000000000000000000000000008152600401611ae590613c6e565b60405180910390fd5b67016345785d8a00003414611b38576040517f08c379a0000000000000000000000000000000000000000000000000000000008152600401611b2f90613cae565b60405180910390fd5b611b4181612741565b67016345785d8a0000600660003373ffffffffffffffffffffffffffffffffffffffff1673ffffffffffffffffffffffffffffffffffffffff1681526020019081526020016000206000828254611b989190613ee0565b9250508190555042600960008373ffffffffffffffffffffffffffffffffffffffff1673ffffffffffffffffffffffffffffffffffffffff168152602001908152602001600020819055508073ffffffffffffffffffffffffffffffffffffffff167fe354f0cf679c86f6893ff16487e64267deeffb2e5e6ace0aca8286beddf9bd0d60405160405180910390a2600160028190555050565b6001151560076000600360009054906101000a900473ffffffffffffffffffffffffffffffffffffffff1673ffffffffffffffffffffffffffffffffffffffff1673ffffffffffffffffffffffffffffffffffffffff16815260200190815260200160002060009054906101000a900460ff16151514611ce6576040517f08c379a0000000000000000000000000000000000000000000000000000000008152600401611cdd90613d6e565b60405180910390fd5b600280541415611d2b576040517f08c379a0000000000000000000000000000000000000000000000000000000008152600401611d2290613dae565b60405180910390fd5b60028081905550343373ffffffffffffffffffffffffffffffffffffffff16311015611d8c576040517f08c379a0000000000000000000000000000000000000000000000000000000008152600401611d8390613c8e565b60405180910390fd5b42600860003373ffffffffffffffffffffffffffffffffffffffff1673ffffffffffffffffffffffffffffffffffffffff1681526020019081526020016000208190555034600660003373ffffffffffffffffffffffffffffffffffffffff1673ffffffffffffffffffffffffffffffffffffffff1681526020019081526020016000206000828254611e1f9190613ee0565b9250508190555034600b60003373ffffffffffffffffffffffffffffffffffffffff1673ffffffffffffffffffffffffffffffffffffffff16815260200190815260200160002060008481526020019081526020016000206000828254611e869190613e30565b92505081905550813373ffffffffffffffffffffffffffffffffffffffff167f8c303db574f6e1e8a1fae833138421d6040c616f1bf5b3a2b3234e2e6a9bf6be34604051611ed49190613dee565b60405180910390a360016002819055505050565b50565b611ef43361232c565b611f33576040517f08c379a0000000000000000000000000000000000000000000000000000000008152600401611f2a90613c2e565b60405180910390fd5b611f5d7f9d98d3d08f0062b192694645e127c98e5f96f3bbec331d061acaac3ace2327f982612074565b50565b7f9d98d3d08f0062b192694645e127c98e5f96f3bbec331d061acaac3ace2327f981565b6000611fb07f9d98d3d08f0062b192694645e127c98e5f96f3bbec331d061acaac3ace2327f983611862565b9050919050565b6000611fd4600160008481526020019081526020016000206129db565b9050919050565b611fe43361232c565b612023576040517f08c379a000000000000000000000000000000000000000000000000000000000815260040161201a90613c2e565b60405180910390fd5b61204d7f9f2df0fed2c77648de5860a4cc508cd0818c85b8b8a1ab4ceeef8d981c8956a682612074565b50565b7f9f2df0fed2c77648de5860a4cc508cd0818c85b8b8a1ab4ceeef8d981c8956a681565b61207d82610d95565b61208e816120896125bf565b6125c7565b6120988383612698565b505050565b6001151560076000600360009054906101000a900473ffffffffffffffffffffffffffffffffffffffff1673ffffffffffffffffffffffffffffffffffffffff1673ffffffffffffffffffffffffffffffffffffffff16815260200190815260200160002060009054906101000a900460ff16151514612152576040517f08c379a000000000000000000000000000000000000000000000000000000000815260040161214990613d6e565b60405180910390fd5b600280541415612197576040517f08c379a000000000000000000000000000000000000000000000000000000000815260040161218e90613dae565b60405180910390fd5b6002808190555060011515600760003373ffffffffffffffffffffffffffffffffffffffff1673ffffffffffffffffffffffffffffffffffffffff16815260200190815260200160002060009054906101000a900460ff16151514612231576040517f08c379a000000000000000000000000000000000000000000000000000000000815260040161222890613c0e565b60405180910390fd5b6000600b60003373ffffffffffffffffffffffffffffffffffffffff1673ffffffffffffffffffffffffffffffffffffffff168152602001908152602001600020600084815260200190815260200160002054146122c4576040517f08c379a00000000000000000000000000000000000000000000000000000000081526004016122bb90613cee565b60405180910390fd5b60016002819055505050565b6000600b60008573ffffffffffffffffffffffffffffffffffffffff1673ffffffffffffffffffffffffffffffffffffffff16815260200190815260200160002060008381526020019081526020016000205490509392505050565b60006123587f899bd46557473cb80307a9dabc297131ced39608330a2d29b2d52b660c03923e83611862565b9050919050565b6123683361232c565b6123a7576040517f08c379a000000000000000000000000000000000000000000000000000000000815260040161239e90613c2e565b60405180910390fd5b6123d17f899bd46557473cb80307a9dabc297131ced39608330a2d29b2d52b660c03923e82612074565b50565b600060019050919050565b6000600e60008373ffffffffffffffffffffffffffffffffffffffff1673ffffffffffffffffffffffffffffffffffffffff16815260200190815260200160002060009054906101000a900460ff169050919050565b61243f8282611862565b61251157600160008084815260200190815260200160002060000160008373ffffffffffffffffffffffffffffffffffffffff1673ffffffffffffffffffffffffffffffffffffffff16815260200190815260200160002060006101000a81548160ff0219169083151502179055506124b66125bf565b73ffffffffffffffffffffffffffffffffffffffff168173ffffffffffffffffffffffffffffffffffffffff16837f2f8788117e7eff1d82e926ec794901d17c78024a50270940304540a733656f0d60405160405180910390a45b5050565b600061253d836000018373ffffffffffffffffffffffffffffffffffffffff1660001b6129f0565b905092915050565b60007f7965db0b000000000000000000000000000000000000000000000000000000007bffffffffffffffffffffffffffffffffffffffffffffffffffffffff1916827bffffffffffffffffffffffffffffffffffffffffffffffffffffffff191614806125b857506125b782612a60565b5b9050919050565b600033905090565b6125d18282611862565b612660576125f68173ffffffffffffffffffffffffffffffffffffffff166014612aca565b6126048360001c6020612aca565b604051602001612615929190613aef565b6040516020818303038152906040526040517f08c379a00000000000000000000000000000000000000000000000000000000081526004016126579190613bcc565b60405180910390fd5b5050565b61266e8282612435565b612693816001600085815260200190815260200160002061251590919063ffffffff16565b505050565b6126a28282612dc4565b6126c78160016000858152602001908152602001600020612ea590919063ffffffff16565b505050565b60006126d783610d95565b905081600080858152602001908152602001600020600101819055508181847fbd79b86ffe0ab8e8776151514217cd7cacd52c909f66475c3af44e129f0b00ff60405160405180910390a4505050565b60006127368360000183612ed5565b60001c905092915050565b61274a33611f84565b612789576040517f08c379a000000000000000000000000000000000000000000000000000000000815260040161278090613d8e565b60405180910390fd5b6002805414156127ce576040517f08c379a00000000000000000000000000000000000000000000000000000000081526004016127c590613dae565b60405180910390fd5b6002808190555060011515600e60008373ffffffffffffffffffffffffffffffffffffffff1673ffffffffffffffffffffffffffffffffffffffff16815260200190815260200160002060009054906101000a900460ff1615151415612869576040517f08c379a000000000000000000000000000000000000000000000000000000000815260040161286090613cce565b60405180910390fd5b600960008273ffffffffffffffffffffffffffffffffffffffff1673ffffffffffffffffffffffffffffffffffffffff168152602001908152602001600020547f0000000000000000000000000000000000000000000000000000000000000000426128d59190613ee0565b106129b0576001601060006101000a81548160ff0219169083151502179055506001600e60008373ffffffffffffffffffffffffffffffffffffffff1673ffffffffffffffffffffffffffffffffffffffff16815260200190815260200160002060006101000a81548160ff02191690831515021790555067016345785d8a0000600660003073ffffffffffffffffffffffffffffffffffffffff1673ffffffffffffffffffffffffffffffffffffffff16815260200190815260200160002060008282546129a49190613e30565b925050819055506129d0565b6000601060006101000a81548160ff021916908315150217905550600080fd5b600160028190555050565b60006129e982600001612f26565b9050919050565b60006129fc8383612f37565b612a55578260000182908060018154018082558091505060019003906000526020600020016000909190919091505582600001805490508360010160008481526020019081526020016000208190555060019050612a5a565b600090505b92915050565b60007f01ffc9a7000000000000000000000000000000000000000000000000000000007bffffffffffffffffffffffffffffffffffffffffffffffffffffffff1916827bffffffffffffffffffffffffffffffffffffffffffffffffffffffff1916149050919050565b606060006002836002612add9190613e86565b612ae79190613e30565b67ffffffffffffffff811115612b26577f4e487b7100000000000000000000000000000000000000000000000000000000600052604160045260246000fd5b6040519080825280601f01601f191660200182016040528015612b585781602001600182028036833780820191505090505b5090507f300000000000000000000000000000000000000000000000000000000000000081600081518110612bb6577f4e487b7100000000000000000000000000000000000000000000000000000000600052603260045260246000fd5b60200101907effffffffffffffffffffffffffffffffffffffffffffffffffffffffffffff1916908160001a9053507f780000000000000000000000000000000000000000000000000000000000000081600181518110612c40577f4e487b7100000000000000000000000000000000000000000000000000000000600052603260045260246000fd5b60200101907effffffffffffffffffffffffffffffffffffffffffffffffffffffffffffff1916908160001a90535060006001846002612c809190613e86565b612c8a9190613e30565b90505b6001811115612d76577f3031323334353637383961626364656600000000000000000000000000000000600f861660108110612cf2577f4e487b7100000000000000000000000000000000000000000000000000000000600052603260045260246000fd5b1a60f81b828281518110612d2f577f4e487b7100000000000000000000000000000000000000000000000000000000600052603260045260246000fd5b60200101907effffffffffffffffffffffffffffffffffffffffffffffffffffffffffffff1916908160001a905350600485901c945080612d6f90613fc5565b9050612c8d565b5060008414612dba576040517f08c379a0000000000000000000000000000000000000000000000000000000008152600401612db190613bee565b60405180910390fd5b8091505092915050565b612dce8282611862565b15612ea157600080600084815260200190815260200160002060000160008373ffffffffffffffffffffffffffffffffffffffff1673ffffffffffffffffffffffffffffffffffffffff16815260200190815260200160002060006101000a81548160ff021916908315150217905550612e466125bf565b73ffffffffffffffffffffffffffffffffffffffff168173ffffffffffffffffffffffffffffffffffffffff16837ff6391f5c32d9c69d2a47ea670b442974b53935d1edc7fd64eb21e047a839171b60405160405180910390a45b5050565b6000612ecd836000018373ffffffffffffffffffffffffffffffffffffffff1660001b612f5a565b905092915050565b6000826000018281548110612f13577f4e487b7100000000000000000000000000000000000000000000000000000000600052603260045260246000fd5b9060005260206000200154905092915050565b600081600001805490509050919050565b600080836001016000848152602001908152602001600020541415905092915050565b600080836001016000848152602001908152602001600020549050600081146130d4576000600182612f8c9190613ee0565b9050600060018660000180549050612fa49190613ee0565b905081811461305f576000866000018281548110612feb577f4e487b7100000000000000000000000000000000000000000000000000000000600052603260045260246000fd5b9060005260206000200154905080876000018481548110613035577f4e487b7100000000000000000000000000000000000000000000000000000000600052603260045260246000fd5b90600052602060002001819055508387600101600083815260200190815260200160002081905550505b85600001805480613099577f4e487b7100000000000000000000000000000000000000000000000000000000600052603160045260246000fd5b6001900381819060005260206000200160009055905585600101600086815260200190815260200160002060009055600193505050506130da565b60009150505b92915050565b6000813590506130ef8161402f565b92915050565b60008135905061310481614046565b92915050565b6000813590506131198161405d565b92915050565b60008135905061312e81614074565b92915050565b60006020828403121561314657600080fd5b6000613154848285016130e0565b91505092915050565b6000806040838503121561317057600080fd5b600061317e858286016130e0565b925050602061318f8582860161311f565b9150509250929050565b6000806000606084860312156131ae57600080fd5b60006131bc868287016130e0565b93505060206131cd8682870161311f565b92505060406131de8682870161311f565b9150509250925092565b6000602082840312156131fa57600080fd5b6000613208848285016130f5565b91505092915050565b6000806040838503121561322457600080fd5b6000613232858286016130f5565b9250506020613243858286016130e0565b9150509250929050565b6000806040838503121561326057600080fd5b600061326e858286016130f5565b925050602061327f858286016130f5565b9150509250929050565b6000806040838503121561329c57600080fd5b60006132aa858286016130f5565b92505060206132bb8582860161311f565b9150509250929050565b6000602082840312156132d757600080fd5b60006132e58482850161310a565b91505092915050565b60006020828403121561330057600080fd5b600061330e8482850161311f565b91505092915050565b6000806040838503121561332a57600080fd5b60006133388582860161311f565b9250506020613349858286016130e0565b9150509250929050565b6000806040838503121561336657600080fd5b60006133748582860161311f565b92505060206133858582860161311f565b9150509250929050565b61339881613f14565b82525050565b6133a781613f26565b82525050565b6133b681613f32565b82525050565b60006133c782613e09565b6133d18185613e14565b93506133e1818560208601613f92565b6133ea8161401e565b840191505092915050565b600061340082613e09565b61340a8185613e25565b935061341a818560208601613f92565b80840191505092915050565b6000613433602083613e14565b91507f537472696e67733a20686578206c656e67746820696e73756666696369656e746000830152602082019050919050565b6000613473603f83613e14565b91507f416e792070726f746f636f6c27732075736572206d757374206669727374206d60008301527f616b6520612073616665206465706f736974206f6620302e31206574686572006020830152604082019050919050565b60006134d9602583613e14565b91507f5065726d697373696f6e733a2043616c6c6572206973206e6f74206120676f7660008301527f65726e6f720000000000000000000000000000000000000000000000000000006020830152604082019050919050565b600061353f601083613e14565b91507f66756e647320617265206c6f636b6564000000000000000000000000000000006000830152602082019050919050565b600061357f601883613e14565b91507f62616c616e6365206d75737420626520706f73697469766500000000000000006000830152602082019050919050565b60006135bf602883613e14565b91507f7573657220646f65736e2774206861766520656d6f7567682066756e6473203d60008301527f3e207265766572740000000000000000000000000000000000000000000000006020830152604082019050919050565b6000613625602683613e14565b91507f54686520616d6f756e74206f6620302e31206574686572206973206e6f74207260008301527f65616368656400000000000000000000000000000000000000000000000000006020830152604082019050919050565b600061368b602383613e14565b91507f546865207365637572697479206465706f73697420697320616c72656164792060008301527f6d657400000000000000000000000000000000000000000000000000000000006020830152604082019050919050565b60006136f1606683613e14565b91507f54686520757365722068617320616c726561647920696e76657374656420696e60008301527f2074686973205266432c207468656e2068652f7368652f7468657920646f6e2760208301527f74206e65656420616e20746f2070617920746f2061636365737320746865206360408301527f6f6e74656e7400000000000000000000000000000000000000000000000000006060830152608082019050919050565b60006137a3602583613e14565b91507f5065726d697373696f6e733a2043616c6c6572206973206e6f7420612067756160008301527f726469616e0000000000000000000000000000000000000000000000000000006020830152604082019050919050565b6000613809601a83613e14565b91507f457363726f7720706572696f64206e6f7420657870697265642e0000000000006000830152602082019050919050565b6000613849602c83613e14565b91507f5065726d697373696f6e733a20477561726469616e2063616e6e6f742072657660008301527f6f6b6520676f7665726e6f7200000000000000000000000000000000000000006020830152604082019050919050565b60006138af604683613e14565b91507f5065726d697373696f6e733a2043616c6c657220646f6573206e6f742068617660008301527f6520612073616665206465706f73697420616e6420616374697665206d656d6260208301527f65727368697000000000000000000000000000000000000000000000000000006040830152606082019050919050565b600061393b601783613e25565b91507f416363657373436f6e74726f6c3a206163636f756e74200000000000000000006000830152601782019050919050565b600061397b604683613e14565b91507f5065726d697373696f6e733a2043616c6c6572206973206e6f7420612046756e60008301527f64734d616e616765722070726f746f636f6c277320636f6e747261637420696e60208301527f7374616e636500000000000000000000000000000000000000000000000000006040830152606082019050919050565b6000613a07601f83613e14565b91507f5265656e7472616e637947756172643a207265656e7472616e742063616c6c006000830152602082019050919050565b6000613a47601183613e25565b91507f206973206d697373696e6720726f6c65200000000000000000000000000000006000830152601182019050919050565b6000613a87602f83613e14565b91507f416363657373436f6e74726f6c3a2063616e206f6e6c792072656e6f756e636560008301527f20726f6c657320666f722073656c6600000000000000000000000000000000006020830152604082019050919050565b613ae981613f88565b82525050565b6000613afa8261392e565b9150613b0682856133f5565b9150613b1182613a3a565b9150613b1d82846133f5565b91508190509392505050565b6000602082019050613b3e600083018461338f565b92915050565b6000604082019050613b59600083018561338f565b613b66602083018461339e565b9392505050565b6000602082019050613b82600083018461339e565b92915050565b6000602082019050613b9d60008301846133ad565b92915050565b6000604082019050613bb860008301856133ad565b613bc5602083018461338f565b9392505050565b60006020820190508181036000830152613be681846133bc565b905092915050565b60006020820190508181036000830152613c0781613426565b9050919050565b60006020820190508181036000830152613c2781613466565b9050919050565b60006020820190508181036000830152613c47816134cc565b9050919050565b60006020820190508181036000830152613c6781613532565b9050919050565b60006020820190508181036000830152613c8781613572565b9050919050565b60006020820190508181036000830152613ca7816135b2565b9050919050565b60006020820190508181036000830152613cc781613618565b9050919050565b60006020820190508181036000830152613ce78161367e565b9050919050565b60006020820190508181036000830152613d07816136e4565b9050919050565b60006020820190508181036000830152613d2781613796565b9050919050565b60006020820190508181036000830152613d47816137fc565b9050919050565b60006020820190508181036000830152613d678161383c565b9050919050565b60006020820190508181036000830152613d87816138a2565b9050919050565b60006020820190508181036000830152613da78161396e565b9050919050565b60006020820190508181036000830152613dc7816139fa565b9050919050565b60006020820190508181036000830152613de781613a7a565b9050919050565b6000602082019050613e036000830184613ae0565b92915050565b600081519050919050565b600082825260208201905092915050565b600081905092915050565b6000613e3b82613f88565b9150613e4683613f88565b9250827fffffffffffffffffffffffffffffffffffffffffffffffffffffffffffffffff03821115613e7b57613e7a613fef565b5b828201905092915050565b6000613e9182613f88565b9150613e9c83613f88565b9250817fffffffffffffffffffffffffffffffffffffffffffffffffffffffffffffffff0483118215151615613ed557613ed4613fef565b5b828202905092915050565b6000613eeb82613f88565b9150613ef683613f88565b925082821015613f0957613f08613fef565b5b828203905092915050565b6000613f1f82613f68565b9050919050565b60008115159050919050565b6000819050919050565b60007fffffffff0000000000000000000000000000000000000000000000000000000082169050919050565b600073ffffffffffffffffffffffffffffffffffffffff82169050919050565b6000819050919050565b60005b83811015613fb0578082015181840152602081019050613f95565b83811115613fbf576000848401525b50505050565b6000613fd082613f88565b91506000821415613fe457613fe3613fef565b5b600182039050919050565b7f4e487b7100000000000000000000000000000000000000000000000000000000600052601160045260246000fd5b6000601f19601f8301169050919050565b61403881613f14565b811461404357600080fd5b50565b61404f81613f32565b811461405a57600080fd5b50565b61406681613f3c565b811461407157600080fd5b50565b61407d81613f88565b811461408857600080fd5b5056fea26469706673582212209efe416bc8ddc4e48c8427c4a59b8a274e8dd209b35cd8f07d0036026c26630364736f6c63430008000033",
  "immutableReferences": {
    "3720": [
      {
        "length": 32,
        "start": 4749
      },
      {
        "length": 32,
        "start": 10411
      }
    ]
  },
  "source": "// SPDX-License-Identifier: GPL-3.0-or-later\npragma solidity ^0.8.0;\n\n/** \n    >>>> I ran out in an OOG error on this contract. What made it possible for me to get out of this is commenting each reference to the external RfC contract\n    >>>> I need to research that to understand how to make it work at some point in my test/building process.\n**/\n\n//import \"@openzeppelin/contracts/proxy/utils/Initializable.sol\";\nimport \"@openzeppelin/contracts/utils/math/SafeMath.sol\";\nimport \"@openzeppelin/contracts/security/ReentrancyGuard.sol\";  // => quick double check to se how to use it (modifier or other stuff?)\n//import \"@openzeppelin/contracts/token/ERC20/utils/SafeERC20.sol\";\n//import \"@openzeppelin/contracts/token/ERC20/utils/TokenTimelock.sol\";\nimport \"./RequestForContent.sol\";\nimport \"./RfCEscrow.sol\";\n// for defining role-based access control:\nimport \"./Permissions.sol\";\ncontract FundsManager is Permissions, /*Initializable,*/ ReentrancyGuard {\n    \n    //using Counters for Counters.Counter;\n    //using SafeERC20 for IERC20; // shouldn't be needed in 1st iteration as I limit ERC20-like to ether... or you make the choice to use WETH to simplify how you deal with tokens\n                                // and stay in the ERC20 standards and the reuse is enables instead of coding you own custom logic for every crypto-asset (especially since\n                                //  you intend to only use stablecoins in the end)\n    //Counters.Counter private id;\n    //Protocols Contracts deployed through minting this contract:\n    \n    \n    //RequestForContent public rfcInstanceContract = new RequestForContent(); \n    //RfCEscrow private escrowRfCContract = new RfCEscrow();\n\n    address private user;\n    //eventually make those 2 state variable the same... => can encompass EOA and contract addresses, no pb.\n    address private addr;\n    address private owner;\n\n    mapping(address => uint256 ) private balance;\n\n    mapping(address => bool) private membershipStatus;\n\n    //mapping(address => uint256) private balanceAccount;   => nod needed => balance.addr\n\n    mapping(address => uint256) private depositStartTime;    // to use only for cases different from safe deposits => use a specific state variable for both\n    mapping(address => uint256) private memberSafeDepositStartTime;\n    mapping(address => uint256) private maturationTime;\n\n    // allows to track the amount of one investor in one RfC (can have several investments):\n    // investor address => RfCid => amount   \n    mapping(address => mapping(uint256 => uint256)) private investorAmountToSpecificRfC;\n\n    //mapping(address => mapping(address => uint)) public allowance;\n    \n    //uint256 private contractBalance = address(this).balance; // to be used in functions where the state can be changed (limiting the scope through private)\n    \n    //uint256 private amount;\n\n    //keep track of the amount for a given RfC token:\n    mapping(address => mapping(uint256 => uint256)) private rfcIdFund;\n\n    mapping(uint256 => address) private tokenRfCAddr;\n\n    // used in SimpleInvestorsVote:\n    uint256 private immutable SECURITY_DEPOSIT = 0.1 ether; // arbitrary value for now in eth (should be expressed in $stablecoin eventually - next iteration)\n\n    uint256 private immutable MIN_ESCROW_TIME = 30 days;\n\n    // required for all users of the protocol\n    mapping (address =>  bool) private safeDepositMade;\n\n    //mapping(bool => uint256) private amountUserDepositCommittedToTheProtocol;\n\n    mapping(address => uint256) private totalAmountUserDepositToTheProtocol;\n\n    //mapping (address => mapping (uint256 => bool)) private securityDepositIsCommittedToAnRfC;\n\n    bool private locked;\n\n\n    // you don't need all those var:\n    uint256 private shareOfRfCOwnership;\n    mapping (address => mapping(uint256 => uint256)) private shareRatioOfRfC; \n    uint256 private ratio;\n\n    mapping(address => mapping(uint256 => uint256)) private rfcNFTTokenIdFundAmount;\n\n    //a value that says when a RfC is passes the proposal round and is now in \"processing\" (by a CP) status:\n    // => this value should be returned to this contract by the contract implementing the proposal logic\n    bool private hasPassed = false;\n\n    modifier onlyMember() {\n        require(membershipStatus[user] == true, \"Permissions: Caller does not have a safe deposit and active membership\");\n        _;\n    }\n\n    modifier withdrawApproved() {\n        require(locked == false, \"funds are locked\");\n        require(block.timestamp >= depositStartTime[user] + MIN_ESCROW_TIME);\n        require(addr.balance <= msg.sender.balance);\n        _;\n    }\n\n    // you have to order it...\n    event MadeSafeDeposit(address indexed member);\n\n    event DepositForRfC(address indexed userDepositing, uint256 deposit, uint256 indexed RfCid);\n\n    event WithdrawSafeDeposit(address investor, bool success);\n\n    event CPRewardRedeemed(address indexed cp, uint256 indexed rfcId, uint256 amount);\n\n    event InvestmentRedeemed(address indexed investor, uint256 indexed rfcId, uint256 amount);\n\n    event InvestorSharesMinted(address indexed investor, uint256 amount);\n\n    event FundsCommittedToRfC(address user, uint256 rfcId, uint256 unlockDate);\n\n    constructor() {\n        //whatever:trying to deploy it successfully (rn, chocking on an OOG error)\n        owner = msg.sender;\n    }\n\n    //Returns balance of InvestorEscrow contract\n    function getContractBalance() public view returns(uint256){\n        return address(this).balance;\n    }\n\n    // check for security deposit status for a given account\n    function getSDstatus(address _user) public view returns(bool) {\n        \n        return safeDepositMade[_user];\n    }\n\n    function getRfCStatus(uint256 _rfcId) public view returns(bool) {\n        //TO DO\n        return true; // to have a woeking code => dummy empty shell so far\n    }\n\n    function getRfCFundAmount(uint256 _amount, uint256 _rfcId) public view returns(uint256) {\n        address rfcTokenAddress;\n        rfcTokenAddress = getRfCTokenAddress(_rfcId);\n        \n        return rfcNFTTokenIdFundAmount[rfcTokenAddress][_rfcId];\n    }\n\n    function setRfCFundAmount( address _user, uint256 _rfcId, address  _rfcToken, uint256 _amount) internal nonReentrant returns(uint256) {\n        require(_rfcId >= 0, \"not a valid id\");\n        require(_rfcToken != address(0), \"address can't be 0, the contract has to exist already\");\n        require(_user != address(0), \"invalid EOA\");\n        \n        address rfcTokenAddress;\n        rfcTokenAddress = getRfCTokenAddress(_rfcId);\n\n        //TO DO: get the amount of funds allocated to a specific RfC \n        return rfcNFTTokenIdFundAmount[rfcTokenAddress][_rfcId] += _amount;\n    }\n\n    function getRfCTokenAddress(uint256 _rcfId) public view returns (address) {\n        // check if RfC exists => RfC should not ever have the same id => check if Counters from openZeppelin gives this certitude... \n        // TO DO\n        return tokenRfCAddr[_rcfId];    // should be set when once mint() happens successfully => sort of callback added to the mintn function called on the \n                                            // RfC NFT contract mint() function.\n    }\n\n    // only useful if you can't track the NFT address following their minting (=>RfC.sol contract) \n    function setRfCTokenAddr(uint256 _id, address _rfc) internal {\n        //tokenRfCAddr[_id] = ?? => address of the minted token\n    }\n\n    function getAmountUserDepositForRfC(address _account, uint256 _amount, uint256 _rcfId) public view returns (uint256 amount) {\n        return investorAmountToSpecificRfC[_account][_rcfId];\n    }\n\n    //need to increment this number at every invest & CP deposit\n    function setTotalAmountUserDepositToTheProtocol(address _user, uint256 _amount) external nonReentrant returns (uint256) {\n\n        return totalAmountUserDepositToTheProtocol[_user] += _amount;  // => gives us the total amount invested by an account in the protocol\n    }\n\n    function setRfCTotalFundAmount(address _account, uint256 _rfcId, uint256 _amount) private {\n        require(investorAmountToSpecificRfC[_account][_rfcId] >= 0, \"this account did not dceposit any positive amount of Eth to this RfC\");\n\n\n    }\n\n    function investETH(uint256 _rfcId, address _rfcToken) external payable onlyMember nonReentrant {\n        require(msg.sender.balance >= msg.value, \"user doesn't have emough funds => revert\");\n\n        depositStartTime[msg.sender] = block.timestamp;\n\n        balance[msg.sender] -= msg.value;\n        \n        //track amount invested by a user on a specific RfC:\n        investorAmountToSpecificRfC[msg.sender][_rfcId] += msg.value;\n\n        emit DepositForRfC(msg.sender, msg.value, _rfcId);\n\n    } \n\n\n    function safeDepositForMembership(address _aspiringMember) public payable nonReentrant {\n        // to think about: _setupRole(MEMBERS_W_SAFETY_DEPOSIT, member);\n        require(msg.sender.balance >= 0, \"balance must be positive\");  // don't think it is useful...\n        require(msg.value == 0.1 ether, \"The amount of 0.1 ether is not reached\");  // be ready for your exection to err here\n                                                                                    // simply bc more ether has been sent, and so it reverts\n                                                                                    // => how to make sure to maximize successful txs for users?\n                                                                                    //  so they get their funds back in case too much is sent?\n\n        lockSafeDeposit(_aspiringMember);\n        //try {\n        balance[msg.sender] -= 0.1 ether;\n        //test if you need this (as it will only be ether for now, you should not)\n        //address(this).balance += msg.value;\n        //}\n        //catch {revert()}\n        //safeDepositMade = true;\n\n        //set member status\n        //membershipStatus = true;\n        //set safety deposit time to calculate the unlock time\n        memberSafeDepositStartTime[_aspiringMember] = block.timestamp;                      // equivalent to now (using it to be explicit)\n        emit MadeSafeDeposit(_aspiringMember);\n    } \n\n    function initiateWithdrawSafeDeposit(address _member) external onlyMember nonReentrant {\n\n        //starts a timer that last about 30 days (check the ) that once done allow direct withdrawal (simplest form I can think of now)\n\n        // if timer finished, then withdraw, then once withdraw succesfully, revoke membership (that might be a tricky one in terms of\n        //  order and the access control you've implemented that way... anyway do it like that for now)\n\n        //change status to non-member:\n        membershipStatus[_member] = false;\n\n        //events: withdraw success or not, and then membership stopped \n        emit WithdrawSafeDeposit(msg.sender, true);\n    }\n\n    // function getPooledRfCamount(uint256 _RfCid) public view returns(uint256 rfcPoolAmount) {\n    //     // TO DO\n    // }\n\n    // function allocateFundsToRfC(address _user,uint256 _id, uint256 _startDepositTimer) public onlyMember returns(uint256 totalAmount) {\n    //     //TO DO\n        \n    // }\n\n    // again by seting the scope to private I only allow a function from this contract (does not mean it can't be abused if not careful...)\n    function lockSafeDeposit(address _user)private  onlyFMProxy nonReentrant {\n        require(safeDepositMade[_user] != true, \"The security deposit is already met\");\n\n        // >>>> check the conversion MIN_ESCROW_TIME to unix time so no bug:\n        if (block.timestamp - MIN_ESCROW_TIME >= memberSafeDepositStartTime[_user]) {\n            locked = true;\n            safeDepositMade[_user] = true;\n            balance[address(this)] += 0.1 ether;\n        }\n        else {\n            locked = false;\n            revert();   // I guess that would be enough? Trying to get an err that bubbles up to the iuser though\n        }\n\n    }\n\n    function unlock(address _user, uint256 _amount) private nonReentrant {\n        //call it from another function in this contract either once condition for unlock funds are met, or because the expiration date is reached\n    }\n\n    //specific withdraw (ACTUALLY make it for both cases): when the RfC doesn't pass the investors vote (time of deposit for investors who vote with ether +\n    //  15 days):\n    function withdrawFromEscrow(address _account,/* uint256 _amount,*/ uint256 _matureTime, uint256 _rfcId) external onlyMember withdrawApproved nonReentrant {\n        require(_matureTime >= block.timestamp, \"Escrow period not expired.\");  // calculate the 30 days: time of deposit\n                                                                                 // (should be recorded in a state variable, like block.timestamp f the tx)\n                                                                                 // + 30 days (in linux time format)\n                                                                                 // check withdrawApproved to implement part of requirements\n\n        //that's a case requiring a burn feature:\n        //rfcInstanceContract.burnRfCInCaseNotPassed(_rfcId);\n\n        \n        //(bool success, bytes data) = msg.sender.call{value: amount}(\"\");\n\n        // contract balance updated followed by user\n        balance[ address(this)] -= investorAmountToSpecificRfC[_account][_rfcId];\n        balance[_account] += investorAmountToSpecificRfC[_account][_rfcId];\n        //require(success, \"Transfer failed.\");\n\n        emit InvestmentRedeemed(_account, _rfcId, investorAmountToSpecificRfC[_account][_rfcId]);\n    }\n\n    function depositPayAccessContent(uint256 _rfcId, uint256 _amount) external onlyMember nonReentrant {\n        //as investors have shares to a content they produce (that they can eventually sell to other users,\n        //  but that will change their status back ti users, or RfCIdInvestor = false), they \n        //  will call another function to access content, if needed, that encodes the logic of their shares\n        //  in the content, etc. \n        require(membershipStatus[msg.sender] == true, \"Any protocol's user must first make a safe deposit of 0.1 ether\");\n        require(investorAmountToSpecificRfC[msg.sender][_rfcId] == 0, \"The user has already invested in this RfC, then he/she/they don't need an to pay to access the content\");\n\n        //should return a token that gives them all data/authorization to access content\n        //mintContentAccess();\n    } \n\n\n    /** Interactions with RequestForContent contract: **/\n\n    // likely replaced by the Counter contract inherited from openzeppelin\n    // function getRfCid(address _investorOrCP) external returns (uint256){\n        \n    //     return rfcInstanceContract.getRfCTracker();\n    // }\n\n    function setRfCIdFund(uint256 _id) public {\n        //sum of all investors' deposits for a certain RfC\n        \n    }\n\n    function commitFundsToRfC(address _user, uint256 _rfcId, address _rfcTokenAddr, uint256 _amount) internal returns (uint256) {\n        // way to lock/commit an amount to a specific NFT\n\n        // make sure the user authorize a certain amount \n        investorAmountToSpecificRfC[_user][_rfcId] -= _amount;\n        \n        //sum of all funds allocated to an RfC token:\n        rfcNFTTokenIdFundAmount[_rfcTokenAddr][_rfcId] += _amount;\n\n        //calculate unlockdate:\n        maturationTime[_user] = memberSafeDepositStartTime[_user] + 60 days + MIN_ESCROW_TIME;  // investing in a content production lead to vest investmenet on 3 months\n                                                                                                    // ideally, part of it will be unlocked progressively on the timeline of the content delivery\n\n        emit FundsCommittedToRfC(_user, _rfcId, maturationTime[_user]);\n\n        return rfcNFTTokenIdFundAmount[_rfcTokenAddr][_rfcId];\n    }\n\n    //Default functions in case of accidental crypto sent to the contract => revert => INCLUDE THE revert() logic in\n    //  the deposit function (eg. if an argument is missing, revert:   require(RfCid, etc. ))\n\n    // fallback() external payable {\n    //     //address(this).send(msg.value);\n    //     revert();\n    // }\n\n    function getFMContractAddr() external view onlyFMProxy returns(address) {\n        return address(this);\n    }\n\n\n}",
  "sourcePath": "/home/w31rdm4ch1n3s/ConsenSys_dev_bootcamp/final_project/consensys_bootcamp_2021_minimum_viable_final_project/contracts/FundsManager.sol",
  "compiler": {
    "name": "solc",
    "version": "0.8.0+commit.c7dfd78e.Emscripten.clang"
  },
  "schemaVersion": "3.4.4",
  "updatedAt": "2022-02-04T20:03:38.857Z",
  "networkType": "ethereum",
  "devdoc": {
    "kind": "dev",
    "methods": {
      "createRole(bytes32,bytes32)": {
        "details": "can also be used to update admin of existing role",
        "params": {
          "adminRole": "the admin role id for `role`",
          "role": "the new role id"
        }
      },
      "getRoleAdmin(bytes32)": {
        "details": "Returns the admin role that controls `role`. See {grantRole} and {revokeRole}. To change a role's admin, use {_setRoleAdmin}."
      },
      "getRoleMember(bytes32,uint256)": {
        "details": "Returns one of the accounts that have `role`. `index` must be a value between 0 and {getRoleMemberCount}, non-inclusive. Role bearers are not sorted in any particular way, and their ordering may change at any point. WARNING: When using {getRoleMember} and {getRoleMemberCount}, make sure you perform all queries on the same block. See the following https://forum.openzeppelin.com/t/iterating-over-elements-on-enumerableset-in-openzeppelin-contracts/2296[forum post] for more information."
      },
      "getRoleMemberCount(bytes32)": {
        "details": "Returns the number of accounts that have `role`. Can be used together with {getRoleMember} to enumerate all bearers of a role."
      },
      "grantFMProxy(address)": {
        "params": {
          "fmProxy": "new FM contract instance address / FMProxy"
        }
      },
      "grantGovernor(address)": {
        "params": {
          "governor": "new governor"
        }
      },
      "grantGuardian(address)": {
        "params": {
          "guardian": "new guardian"
        }
      },
      "grantMember(address)": {
        "params": {
          "member": "new member"
        }
      },
      "grantMinter(address)": {
        "params": {
          "minter": "new minter"
        }
      },
      "grantRole(bytes32,address)": {
        "details": "Grants `role` to `account`. If `account` had not been already granted `role`, emits a {RoleGranted} event. Requirements: - the caller must have ``role``'s admin role."
      },
      "hasRole(bytes32,address)": {
        "details": "Returns `true` if `account` has been granted `role`."
      },
      "isFMProxy(address)": {
        "params": {
          "_address": "address to check"
        },
        "returns": {
          "_0": "true _address is a controller"
        }
      },
      "isGovernor(address)": {
        "params": {
          "_address": "address to check"
        },
        "returns": {
          "_0": "true _address is a governor"
        }
      },
      "isGuardian(address)": {
        "params": {
          "_address": "address to check"
        },
        "returns": {
          "_0": "true _address is a guardian"
        }
      },
      "isMember(address)": {
        "params": {
          "_address": "address to check"
        },
        "returns": {
          "_0": "true _address is a member"
        }
      },
      "isMinter(address)": {
        "params": {
          "_address": "address to check"
        },
        "returns": {
          "_0": "true _address is a minter"
        }
      },
      "renounceRole(bytes32,address)": {
        "details": "Revokes `role` from the calling account. Roles are often managed via {grantRole} and {revokeRole}: this function's purpose is to provide a mechanism for accounts to lose their privileges if they are compromised (such as when a trusted device is misplaced). If the calling account had been revoked `role`, emits a {RoleRevoked} event. Requirements: - the caller must be `account`."
      },
      "revokeFMProxy(address)": {
        "params": {
          "fmProxy": "ex fmProxy"
        }
      },
      "revokeGovernor(address)": {
        "params": {
          "governor": "ex governor"
        }
      },
      "revokeGuardian(address)": {
        "params": {
          "guardian": "ex guardian"
        }
      },
      "revokeMember(address)": {
        "params": {
          "member": "ex member"
        }
      },
      "revokeMinter(address)": {
        "params": {
          "minter": "ex minter"
        }
      },
      "revokeOverride(bytes32,address)": {
        "params": {
          "account": "the address to revoke the role from",
          "role": "the role to revoke"
        }
      },
      "revokeRole(bytes32,address)": {
        "details": "Revokes `role` from `account`. If `account` had been granted `role`, emits a {RoleRevoked} event. Requirements: - the caller must have ``role``'s admin role."
      },
      "supportsInterface(bytes4)": {
        "details": "See {IERC165-supportsInterface}."
      }
    },
    "version": 1
  },
  "userdoc": {
    "kind": "user",
    "methods": {
      "createRole(bytes32,bytes32)": {
        "notice": "creates a new role to be maintained"
      },
      "grantFMProxy(address)": {
        "notice": "grants Funds Manager Proxy role to address"
      },
      "grantGovernor(address)": {
        "notice": "grants governor role to address"
      },
      "grantGuardian(address)": {
        "notice": "grants guardian role to address"
      },
      "grantMember(address)": {
        "notice": "grants member role to address"
      },
      "grantMinter(address)": {
        "notice": "grants minter role to address"
      },
      "isFMProxy(address)": {
        "notice": "checks if address is a FMProxy"
      },
      "isGovernor(address)": {
        "notice": "checks if address is a governor"
      },
      "isGuardian(address)": {
        "notice": "checks if address is a guardian"
      },
      "isMember(address)": {
        "notice": "checks if address is a burmemberner"
      },
      "isMinter(address)": {
        "notice": "checks if address is a minter"
      },
      "revokeFMProxy(address)": {
        "notice": "revokes FMProxy role from address of currently used instance in the protocol"
      },
      "revokeGovernor(address)": {
        "notice": "revokes governor role from address"
      },
      "revokeGuardian(address)": {
        "notice": "revokes guardian role from address"
      },
      "revokeMember(address)": {
        "notice": "revokes member role from address"
      },
      "revokeMinter(address)": {
        "notice": "revokes minter role from address"
      },
      "revokeOverride(bytes32,address)": {
        "notice": "revokes a role from address"
      },
      "setRfCIdFund(uint256)": {
        "notice": "Interactions with RequestForContent contract: *"
      }
    },
    "version": 1
  }
}