{
  "contractName": "FundsManager",
  "abi": [
    {
      "inputs": [],
      "stateMutability": "nonpayable",
      "type": "constructor"
    },
    {
      "stateMutability": "payable",
      "type": "fallback",
      "payable": true
    },
    {
      "inputs": [],
      "name": "contractBalance",
      "outputs": [
        {
          "internalType": "uint256",
          "name": "",
          "type": "uint256"
        }
      ],
      "stateMutability": "view",
      "type": "function",
      "constant": true
    },
    {
      "stateMutability": "payable",
      "type": "receive",
      "payable": true
    },
    {
      "inputs": [],
      "name": "getContractBalance",
      "outputs": [
        {
          "internalType": "uint256",
          "name": "",
          "type": "uint256"
        }
      ],
      "stateMutability": "view",
      "type": "function",
      "constant": true
    },
    {
      "inputs": [
        {
          "internalType": "uint256",
          "name": "_x",
          "type": "uint256"
        }
      ],
      "name": "setContractBalance",
      "outputs": [],
      "stateMutability": "nonpayable",
      "type": "function"
    }
  ],
  "bytecode": "0x60806040526002600160006101000a81548160ff02191690836002811115610050577f4e487b7100000000000000000000000000000000000000000000000000000000600052602160045260246000fd5b021790555034801561006157600080fd5b50610285806100716000396000f3fe6080604052600436106100385760003560e01c80633210520e146100aa5780636f9fb98a146100d35780638b7afe2e146100fe576100a8565b366100a8576000600160006101000a81548160ff02191690836002811115610089577f4e487b7100000000000000000000000000000000000000000000000000000000600052602160045260246000fd5b02179055503460008082825461009f91906101a9565b92505081905550005b005b3480156100b657600080fd5b506100d160048036038101906100cc9190610156565b610129565b005b3480156100df57600080fd5b506100e8610133565b6040516100f5919061018e565b60405180910390f35b34801561010a57600080fd5b5061011361013b565b604051610120919061018e565b60405180910390f35b8060008190555050565b600047905090565b60005481565b60008135905061015081610238565b92915050565b60006020828403121561016857600080fd5b600061017684828501610141565b91505092915050565b610188816101ff565b82525050565b60006020820190506101a3600083018461017f565b92915050565b60006101b4826101ff565b91506101bf836101ff565b9250827fffffffffffffffffffffffffffffffffffffffffffffffffffffffffffffffff038211156101f4576101f3610209565b5b828201905092915050565b6000819050919050565b7f4e487b7100000000000000000000000000000000000000000000000000000000600052601160045260246000fd5b610241816101ff565b811461024c57600080fd5b5056fea26469706673582212207bd44b1d4967fef9ec8215d364872b564794b17cd8d4ba74762a0954c4c38f2a64736f6c63430008000033",
  "immutableReferences": {},
  "source": "/*\n    just in its simplest form:\n        - want 1st to manage to send funds from Escrow contract to this contract (nothing fancier);\n\n*/\n\n// SPDX-License-Identifier: GPL-3.0-or-later\npragma solidity ^0.8.0;\n\ncontract FundsManager {\n\n    uint256 public contractBalance;\n\n    //mapping (address => mapping (address => bool)) isInvestor;\n\n    enum ParticipantType {\n        isInvestor,\n        isContentProvider,\n        isUser\n    }\n\n    // value should be assigned in a function called specifcally and only in a context where the caller is an investor (send ether for a RfCid specified as input)\n    ParticipantType userType = ParticipantType.isUser;\n\n    modifier onlyInvestors{\n        require(userType == ParticipantType.isInvestor, \"has to be an investor\");\n        _;\n    }\n\n    constructor()  {\n        //test pre-game (to disappear)\n        \n        //Define roles of the pattern access control\n        // TO DO\n\n        //instantiates the other contracts\n        // TO DO\n\n    }\n\n    //Returns balance of InvestorEscrow contract\n    function getContractBalance() public view returns(uint){\n        return address(this).balance;\n    }\n\n    function manageInvestorsFunds() internal onlyInvestors {\n        //TO DO\n        //the usual require()\n        //add to FundsManager (could have a contract called Fund instantiated for more readability - more to think about)\n\n\n    }\n\n    //function sendInvestors() internal onlyProtocol {}\n\n    //test only\n    function setContractBalance(uint256 _x) public {\n        contractBalance = _x;\n    }\n\n    fallback() external payable {\n        \n    }\n\n    receive() external payable {\n        userType = ParticipantType.isInvestor;\n\n        //increment contract balance\n        contractBalance += msg.value;\n    }\n\n\n}",
  "sourcePath": "/home/w31rdm4ch1n3s/ConsenSys_dev_bootcamp/final_project/tests_repo_consensys_final_project/contracts/FundsManager.sol",
  "compiler": {
    "name": "solc",
    "version": "0.8.0+commit.c7dfd78e.Emscripten.clang"
  },
  "schemaVersion": "3.4.4",
  "updatedAt": "2022-01-09T17:01:43.623Z",
  "networkType": "ethereum",
  "devdoc": {
    "kind": "dev",
    "methods": {},
    "version": 1
  },
  "userdoc": {
    "kind": "user",
    "methods": {},
    "version": 1
  }
}