{
  "contractName": "InvestorsEscrow",
  "abi": [
    {
      "anonymous": false,
      "inputs": [
        {
          "indexed": true,
          "internalType": "address",
          "name": "_from",
          "type": "address"
        },
        {
          "indexed": false,
          "internalType": "uint256",
          "name": "_value",
          "type": "uint256"
        }
      ],
      "name": "Deposit",
      "type": "event"
    },
    {
      "anonymous": false,
      "inputs": [
        {
          "indexed": false,
          "internalType": "address",
          "name": "depositor",
          "type": "address"
        },
        {
          "indexed": false,
          "internalType": "uint256",
          "name": "proposalId",
          "type": "uint256"
        },
        {
          "indexed": false,
          "internalType": "uint256",
          "name": "rfc",
          "type": "uint256"
        }
      ],
      "name": "DepositForProposal",
      "type": "event"
    },
    {
      "anonymous": false,
      "inputs": [
        {
          "indexed": false,
          "internalType": "address",
          "name": "_from",
          "type": "address"
        },
        {
          "indexed": false,
          "internalType": "address",
          "name": "_to",
          "type": "address"
        },
        {
          "indexed": false,
          "internalType": "uint256",
          "name": "_amount",
          "type": "uint256"
        },
        {
          "indexed": false,
          "internalType": "uint256",
          "name": "_matureTime",
          "type": "uint256"
        }
      ],
      "name": "Escrowed",
      "type": "event"
    },
    {
      "anonymous": false,
      "inputs": [
        {
          "indexed": false,
          "internalType": "address",
          "name": "_mintedRfC",
          "type": "address"
        }
      ],
      "name": "Initialized",
      "type": "event"
    },
    {
      "anonymous": false,
      "inputs": [
        {
          "indexed": true,
          "internalType": "bool",
          "name": "allowanceUserValidation",
          "type": "bool"
        },
        {
          "indexed": false,
          "internalType": "uint256",
          "name": "amountDAI",
          "type": "uint256"
        }
      ],
      "name": "ProtocolAllowed",
      "type": "event"
    },
    {
      "inputs": [],
      "name": "MIN_ESCROW_TIME",
      "outputs": [
        {
          "internalType": "uint256",
          "name": "",
          "type": "uint256"
        }
      ],
      "stateMutability": "view",
      "type": "function"
    },
    {
      "inputs": [
        {
          "internalType": "address",
          "name": "",
          "type": "address"
        },
        {
          "internalType": "address",
          "name": "",
          "type": "address"
        }
      ],
      "name": "allowance",
      "outputs": [
        {
          "internalType": "uint256",
          "name": "",
          "type": "uint256"
        }
      ],
      "stateMutability": "view",
      "type": "function"
    },
    {
      "inputs": [],
      "name": "amount",
      "outputs": [
        {
          "internalType": "uint256",
          "name": "",
          "type": "uint256"
        }
      ],
      "stateMutability": "view",
      "type": "function"
    },
    {
      "inputs": [
        {
          "internalType": "address",
          "name": "",
          "type": "address"
        }
      ],
      "name": "balance",
      "outputs": [
        {
          "internalType": "uint256",
          "name": "",
          "type": "uint256"
        }
      ],
      "stateMutability": "view",
      "type": "function"
    },
    {
      "inputs": [
        {
          "internalType": "address",
          "name": "",
          "type": "address"
        }
      ],
      "name": "balanceInvestorsPool",
      "outputs": [
        {
          "internalType": "uint256",
          "name": "",
          "type": "uint256"
        }
      ],
      "stateMutability": "view",
      "type": "function"
    },
    {
      "inputs": [
        {
          "internalType": "address",
          "name": "",
          "type": "address"
        }
      ],
      "name": "isInvestor",
      "outputs": [
        {
          "internalType": "bool",
          "name": "",
          "type": "bool"
        }
      ],
      "stateMutability": "view",
      "type": "function"
    },
    {
      "inputs": [],
      "name": "participant",
      "outputs": [
        {
          "internalType": "address",
          "name": "",
          "type": "address"
        }
      ],
      "stateMutability": "view",
      "type": "function"
    },
    {
      "inputs": [
        {
          "internalType": "address",
          "name": "",
          "type": "address"
        }
      ],
      "name": "protocolUserWithdrawAuthorization",
      "outputs": [
        {
          "internalType": "bool",
          "name": "",
          "type": "bool"
        }
      ],
      "stateMutability": "view",
      "type": "function"
    },
    {
      "inputs": [],
      "name": "rfcId",
      "outputs": [
        {
          "internalType": "uint256",
          "name": "",
          "type": "uint256"
        }
      ],
      "stateMutability": "view",
      "type": "function"
    },
    {
      "inputs": [
        {
          "internalType": "address",
          "name": "",
          "type": "address"
        }
      ],
      "name": "userHasADeposit",
      "outputs": [
        {
          "internalType": "bool",
          "name": "",
          "type": "bool"
        }
      ],
      "stateMutability": "view",
      "type": "function"
    },
    {
      "inputs": [
        {
          "internalType": "address",
          "name": "",
          "type": "address"
        }
      ],
      "name": "userProtocolWithdrawAuthorization",
      "outputs": [
        {
          "internalType": "bool",
          "name": "",
          "type": "bool"
        }
      ],
      "stateMutability": "view",
      "type": "function"
    },
    {
      "inputs": [],
      "name": "deposit",
      "outputs": [],
      "stateMutability": "payable",
      "type": "function"
    }
  ],
  "bytecode": "0x60a060405262278d0060809081525034801561001a57600080fd5b50608051610822610036600039600061030f01526108226000f3fe6080604052600436106100a75760003560e01c8063aa8c217c11610064578063aa8c217c146101e4578063b6dfc2051461020f578063cee2a9cf1461024c578063d0e30db014610289578063dd62ed3e14610293578063e3d670d7146102d0576100a7565b806312580d80146100ac57806337a6d42b146100d757806346ed37351461010257806349ef18f81461013f57806373eb21c51461017c578063a11f2bb6146101a7575b600080fd5b3480156100b857600080fd5b506100c161030d565b6040516100ce9190610579565b60405180910390f35b3480156100e357600080fd5b506100ec610331565b6040516100f991906105d5565b60405180910390f35b34801561010e57600080fd5b5061012960048036038101906101249190610621565b610357565b6040516101369190610669565b60405180910390f35b34801561014b57600080fd5b5061016660048036038101906101619190610621565b610377565b6040516101739190610669565b60405180910390f35b34801561018857600080fd5b50610191610397565b60405161019e9190610579565b60405180910390f35b3480156101b357600080fd5b506101ce60048036038101906101c99190610621565b61039d565b6040516101db9190610669565b60405180910390f35b3480156101f057600080fd5b506101f96103bd565b6040516102069190610579565b60405180910390f35b34801561021b57600080fd5b5061023660048036038101906102319190610621565b6103c3565b6040516102439190610579565b60405180910390f35b34801561025857600080fd5b50610273600480360381019061026e9190610621565b6103db565b6040516102809190610669565b60405180910390f35b6102916103fb565b005b34801561029f57600080fd5b506102ba60048036038101906102b59190610684565b610523565b6040516102c79190610579565b60405180910390f35b3480156102dc57600080fd5b506102f760048036038101906102f29190610621565b610548565b6040516103049190610579565b60405180910390f35b7f000000000000000000000000000000000000000000000000000000000000000081565b600160009054906101000a900473ffffffffffffffffffffffffffffffffffffffff1681565b600c6020528060005260406000206000915054906101000a900460ff1681565b600b6020528060005260406000206000915054906101000a900460ff1681565b600a5481565b600d6020528060005260406000206000915054906101000a900460ff1681565b60085481565b60046020528060005260406000206000915090505481565b60096020528060005260406000206000915054906101000a900460ff1681565b34600360003373ffffffffffffffffffffffffffffffffffffffff1673ffffffffffffffffffffffffffffffffffffffff16815260200190815260200160002054101561047d576040517f08c379a000000000000000000000000000000000000000000000000000000000815260040161047490610747565b60405180910390fd5b34600360003073ffffffffffffffffffffffffffffffffffffffff1673ffffffffffffffffffffffffffffffffffffffff16815260200190815260200160002060008282546104cc9190610796565b925050819055503373ffffffffffffffffffffffffffffffffffffffff167fe1fffcc4923d04b559f4d29a8bfc6cda04eb5b0d3c460751c2402c5c5cc9109c346040516105199190610579565b60405180910390a2565b6002602052816000526040600020602052806000526040600020600091509150505481565b60036020528060005260406000206000915090505481565b6000819050919050565b61057381610560565b82525050565b600060208201905061058e600083018461056a565b92915050565b600073ffffffffffffffffffffffffffffffffffffffff82169050919050565b60006105bf82610594565b9050919050565b6105cf816105b4565b82525050565b60006020820190506105ea60008301846105c6565b92915050565b600080fd5b6105fe816105b4565b811461060957600080fd5b50565b60008135905061061b816105f5565b92915050565b600060208284031215610637576106366105f0565b5b60006106458482850161060c565b91505092915050565b60008115159050919050565b6106638161064e565b82525050565b600060208201905061067e600083018461065a565b92915050565b6000806040838503121561069b5761069a6105f0565b5b60006106a98582860161060c565b92505060206106ba8582860161060c565b9150509250929050565b600082825260208201905092915050565b7f7573657220646f65736e2774206861766520656d6f7567682066756e6473203d60008201527f3e20726576657274000000000000000000000000000000000000000000000000602082015250565b60006107316028836106c4565b915061073c826106d5565b604082019050919050565b6000602082019050818103600083015261076081610724565b9050919050565b7f4e487b7100000000000000000000000000000000000000000000000000000000600052601160045260246000fd5b60006107a182610560565b91506107ac83610560565b9250827fffffffffffffffffffffffffffffffffffffffffffffffffffffffffffffffff038211156107e1576107e0610767565b5b82820190509291505056fea2646970667358221220e00d43c6900d02a9bc42c22ffd67af6512918c6964df63e627b322fa219c384164736f6c634300080b0033",
  "immutableReferences": {
    "4": [
      {
        "length": 32,
        "start": 783
      }
    ]
  },
  "source": "//in an attempt to refactor FundsManager code in a way that should help understanding it, preventing impacts in case of any bugs by astracting away\n// the logic of the Protocol controlled value from the logic with which users can interact directly\n\n// SPDX-License-Identifier: GPL-3.0-or-later\npragma solidity ^0.8.0;\n\n//import '@openzeppelin/contracts/token/ERC20/IERC20.sol';\n//import '@openzeppelin/contracts/token/ERC20/utils/SafeERC20.sol';\n\n\ncontract InvestorsEscrow {\n    //>>as I will limit my use in this contract to ether, maybe it is not useful - but surely it will for the core contracts such as FundsManager\n    //using SafeERC20 for IERC20;\n    \n    /*>>>>> MAKING SURE THIS ESCROW CONTRACT CALLS AND IS CALLED ONLY BY THE ACTUAL INSTANCES OF OUR PROTOCOL's CONTRACT:\n            address public immutable FundsManagerCore = \"{address of the contract acting as PCV and all content related >>funding<< logic}\"; \n     <<<<<<\n    */\n\n    //a hold (to prevent abuses, spamming the CPs/participants) of 30 days on every deposit that initiates \n    // a proposal (on which can be made some yield profit)\n    //  => won't affect users wanting to access content (and pay for it).\n    \n    // This constant is used for the proposal phase Investor transaction (another is used with a different time value, part of the RfC itself, for all other txs). \n    //  How do you target those transactions?:\n    //  - RfCProposal\n    //  - RfCCommitFunds (like a staking contract where investors stake some funds to signal both their interest in the RfC and the intensity of their interest\n    //      with the amount they are willing to commit - one caveat that I want to prevent is that the shares in the RfC are eventually maipulable or\n    //      subject to be defined by monopoly power. So I decide to define the shares on a content a la \"quadratic voting\")\n    //  - ...\n    uint256 public immutable MIN_ESCROW_TIME = 30 days; //check for how to set a duration/expiration time, etc.\n\n    // RequestForContent public RfC;\n    uint256 RfCId;\n\n    //a value that says when a RfC is passes the proposal round and is now in \"processing\" (by a CP) status:\n    //  => this value should be returned to this contract by the contract implementing the proposal logic\n    // bool public hasPassed = false;\n\n    address public participant;\n\n    //get an investor the authorization to the protocol to use a certain amount \n    // (the amount the user-investor sent) \n    mapping(address => mapping(address => uint)) public allowance;\n\n    mapping (address => uint256) public balance;\n\n    //just want to be able to have a get function to query balance investors related to a RfC ID for the user \n    //  to have access to this information => could be a uint returned before funds are pulled by FundsManager\n    //  contract for a specific RfC id\n    mapping (address => uint256) public balanceInvestorsPool;\n\n    uint256 investorFundsPooled;\n\n    uint256 investorPoolShare;\n\n    uint256 PoolId; // which will be the same as an RfCId, so choose one of those \n\n    uint256 public amount;\n\n    mapping (address => bool) public isInvestor;\n\n    //initialized only if RfC is passed\n    struct RfCBalance {\n        uint256 RfCId; \n        uint256 amountRfC;\n        uint256 time;       //not sure needed => would record the amount of funding for an RfC at a given time\n    }\n\n    // RfC proposition exists under the form of a dynamic array built through the frontend. It is not a token minted as I don't want individuals\n    //  to have to pay for minting a proposal - think of my use case for a \"crowdjournalism\" application.\n    //      => maybe for now, keep the generic aspect, and just mint the token... (you can think of the specific use case of crowdjournalism for\n    //      the next iteration)\n    //RfC public rfc;\n    uint256 public rfcId;\n\n    //specific to this contract is the matureTime - if in the context of a proposition, then matureTime should be of RfC proposal to CPs phase\n    // minimum/standard (for now) duration + a hold (to prevent abuses, spamming the CPs/participants) of 30 days hold on it (on which can be made some yield profit - TBD if \n    // those go to the procotol only, or some are given back to the user initiating a proposal) => matureTime moved to RfCProposal contract.\n    \n\n    mapping (address => bool) public userHasADeposit;\n\n    //keep track of the authorization by users for the protocol to uise their funds\n    mapping (address => bool) public userProtocolWithdrawAuthorization;\n\n    //\"Protocol allowing\" users to withdraw their funds, according to different conditions to be satisfied, depending on the role the user is playing at a certain \n    // time and under certain conditions => the controls are hendled on the Protocol contracts side, not here. Here, we have a state variable (that is set\n    // on the protocol side) from which we can infer an authorization to withdraw funds for a user\n    mapping (address => bool) public protocolUserWithdrawAuthorization;\n\n    //events\n\n    event Deposit(address indexed _from, uint _value);\n    event Escrowed(address _from, address _to, uint256 _amount, uint256 _matureTime);\n\n    event ProtocolAllowed(bool indexed allowanceUserValidation, uint amountDAI);\n\n    event Initialized(address _mintedRfC);\n\n    event DepositForProposal(address depositor, uint256 proposalId, uint256 rfc);\n    /*\n    constructor(){\n        //Check Permissions pattern in the FEI protocol code\n        _setContractAdminRole(keccak256(\"INVESTORESCROW_ADMIN_ROLE\"));  // a multisg-wallet with 1 3rd \n                                                                        // controlled by previous users of the protocol\n    }\n    */\n\n    //receive funds from users wanting to particpate to the content market making protocol \n    // => likely better to have a specific deposit function for each\n    //  investor's use case (that then they can call from the web UI, making sure they do \n    //  knowingly sen their funds for a specific action in the protocol)\n    \n    function deposit() public payable {\n        //require(msg.sender == WETH, \"only Eth or Weth fallback to eth contract\"); //WETH works for us as Uniswap uses it anyway for our swap\n        //userHasADeposit[msg.sender] = true;\n       \n\n        require(balance[msg.sender] >= msg.value, \"user doesn't have emough funds => revert\");\n\n        balance[address(this)] += msg.value;\n        \n        //call a function defined either in this contract as \"internal\" call, or in the FundsManager contract\n        //_lockFunds(msg.sender);\n\n        emit Deposit(msg.sender, msg.value);\n        \n        //emit Escrowed(msg.sender, adress(this), msg.value, _matureTime);\n    }\n    \n  \n\n    // //function where users give approval to the FundsManager contract to withdraw their funds from this escrow\n    // // contract => spender = FundsManager contract address on your testnet - make sure it can only authorizes\n    // // the actual instance of your contract (through authorization roles pattern defined in the AccessControl \n    // // contract)\n    // function _approve(address owner/*,address spender, uint256 value*/) private {\n\n    //     //value = msg.value;\n\n    //     //owner is the role defined by us having rights on this contract (admin of the escrow for pausing emergency,\n    //     //  or emergency transfer of the funds, ..? => it should be a multi-sig contract, where at least one of\n    //     //  the required key is another contract controlled by some of the investors (a few of them\n    //     //  are assigned randomly this role, done each time for a new RfC => TO DO: next iteration, where I'll go deeper\n    //     // in multi-sig control over EOA and contracts, and how to compose with it))\n\n    //     require(owner == INVESTORESCROW_ADMIN_ROLE);    // make sure only FundsManager can be allowed to \n    //                                                     // manage the funds.\n\n    //     //owner is a multi-sig contract, that can send the funds to the spender (see where the value is accessed\n    //     //  maybe again in FundsManager), our FundsManager contract:\n    //     // spender is actually assigned inside the FundsManager contract as address(this), where this function \n    //     //  is defined:\n    //     _safeTransfer(owner, value);\n        \n    //     setApprovalForAll(operator, true);\n    // }\n\n    // /** \n    // function transferFrom(address from, address to, uint value) external returns (bool) {\n    //     if (allowance[from][msg.sender] != uint(-1)) {\n    //         allowance[from][msg.sender] = allowance[from][msg.sender].sub(value);\n    //     }\n    //     _transfer(from, to, value);\n    //     return true;\n    // }\n    // **/\n\n    // function lockFunds(address investor, uint256 _timeMaturity) internal {\n    //     //Check pattern usually used for this purpose (as a resting time before actual unstaking happeing for instance)\n    // }\n\n    // function depositForRfCProposal(RfCProposal _rfcProposal,uint256 _RfCProposalID) public {\n    //     require(isInitiated[_RfCProposalID] != true, \"Is already in proposal phase\");    // might add the case where an exact same proposal \n    //                                                                                     //  (so all proposal would be kept in a special RfCPrposalEscrow contract)\n    //                                                                                     // can't be reproposed as is => give it some thinking....?\n    //     emit DepositForProposal(msg.sender, proposalId, rfcId);\n    // }\n\n    // //function in which is called (or implemented in) a quadratic voting function + assign Investor role to the user + add sent amount to escrow balance\n    // // to be withdrawn by the Protocol FundsManager core contract\n    // //>>>>>>>>FOR NOW, V2\n    // function depositForRfCInvestorValidation() public payable returns (hasPassed, RfCId){\n    //     //TO DO (V2, or once you've done the minimal mechanics)\n        \n    //     //require\n\n    //     //set role\n    //     //isInvestor[msg.sender] = true;\n\n    //     //set authorization for FundsManager contract to withdraw the funds\n\n    //         // => Once added to the investor Pool, in FundsManager contract, it triggers a call to mint a (dynamic) NFT representing the share of the investor in the pool\n\n    //     // \n\n    // }\n\n    // function depositPayAccessContent(uint256 _RfCId, uint256 _amount) external {\n    //     //as investors have shares to a content they produce (that they can eventually sell to other users,\n    //     //  but that will change their status back ti users, or RfCIdInvestor = false), they \n    //     //  will call another function to access content, if needed, that encodes the logic of their shares\n    //     //  in the content, etc. \n    //     require(msg.sender != Investor, \"investors in this RfC should access this content through their dashboard\");\n\n    //     //should return a token that gives them all data/authorization to access content\n    // } \n\n    // //Specific to CPs answering to a proposal, to manifest their interest in producing/creating this content.\n    // // It interacts with a reverse auction contract that\n    // //  itself is meant to achieve in the best (trustless and efficient trade-off acceptable) possible way \n    // //  the coordination between investors and CPs.\n    // //      => solve this pb now: how investors and CPs \"agree\"/coordinate on the funding amount \n    // //  for a given RfC?:\n\n    // /** \n    //     >>>>>>>>\n    //     IMPORTANT TO NOTE: AT THIS POINT, I HAVE NOT FORMULATED ANYTHING THAT WOULD RULE OUT FROM MY\n    //     PROPOSAL ROUND AND THE QUADRATIC VOTING  A SIMPLE SYBIL ATTACK (multiple account owned by one entity)\n    //         => it would require something like Proof of humanity od a DID service.\n    //     <<<<<<<< \n        \n    //     - 1 possibility (complex I think... as I don't think, of any other way than doing it through \n    //     some sort of zk-proof scheme -> could search if \"simple\" implementation of that for a vote on the web?): \n    //         -> a sort of \"silent reverse auction\" where the CPs don't know the max amount investors are ready \n    //         to commit for one RfC, and the investors don't know the min amount for which CPs are ready to accept \n    //         to commit to deliver the Content/Product.\n    //             => what would be precisely this mechanism?\n    //                 - each participants commits a max investment amount they commit to put under escrow (but don't do yet so it stays secret, but also\n    //                     that have to force them to then commit for the minEscrowTime if the outcome is a miss);\n    //                 - each willing Content Provider commits a min amount for which they would accept to create and distribute/make accessible the content;\n    //                     => an auction mechanism starts with a minimum amount publicly defined in the RfCProposal where investors can \"enter\" multiple times/\n    //                     signal their interest (canceling the previous bid with the highest at a given time - they have the possibility to\n    //                     predetermine their maximum and so the auction goes for the remaining investors and the CPs), and the CPs can choose to commit\n    //                     to an amount, which in our proptocol binds them to deliver the content and be rewarded for it, or being punished by losing part or all of their \n    //                     escrowed funds.  \n    //             => how to implement such a mechanism? (cf. https://eprint.iacr.org/2018/704.pdf for most of the elements defined fromally in pseudo-code)\n\n    //                 => I actually might be able to implement a quadratic voting and secret auction as I want with the AztecProtocol SDK:\n    //                 https://docs.aztecprotocol.com/#/Introduction\n\n    //                 Now maybe I'll keep that part for the iteration 2.\n    //                 It could mean 2 things:\n    //                     - either I entirely skip this RfC proposal validation process/round, and on a very simplified set of assumptions (about participants, \n    //                     from errors to malevolent behaviors, and about decentralized coordination), and I go straight to RfC to be minted (which will also \n    //                     imply that investors are comitting the same amount - or that kind of simplification);\n    //                     - or I ignore the private/zk-proof-commit/secret required for the mechanims to actually work in the wild (and not be gamed by CPs observing \n    //                     investors transactions and same for investors). In this case I just keep the quadratic voting + the auction (described above) implementation.\n    //                         => it would remain an interesting challenge for me...\n\n    //                 => further elaborating on the auction structure for the CPs: I would choose a reverse Vickerey auction, also called \"second-price auctions\",\n    //                 because that would induce in the auction a configuration that makes CPs more careful about trying to accept at the lowest possible value\n    //                 a commit to RfC. Why? Because, in the end it is in the overall interest to have a Content DELIVERED, and one of the thing that could happen\n    //                 is to have CPs to be incentivized at the proposal moment to accept low funding resulting in low quality of content or excessive rate\n    //                 of undeilvered contents. So second lowest commit will win. \n\n    // **/\n\n    // function getRfCStatus(RfCId) public view returns(bool) {\n    //     _RfCStatus(RfCId);\n    // }\n    // function depositForRfCCPValidation() public payable {\n\n    // }\n\n    // //an authorization function that makes users accepting the protocol to use their funds => handled through metamask and web3.js => check if one exists in\n    // // ERC1155 standard\n    // function userProtocolFundsAllowance(address _account, uint _amount) public {\n        \n    //     //user allows protocol to use their deposit amount\n    //     userProtocolWithdrawAuthorization[_account] = true;\n\n    //     emit ProtocolAllowed(_account, balance[_account]);\n    // }\n\n    // //withdraw their funds\n\n    // //in case those funds were allocated to an RfC that did not pass the proposition phase (under this layer, so you can ignore this logic in this contract\n    // //   - as the funds are always pooled, it eventually always imply an NFT tracking the pool share of an account (and possibly under the hood \n    // // the cToken interactions, etc. - but abstracted away from this contract):\n    \n    // /**\n    // function withdrawFromEscrow(address _account, uint256 _amount) external {\n    //     require(= msg.sender, \"Must own token to claim underlying Eth\");\n\n    //     (uint256 amount, uint256 matureTime) = escrowNFT.tokenDetails(_tokenId);\n    //     require(matureTime <= block.timestamp, \"Escrow period not expired.\");\n\n    //     escrowNFT.burn(_tokenId);\n\n    //     (bool success, ) = msg.sender.call{value: amount}(\"\");\n\n    //     require(success, \"Transfer failed.\");\n\n    //     emit Redeemed(msg.sender, amount);\n    // }\n\n    // **/\n\n    // // a protocol authorization previous to any withdraw (above function) to be successfull\n    // //      require(unlock) \n    // //      require(time >= maturationTime)\n    // //      require(_amount <= balance[msg.sender])\n\n    // //ROLE AUTHORIZATION TBD: withraw funds for the protocol FundsManager core contracts \n    // // => specifically its address and no one else (no other ethereum account)\n    // // should be able to withdraw those funds\n\n    // //recieve funds from the Protocol:\n\n    // //functions to read (get()) the balances of the different accounts interacting with this contract, and this contract's balance\n\n\n    // //function giving contract addresses from this contract (used mainly for frontend interaction and debug/tests) => I'll see if I add a way to get\n    // // other core protocol contract addresses\n    // function contractAddress() public view returns (address) {\n    //     return address(this);\n    // }\n\n  \n}",
  "sourcePath": "/home/w31rdm4ch1n3s/ConsenSys_dev_bootcamp/final_project/tests_repo_consensys_final_project/contracts/InvestorEscrow.sol",
  "compiler": {
    "name": "solc",
    "version": "0.8.11+commit.d7f03943.Emscripten.clang"
  },
  "schemaVersion": "3.4.3",
  "updatedAt": "2021-12-20T19:51:18.631Z",
  "devdoc": {
    "kind": "dev",
    "methods": {},
    "version": 1
  },
  "userdoc": {
    "kind": "user",
    "methods": {},
    "version": 1
  }
}