{
  "contractName": "Permissions",
  "abi": [
    {
      "inputs": [],
      "stateMutability": "nonpayable",
      "type": "constructor"
    },
    {
      "anonymous": false,
      "inputs": [
        {
          "indexed": true,
          "internalType": "bytes32",
          "name": "role",
          "type": "bytes32"
        },
        {
          "indexed": true,
          "internalType": "bytes32",
          "name": "previousAdminRole",
          "type": "bytes32"
        },
        {
          "indexed": true,
          "internalType": "bytes32",
          "name": "newAdminRole",
          "type": "bytes32"
        }
      ],
      "name": "RoleAdminChanged",
      "type": "event"
    },
    {
      "anonymous": false,
      "inputs": [
        {
          "indexed": true,
          "internalType": "bytes32",
          "name": "role",
          "type": "bytes32"
        },
        {
          "indexed": true,
          "internalType": "address",
          "name": "account",
          "type": "address"
        },
        {
          "indexed": true,
          "internalType": "address",
          "name": "sender",
          "type": "address"
        }
      ],
      "name": "RoleGranted",
      "type": "event"
    },
    {
      "anonymous": false,
      "inputs": [
        {
          "indexed": true,
          "internalType": "bytes32",
          "name": "role",
          "type": "bytes32"
        },
        {
          "indexed": true,
          "internalType": "address",
          "name": "account",
          "type": "address"
        },
        {
          "indexed": true,
          "internalType": "address",
          "name": "sender",
          "type": "address"
        }
      ],
      "name": "RoleRevoked",
      "type": "event"
    },
    {
      "inputs": [],
      "name": "DEFAULT_ADMIN_ROLE",
      "outputs": [
        {
          "internalType": "bytes32",
          "name": "",
          "type": "bytes32"
        }
      ],
      "stateMutability": "view",
      "type": "function",
      "constant": true
    },
    {
      "inputs": [],
      "name": "FUNDS_MANAGER_ROLE",
      "outputs": [
        {
          "internalType": "bytes32",
          "name": "",
          "type": "bytes32"
        }
      ],
      "stateMutability": "view",
      "type": "function",
      "constant": true
    },
    {
      "inputs": [],
      "name": "GOVERN_ROLE",
      "outputs": [
        {
          "internalType": "bytes32",
          "name": "",
          "type": "bytes32"
        }
      ],
      "stateMutability": "view",
      "type": "function",
      "constant": true
    },
    {
      "inputs": [],
      "name": "GUARDIAN_ROLE",
      "outputs": [
        {
          "internalType": "bytes32",
          "name": "",
          "type": "bytes32"
        }
      ],
      "stateMutability": "view",
      "type": "function",
      "constant": true
    },
    {
      "inputs": [],
      "name": "MEMBER_ROLE",
      "outputs": [
        {
          "internalType": "bytes32",
          "name": "",
          "type": "bytes32"
        }
      ],
      "stateMutability": "view",
      "type": "function",
      "constant": true
    },
    {
      "inputs": [],
      "name": "MINTER_ROLE",
      "outputs": [
        {
          "internalType": "bytes32",
          "name": "",
          "type": "bytes32"
        }
      ],
      "stateMutability": "view",
      "type": "function",
      "constant": true
    },
    {
      "inputs": [
        {
          "internalType": "bytes32",
          "name": "role",
          "type": "bytes32"
        }
      ],
      "name": "getRoleAdmin",
      "outputs": [
        {
          "internalType": "bytes32",
          "name": "",
          "type": "bytes32"
        }
      ],
      "stateMutability": "view",
      "type": "function",
      "constant": true
    },
    {
      "inputs": [
        {
          "internalType": "bytes32",
          "name": "role",
          "type": "bytes32"
        },
        {
          "internalType": "uint256",
          "name": "index",
          "type": "uint256"
        }
      ],
      "name": "getRoleMember",
      "outputs": [
        {
          "internalType": "address",
          "name": "",
          "type": "address"
        }
      ],
      "stateMutability": "view",
      "type": "function",
      "constant": true
    },
    {
      "inputs": [
        {
          "internalType": "bytes32",
          "name": "role",
          "type": "bytes32"
        }
      ],
      "name": "getRoleMemberCount",
      "outputs": [
        {
          "internalType": "uint256",
          "name": "",
          "type": "uint256"
        }
      ],
      "stateMutability": "view",
      "type": "function",
      "constant": true
    },
    {
      "inputs": [
        {
          "internalType": "bytes32",
          "name": "role",
          "type": "bytes32"
        },
        {
          "internalType": "address",
          "name": "account",
          "type": "address"
        }
      ],
      "name": "grantRole",
      "outputs": [],
      "stateMutability": "nonpayable",
      "type": "function"
    },
    {
      "inputs": [
        {
          "internalType": "bytes32",
          "name": "role",
          "type": "bytes32"
        },
        {
          "internalType": "address",
          "name": "account",
          "type": "address"
        }
      ],
      "name": "hasRole",
      "outputs": [
        {
          "internalType": "bool",
          "name": "",
          "type": "bool"
        }
      ],
      "stateMutability": "view",
      "type": "function",
      "constant": true
    },
    {
      "inputs": [
        {
          "internalType": "bytes32",
          "name": "role",
          "type": "bytes32"
        },
        {
          "internalType": "address",
          "name": "account",
          "type": "address"
        }
      ],
      "name": "renounceRole",
      "outputs": [],
      "stateMutability": "nonpayable",
      "type": "function"
    },
    {
      "inputs": [
        {
          "internalType": "bytes32",
          "name": "role",
          "type": "bytes32"
        },
        {
          "internalType": "address",
          "name": "account",
          "type": "address"
        }
      ],
      "name": "revokeRole",
      "outputs": [],
      "stateMutability": "nonpayable",
      "type": "function"
    },
    {
      "inputs": [
        {
          "internalType": "bytes4",
          "name": "interfaceId",
          "type": "bytes4"
        }
      ],
      "name": "supportsInterface",
      "outputs": [
        {
          "internalType": "bool",
          "name": "",
          "type": "bool"
        }
      ],
      "stateMutability": "view",
      "type": "function",
      "constant": true
    },
    {
      "inputs": [
        {
          "internalType": "bytes32",
          "name": "role",
          "type": "bytes32"
        },
        {
          "internalType": "bytes32",
          "name": "adminRole",
          "type": "bytes32"
        }
      ],
      "name": "createRole",
      "outputs": [],
      "stateMutability": "nonpayable",
      "type": "function"
    },
    {
      "inputs": [
        {
          "internalType": "address",
          "name": "minter",
          "type": "address"
        }
      ],
      "name": "grantMinter",
      "outputs": [],
      "stateMutability": "nonpayable",
      "type": "function"
    },
    {
      "inputs": [
        {
          "internalType": "address",
          "name": "member",
          "type": "address"
        }
      ],
      "name": "grantMember",
      "outputs": [],
      "stateMutability": "nonpayable",
      "type": "function"
    },
    {
      "inputs": [
        {
          "internalType": "address",
          "name": "fmProxy",
          "type": "address"
        }
      ],
      "name": "grantFMProxy",
      "outputs": [],
      "stateMutability": "nonpayable",
      "type": "function"
    },
    {
      "inputs": [
        {
          "internalType": "address",
          "name": "governor",
          "type": "address"
        }
      ],
      "name": "grantGovernor",
      "outputs": [],
      "stateMutability": "nonpayable",
      "type": "function"
    },
    {
      "inputs": [
        {
          "internalType": "address",
          "name": "guardian",
          "type": "address"
        }
      ],
      "name": "grantGuardian",
      "outputs": [],
      "stateMutability": "nonpayable",
      "type": "function"
    },
    {
      "inputs": [
        {
          "internalType": "address",
          "name": "minter",
          "type": "address"
        }
      ],
      "name": "revokeMinter",
      "outputs": [],
      "stateMutability": "nonpayable",
      "type": "function"
    },
    {
      "inputs": [
        {
          "internalType": "address",
          "name": "member",
          "type": "address"
        }
      ],
      "name": "revokeMember",
      "outputs": [],
      "stateMutability": "nonpayable",
      "type": "function"
    },
    {
      "inputs": [
        {
          "internalType": "address",
          "name": "fmProxy",
          "type": "address"
        }
      ],
      "name": "revokeFMProxy",
      "outputs": [],
      "stateMutability": "nonpayable",
      "type": "function"
    },
    {
      "inputs": [
        {
          "internalType": "address",
          "name": "governor",
          "type": "address"
        }
      ],
      "name": "revokeGovernor",
      "outputs": [],
      "stateMutability": "nonpayable",
      "type": "function"
    },
    {
      "inputs": [
        {
          "internalType": "address",
          "name": "guardian",
          "type": "address"
        }
      ],
      "name": "revokeGuardian",
      "outputs": [],
      "stateMutability": "nonpayable",
      "type": "function"
    },
    {
      "inputs": [
        {
          "internalType": "bytes32",
          "name": "role",
          "type": "bytes32"
        },
        {
          "internalType": "address",
          "name": "account",
          "type": "address"
        }
      ],
      "name": "revokeOverride",
      "outputs": [],
      "stateMutability": "nonpayable",
      "type": "function"
    },
    {
      "inputs": [
        {
          "internalType": "address",
          "name": "_address",
          "type": "address"
        }
      ],
      "name": "isMinter",
      "outputs": [
        {
          "internalType": "bool",
          "name": "",
          "type": "bool"
        }
      ],
      "stateMutability": "view",
      "type": "function",
      "constant": true
    },
    {
      "inputs": [
        {
          "internalType": "address",
          "name": "_address",
          "type": "address"
        }
      ],
      "name": "isMember",
      "outputs": [
        {
          "internalType": "bool",
          "name": "",
          "type": "bool"
        }
      ],
      "stateMutability": "view",
      "type": "function",
      "constant": true
    },
    {
      "inputs": [
        {
          "internalType": "address",
          "name": "_address",
          "type": "address"
        }
      ],
      "name": "isFMProxy",
      "outputs": [
        {
          "internalType": "bool",
          "name": "",
          "type": "bool"
        }
      ],
      "stateMutability": "view",
      "type": "function",
      "constant": true
    },
    {
      "inputs": [
        {
          "internalType": "address",
          "name": "_address",
          "type": "address"
        }
      ],
      "name": "isGovernor",
      "outputs": [
        {
          "internalType": "bool",
          "name": "",
          "type": "bool"
        }
      ],
      "stateMutability": "view",
      "type": "function",
      "constant": true
    },
    {
      "inputs": [
        {
          "internalType": "address",
          "name": "_address",
          "type": "address"
        }
      ],
      "name": "isGuardian",
      "outputs": [
        {
          "internalType": "bool",
          "name": "",
          "type": "bool"
        }
      ],
      "stateMutability": "view",
      "type": "function",
      "constant": true
    }
  ],
  "bytecode": "0x60806040523480156200001157600080fd5b5062000023306200017160201b60201c565b620000757f9f2df0fed2c77648de5860a4cc508cd0818c85b8b8a1ab4ceeef8d981c8956a67f899bd46557473cb80307a9dabc297131ced39608330a2d29b2d52b660c03923e620001a660201b60201c565b620000c77f829b824e2329e205435d941c9f13baf578548505283d29261236d8e6596d46367f899bd46557473cb80307a9dabc297131ced39608330a2d29b2d52b660c03923e620001a660201b60201c565b620001197f9d98d3d08f0062b192694645e127c98e5f96f3bbec331d061acaac3ace2327f97f899bd46557473cb80307a9dabc297131ced39608330a2d29b2d52b660c03923e620001a660201b60201c565b6200016b7f55435dd261a4b9b3364963f7738a7a662ad9c84396d64be3365284bb7f0a50417f899bd46557473cb80307a9dabc297131ced39608330a2d29b2d52b660c03923e620001a660201b60201c565b620004be565b620001a37f899bd46557473cb80307a9dabc297131ced39608330a2d29b2d52b660c03923e826200020960201b60201c565b50565b6000620001b9836200021f60201b60201c565b905081600080858152602001908152602001600020600101819055508181847fbd79b86ffe0ab8e8776151514217cd7cacd52c909f66475c3af44e129f0b00ff60405160405180910390a4505050565b6200021b82826200023e60201b60201c565b5050565b6000806000838152602001908152602001600020600101549050919050565b6200025582826200028660201b6200100b1760201c565b6200028181600160008581526020019081526020016000206200037760201b620010eb1790919060201c565b505050565b620002988282620003af60201b60201c565b6200037357600160008084815260200190815260200160002060000160008373ffffffffffffffffffffffffffffffffffffffff1673ffffffffffffffffffffffffffffffffffffffff16815260200190815260200160002060006101000a81548160ff021916908315150217905550620003186200041960201b60201c565b73ffffffffffffffffffffffffffffffffffffffff168173ffffffffffffffffffffffffffffffffffffffff16837f2f8788117e7eff1d82e926ec794901d17c78024a50270940304540a733656f0d60405160405180910390a45b5050565b6000620003a7836000018373ffffffffffffffffffffffffffffffffffffffff1660001b6200042160201b60201c565b905092915050565b600080600084815260200190815260200160002060000160008373ffffffffffffffffffffffffffffffffffffffff1673ffffffffffffffffffffffffffffffffffffffff16815260200190815260200160002060009054906101000a900460ff16905092915050565b600033905090565b60006200043583836200049b60201b60201c565b6200049057826000018290806001815401808255809150506001900390600052602060002001600090919091909150558260000180549050836001016000848152602001908152602001600020819055506001905062000495565b600090505b92915050565b600080836001016000848152602001908152602001600020541415905092915050565b6122e680620004ce6000396000f3fe608060405234801561001057600080fd5b50600436106101e55760003560e01c806391d148541161010f578063c4707a83116100a2578063d539139311610071578063d53913931461059c578063d547741f146105ba578063e43581b8146105d6578063e6eb982f14610606576101e5565b8063c4707a8314610502578063c9876d5414610520578063ca15c87314610550578063cfbd488514610580576101e5565b8063a230c524116100de578063a230c5241461046a578063aa271e1a1461049a578063af648c3d146104ca578063bcb9d2dd146104e6576101e5565b806391d14854146103e257806394b1d2c014610412578063a10f469e1461042e578063a217fddf1461044c576101e5565b8063261707fa11610187578063395c62e811610156578063395c62e81461035e5780634c9f93841461037a5780638adf23b9146103965780639010d07c146103b2576101e5565b8063261707fa146102ec5780632f2ff15d1461030857806336568abe1461032457806338b7f44614610340576101e5565b806313e15efc116101c357806313e15efc146102665780632320eabf14610282578063248a9ca31461029e57806324ea54f4146102ce576101e5565b806301ffc9a7146101ea578063080bf57c1461021a5780630c68ba2114610236575b600080fd5b61020460048036038101906101ff9190611b76565b610622565b6040516102119190611ef2565b60405180910390f35b610234600480360381019061022f9190611ac2565b61069c565b005b610250600480360381019061024b9190611a70565b6107b8565b60405161025d9190611ef2565b60405180910390f35b610280600480360381019061027b9190611a70565b6107eb565b005b61029c60048036038101906102979190611a70565b610860565b005b6102b860048036038101906102b39190611a99565b6108d5565b6040516102c59190611f0d565b60405180910390f35b6102d66108f4565b6040516102e39190611f0d565b60405180910390f35b61030660048036038101906103019190611a70565b610918565b005b610322600480360381019061031d9190611ac2565b61098d565b005b61033e60048036038101906103399190611ac2565b6109b6565b005b610348610a39565b6040516103559190611f0d565b60405180910390f35b61037860048036038101906103739190611a70565b610a5d565b005b610394600480360381019061038f9190611afe565b610ad2565b005b6103b060048036038101906103ab9190611a70565b610b28565b005b6103cc60048036038101906103c79190611b3a565b610b9d565b6040516103d99190611ed7565b60405180910390f35b6103fc60048036038101906103f79190611ac2565b610bcc565b6040516104099190611ef2565b60405180910390f35b61042c60048036038101906104279190611a70565b610c36565b005b610436610cab565b6040516104439190611f0d565b60405180910390f35b610454610ccf565b6040516104619190611f0d565b60405180910390f35b610484600480360381019061047f9190611a70565b610cd6565b6040516104919190611ef2565b60405180910390f35b6104b460048036038101906104af9190611a70565b610d09565b6040516104c19190611ef2565b60405180910390f35b6104e460048036038101906104df9190611a70565b610d3c565b005b61050060048036038101906104fb9190611a70565b610db1565b005b61050a610e26565b6040516105179190611f0d565b60405180910390f35b61053a60048036038101906105359190611a70565b610e4a565b6040516105479190611ef2565b60405180910390f35b61056a60048036038101906105659190611a99565b610e7d565b6040516105779190612013565b60405180910390f35b61059a60048036038101906105959190611a70565b610ea1565b005b6105a4610f16565b6040516105b19190611f0d565b60405180910390f35b6105d460048036038101906105cf9190611ac2565b610f3a565b005b6105f060048036038101906105eb9190611a70565b610f63565b6040516105fd9190611ef2565b60405180910390f35b610620600480360381019061061b9190611a70565b610f96565b005b60007f5a05180f000000000000000000000000000000000000000000000000000000007bffffffffffffffffffffffffffffffffffffffffffffffffffffffff1916827bffffffffffffffffffffffffffffffffffffffffffffffffffffffff1916148061069557506106948261111b565b5b9050919050565b6106a5336107b8565b6106e4576040517f08c379a00000000000000000000000000000000000000000000000000000000081526004016106db90611fb3565b60405180910390fd5b7f899bd46557473cb80307a9dabc297131ced39608330a2d29b2d52b660c03923e821415610747576040517f08c379a000000000000000000000000000000000000000000000000000000000815260040161073e90611fd3565b60405180910390fd5b3073ffffffffffffffffffffffffffffffffffffffff1663d547741f83836040518363ffffffff1660e01b8152600401610782929190611f28565b600060405180830381600087803b15801561079c57600080fd5b505af11580156107b0573d6000803e3d6000fd5b505050505050565b60006107e47f55435dd261a4b9b3364963f7738a7a662ad9c84396d64be3365284bb7f0a504183610bcc565b9050919050565b6107f433610f63565b610833576040517f08c379a000000000000000000000000000000000000000000000000000000000815260040161082a90611f93565b60405180910390fd5b61085d7f829b824e2329e205435d941c9f13baf578548505283d29261236d8e6596d46368261098d565b50565b61086933610f63565b6108a8576040517f08c379a000000000000000000000000000000000000000000000000000000000815260040161089f90611f93565b60405180910390fd5b6108d27f9d98d3d08f0062b192694645e127c98e5f96f3bbec331d061acaac3ace2327f98261098d565b50565b6000806000838152602001908152602001600020600101549050919050565b7f55435dd261a4b9b3364963f7738a7a662ad9c84396d64be3365284bb7f0a504181565b61092133610f63565b610960576040517f08c379a000000000000000000000000000000000000000000000000000000000815260040161095790611f93565b60405180910390fd5b61098a7f9f2df0fed2c77648de5860a4cc508cd0818c85b8b8a1ab4ceeef8d981c8956a68261098d565b50565b610996826108d5565b6109a7816109a2611195565b61119d565b6109b1838361123a565b505050565b6109be611195565b73ffffffffffffffffffffffffffffffffffffffff168173ffffffffffffffffffffffffffffffffffffffff1614610a2b576040517f08c379a0000000000000000000000000000000000000000000000000000000008152600401610a2290611ff3565b60405180910390fd5b610a35828261126e565b5050565b7f899bd46557473cb80307a9dabc297131ced39608330a2d29b2d52b660c03923e81565b610a6633610f63565b610aa5576040517f08c379a0000000000000000000000000000000000000000000000000000000008152600401610a9c90611f93565b60405180910390fd5b610acf7f899bd46557473cb80307a9dabc297131ced39608330a2d29b2d52b660c03923e8261098d565b50565b610adb33610f63565b610b1a576040517f08c379a0000000000000000000000000000000000000000000000000000000008152600401610b1190611f93565b60405180910390fd5b610b2482826112a2565b5050565b610b3133610f63565b610b70576040517f08c379a0000000000000000000000000000000000000000000000000000000008152600401610b6790611f93565b60405180910390fd5b610b9a7f829b824e2329e205435d941c9f13baf578548505283d29261236d8e6596d463682610f3a565b50565b6000610bc482600160008681526020019081526020016000206112fd90919063ffffffff16565b905092915050565b600080600084815260200190815260200160002060000160008373ffffffffffffffffffffffffffffffffffffffff1673ffffffffffffffffffffffffffffffffffffffff16815260200190815260200160002060009054906101000a900460ff16905092915050565b610c3f33610f63565b610c7e576040517f08c379a0000000000000000000000000000000000000000000000000000000008152600401610c7590611f93565b60405180910390fd5b610ca87f55435dd261a4b9b3364963f7738a7a662ad9c84396d64be3365284bb7f0a50418261098d565b50565b7f829b824e2329e205435d941c9f13baf578548505283d29261236d8e6596d463681565b6000801b81565b6000610d027f829b824e2329e205435d941c9f13baf578548505283d29261236d8e6596d463683610bcc565b9050919050565b6000610d357f9f2df0fed2c77648de5860a4cc508cd0818c85b8b8a1ab4ceeef8d981c8956a683610bcc565b9050919050565b610d4533610f63565b610d84576040517f08c379a0000000000000000000000000000000000000000000000000000000008152600401610d7b90611f93565b60405180910390fd5b610dae7f55435dd261a4b9b3364963f7738a7a662ad9c84396d64be3365284bb7f0a504182610f3a565b50565b610dba33610f63565b610df9576040517f08c379a0000000000000000000000000000000000000000000000000000000008152600401610df090611f93565b60405180910390fd5b610e237f9d98d3d08f0062b192694645e127c98e5f96f3bbec331d061acaac3ace2327f982610f3a565b50565b7f9d98d3d08f0062b192694645e127c98e5f96f3bbec331d061acaac3ace2327f981565b6000610e767f9d98d3d08f0062b192694645e127c98e5f96f3bbec331d061acaac3ace2327f983610bcc565b9050919050565b6000610e9a60016000848152602001908152602001600020611317565b9050919050565b610eaa33610f63565b610ee9576040517f08c379a0000000000000000000000000000000000000000000000000000000008152600401610ee090611f93565b60405180910390fd5b610f137f9f2df0fed2c77648de5860a4cc508cd0818c85b8b8a1ab4ceeef8d981c8956a682610f3a565b50565b7f9f2df0fed2c77648de5860a4cc508cd0818c85b8b8a1ab4ceeef8d981c8956a681565b610f43826108d5565b610f5481610f4f611195565b61119d565b610f5e838361126e565b505050565b6000610f8f7f899bd46557473cb80307a9dabc297131ced39608330a2d29b2d52b660c03923e83610bcc565b9050919050565b610f9f33610f63565b610fde576040517f08c379a0000000000000000000000000000000000000000000000000000000008152600401610fd590611f93565b60405180910390fd5b6110087f899bd46557473cb80307a9dabc297131ced39608330a2d29b2d52b660c03923e82610f3a565b50565b6110158282610bcc565b6110e757600160008084815260200190815260200160002060000160008373ffffffffffffffffffffffffffffffffffffffff1673ffffffffffffffffffffffffffffffffffffffff16815260200190815260200160002060006101000a81548160ff02191690831515021790555061108c611195565b73ffffffffffffffffffffffffffffffffffffffff168173ffffffffffffffffffffffffffffffffffffffff16837f2f8788117e7eff1d82e926ec794901d17c78024a50270940304540a733656f0d60405160405180910390a45b5050565b6000611113836000018373ffffffffffffffffffffffffffffffffffffffff1660001b61132c565b905092915050565b60007f7965db0b000000000000000000000000000000000000000000000000000000007bffffffffffffffffffffffffffffffffffffffffffffffffffffffff1916827bffffffffffffffffffffffffffffffffffffffffffffffffffffffff1916148061118e575061118d8261139c565b5b9050919050565b600033905090565b6111a78282610bcc565b611236576111cc8173ffffffffffffffffffffffffffffffffffffffff166014611406565b6111da8360001c6020611406565b6040516020016111eb929190611e9d565b6040516020818303038152906040526040517f08c379a000000000000000000000000000000000000000000000000000000000815260040161122d9190611f51565b60405180910390fd5b5050565b611244828261100b565b61126981600160008581526020019081526020016000206110eb90919063ffffffff16565b505050565b6112788282611700565b61129d81600160008581526020019081526020016000206117e190919063ffffffff16565b505050565b60006112ad836108d5565b905081600080858152602001908152602001600020600101819055508181847fbd79b86ffe0ab8e8776151514217cd7cacd52c909f66475c3af44e129f0b00ff60405160405180910390a4505050565b600061130c8360000183611811565b60001c905092915050565b600061132582600001611862565b9050919050565b60006113388383611873565b611391578260000182908060018154018082558091505060019003906000526020600020016000909190919091505582600001805490508360010160008481526020019081526020016000208190555060019050611396565b600090505b92915050565b60007f01ffc9a7000000000000000000000000000000000000000000000000000000007bffffffffffffffffffffffffffffffffffffffffffffffffffffffff1916827bffffffffffffffffffffffffffffffffffffffffffffffffffffffff1916149050919050565b60606000600283600261141991906120ab565b6114239190612055565b67ffffffffffffffff811115611462577f4e487b7100000000000000000000000000000000000000000000000000000000600052604160045260246000fd5b6040519080825280601f01601f1916602001820160405280156114945781602001600182028036833780820191505090505b5090507f3000000000000000000000000000000000000000000000000000000000000000816000815181106114f2577f4e487b7100000000000000000000000000000000000000000000000000000000600052603260045260246000fd5b60200101907effffffffffffffffffffffffffffffffffffffffffffffffffffffffffffff1916908160001a9053507f78000000000000000000000000000000000000000000000000000000000000008160018151811061157c577f4e487b7100000000000000000000000000000000000000000000000000000000600052603260045260246000fd5b60200101907effffffffffffffffffffffffffffffffffffffffffffffffffffffffffffff1916908160001a905350600060018460026115bc91906120ab565b6115c69190612055565b90505b60018111156116b2577f3031323334353637383961626364656600000000000000000000000000000000600f86166010811061162e577f4e487b7100000000000000000000000000000000000000000000000000000000600052603260045260246000fd5b1a60f81b82828151811061166b577f4e487b7100000000000000000000000000000000000000000000000000000000600052603260045260246000fd5b60200101907effffffffffffffffffffffffffffffffffffffffffffffffffffffffffffff1916908160001a905350600485901c9450806116ab906121ea565b90506115c9565b50600084146116f6576040517f08c379a00000000000000000000000000000000000000000000000000000000081526004016116ed90611f73565b60405180910390fd5b8091505092915050565b61170a8282610bcc565b156117dd57600080600084815260200190815260200160002060000160008373ffffffffffffffffffffffffffffffffffffffff1673ffffffffffffffffffffffffffffffffffffffff16815260200190815260200160002060006101000a81548160ff021916908315150217905550611782611195565b73ffffffffffffffffffffffffffffffffffffffff168173ffffffffffffffffffffffffffffffffffffffff16837ff6391f5c32d9c69d2a47ea670b442974b53935d1edc7fd64eb21e047a839171b60405160405180910390a45b5050565b6000611809836000018373ffffffffffffffffffffffffffffffffffffffff1660001b611896565b905092915050565b600082600001828154811061184f577f4e487b7100000000000000000000000000000000000000000000000000000000600052603260045260246000fd5b9060005260206000200154905092915050565b600081600001805490509050919050565b600080836001016000848152602001908152602001600020541415905092915050565b60008083600101600084815260200190815260200160002054905060008114611a105760006001826118c89190612105565b90506000600186600001805490506118e09190612105565b905081811461199b576000866000018281548110611927577f4e487b7100000000000000000000000000000000000000000000000000000000600052603260045260246000fd5b9060005260206000200154905080876000018481548110611971577f4e487b7100000000000000000000000000000000000000000000000000000000600052603260045260246000fd5b90600052602060002001819055508387600101600083815260200190815260200160002081905550505b856000018054806119d5577f4e487b7100000000000000000000000000000000000000000000000000000000600052603160045260246000fd5b600190038181906000526020600020016000905590558560010160008681526020019081526020016000206000905560019350505050611a16565b60009150505b92915050565b600081359050611a2b81612254565b92915050565b600081359050611a408161226b565b92915050565b600081359050611a5581612282565b92915050565b600081359050611a6a81612299565b92915050565b600060208284031215611a8257600080fd5b6000611a9084828501611a1c565b91505092915050565b600060208284031215611aab57600080fd5b6000611ab984828501611a31565b91505092915050565b60008060408385031215611ad557600080fd5b6000611ae385828601611a31565b9250506020611af485828601611a1c565b9150509250929050565b60008060408385031215611b1157600080fd5b6000611b1f85828601611a31565b9250506020611b3085828601611a31565b9150509250929050565b60008060408385031215611b4d57600080fd5b6000611b5b85828601611a31565b9250506020611b6c85828601611a5b565b9150509250929050565b600060208284031215611b8857600080fd5b6000611b9684828501611a46565b91505092915050565b611ba881612139565b82525050565b611bb78161214b565b82525050565b611bc681612157565b82525050565b6000611bd78261202e565b611be18185612039565b9350611bf18185602086016121b7565b611bfa81612243565b840191505092915050565b6000611c108261202e565b611c1a818561204a565b9350611c2a8185602086016121b7565b80840191505092915050565b6000611c43602083612039565b91507f537472696e67733a20686578206c656e67746820696e73756666696369656e746000830152602082019050919050565b6000611c83602583612039565b91507f5065726d697373696f6e733a2043616c6c6572206973206e6f74206120676f7660008301527f65726e6f720000000000000000000000000000000000000000000000000000006020830152604082019050919050565b6000611ce9602583612039565b91507f5065726d697373696f6e733a2043616c6c6572206973206e6f7420612067756160008301527f726469616e0000000000000000000000000000000000000000000000000000006020830152604082019050919050565b6000611d4f602c83612039565b91507f5065726d697373696f6e733a20477561726469616e2063616e6e6f742072657660008301527f6f6b6520676f7665726e6f7200000000000000000000000000000000000000006020830152604082019050919050565b6000611db560178361204a565b91507f416363657373436f6e74726f6c3a206163636f756e74200000000000000000006000830152601782019050919050565b6000611df560118361204a565b91507f206973206d697373696e6720726f6c65200000000000000000000000000000006000830152601182019050919050565b6000611e35602f83612039565b91507f416363657373436f6e74726f6c3a2063616e206f6e6c792072656e6f756e636560008301527f20726f6c657320666f722073656c6600000000000000000000000000000000006020830152604082019050919050565b611e97816121ad565b82525050565b6000611ea882611da8565b9150611eb48285611c05565b9150611ebf82611de8565b9150611ecb8284611c05565b91508190509392505050565b6000602082019050611eec6000830184611b9f565b92915050565b6000602082019050611f076000830184611bae565b92915050565b6000602082019050611f226000830184611bbd565b92915050565b6000604082019050611f3d6000830185611bbd565b611f4a6020830184611b9f565b9392505050565b60006020820190508181036000830152611f6b8184611bcc565b905092915050565b60006020820190508181036000830152611f8c81611c36565b9050919050565b60006020820190508181036000830152611fac81611c76565b9050919050565b60006020820190508181036000830152611fcc81611cdc565b9050919050565b60006020820190508181036000830152611fec81611d42565b9050919050565b6000602082019050818103600083015261200c81611e28565b9050919050565b60006020820190506120286000830184611e8e565b92915050565b600081519050919050565b600082825260208201905092915050565b600081905092915050565b6000612060826121ad565b915061206b836121ad565b9250827fffffffffffffffffffffffffffffffffffffffffffffffffffffffffffffffff038211156120a05761209f612214565b5b828201905092915050565b60006120b6826121ad565b91506120c1836121ad565b9250817fffffffffffffffffffffffffffffffffffffffffffffffffffffffffffffffff04831182151516156120fa576120f9612214565b5b828202905092915050565b6000612110826121ad565b915061211b836121ad565b92508282101561212e5761212d612214565b5b828203905092915050565b60006121448261218d565b9050919050565b60008115159050919050565b6000819050919050565b60007fffffffff0000000000000000000000000000000000000000000000000000000082169050919050565b600073ffffffffffffffffffffffffffffffffffffffff82169050919050565b6000819050919050565b60005b838110156121d55780820151818401526020810190506121ba565b838111156121e4576000848401525b50505050565b60006121f5826121ad565b9150600082141561220957612208612214565b5b600182039050919050565b7f4e487b7100000000000000000000000000000000000000000000000000000000600052601160045260246000fd5b6000601f19601f8301169050919050565b61225d81612139565b811461226857600080fd5b50565b61227481612157565b811461227f57600080fd5b50565b61228b81612161565b811461229657600080fd5b50565b6122a2816121ad565b81146122ad57600080fd5b5056fea2646970667358221220829ee1412492e56eb1499eca67f952a0f59918b47a492a742515a5b26153d40c64736f6c63430008000033",
  "immutableReferences": {},
  "source": "// SPDX-License-Identifier: GPL-3.0-or-later  \n\n// Heavily built on FEI protocol implementation of the openzeppelin RBAC implmentation \n//  https://github.com/fei-protocol/fei-protocol-core/blob/develop/contracts/core/Permissions.sol\n\npragma solidity ^0.8.0;\n\nimport \"@openzeppelin/contracts/access/AccessControlEnumerable.sol\";\nimport \"./IPermissions.sol\";\n\n/// @title Access control module for Core\n/// @author Fei Protocol\ncontract Permissions is IPermissions, AccessControlEnumerable {\n    bytes32 public constant override MINTER_ROLE = keccak256(\"MINTER_ROLE\");\n    bytes32 public constant override MEMBER_ROLE = keccak256(\"MEMBER_ROLE\");\n    bytes32 public constant override FUNDS_MANAGER_ROLE = keccak256(\"FUNDS_MANAGER_ROLE\");\n    bytes32 public constant override GUARDIAN_ROLE = keccak256(\"GUARDIAN_ROLE\");\n    bytes32 public constant override GOVERN_ROLE = keccak256(\"GOVERN_ROLE\");\n    //bytes32 public constant override AUTONOMOUS_PROTOCOL_ROLE = keccak256(\"AUTONOMOUS_PROTOCOL_ROLE\");\n\n    constructor() {\n        // Appointed as a governor so guardian can have indirect access to revoke ability\n        _setupGovernor(address(this));\n\n        _setRoleAdmin(MINTER_ROLE, GOVERN_ROLE);\n        _setRoleAdmin(MEMBER_ROLE, GOVERN_ROLE);\n        _setRoleAdmin(FUNDS_MANAGER_ROLE, GOVERN_ROLE);\n        _setRoleAdmin(GUARDIAN_ROLE, GOVERN_ROLE);\n    }\n\n    modifier onlyGovernor() {\n        require(\n            isGovernor(msg.sender),\n            \"Permissions: Caller is not a governor\"\n        );\n        _;\n    }\n\n    modifier onlyGuardian() {\n        require(isGuardian(msg.sender), \"Permissions: Caller is not a guardian\");\n        _;\n    }\n\n    modifier onlyFMProxy() {\n        require(isFMProxy(msg.sender), \"Permissions: Caller is not a FundsManager protocol's contract instance\");\n        _;\n    }\n\n\n    /// @notice creates a new role to be maintained\n    /// @param role the new role id\n    /// @param adminRole the admin role id for `role`\n    /// @dev can also be used to update admin of existing role\n    function createRole(bytes32 role, bytes32 adminRole)\n        external\n        override\n        onlyGovernor\n    {\n        _setRoleAdmin(role, adminRole);\n    }\n\n    /// @notice grants minter role to address\n    /// @param minter new minter\n    function grantMinter(address minter) external override onlyGovernor {\n        grantRole(MINTER_ROLE, minter);\n    }\n\n    /// @notice grants member role to address\n    /// @param member new member\n     function grantMember(address member) external override onlyGovernor {\n        grantRole(MEMBER_ROLE, member);\n    }\n\n    /// @notice grants Funds Manager Proxy role to address\n    /// @param fmProxy new FM contract instance address / FMProxy\n    function grantFMProxy(address fmProxy)\n        external\n        override\n        onlyGovernor\n    {\n        grantRole(FUNDS_MANAGER_ROLE, fmProxy);\n    }\n\n    /// @notice grants governor role to address\n    /// @param governor new governor\n    function grantGovernor(address governor) external override onlyGovernor {\n        grantRole(GOVERN_ROLE, governor);\n    }\n\n    /// @notice grants guardian role to address\n    /// @param guardian new guardian\n    function grantGuardian(address guardian) external override onlyGovernor {\n        grantRole(GUARDIAN_ROLE, guardian);\n    }\n\n    /// @notice revokes minter role from address\n    /// @param minter ex minter\n    function revokeMinter(address minter) external override onlyGovernor {\n        revokeRole(MINTER_ROLE, minter);\n    }\n\n    /// @notice revokes member role from address\n    /// @param member ex member\n    function revokeMember(address member) external override onlyGovernor {\n        revokeRole(MEMBER_ROLE, member);\n    }\n\n    /// @notice revokes FMProxy role from address of currently used instance in the protocol\n    /// @param fmProxy ex fmProxy\n    function revokeFMProxy(address fmProxy)\n        external\n        override\n        onlyGovernor\n    {\n        revokeRole(FUNDS_MANAGER_ROLE, fmProxy);\n    }\n\n    /// @notice revokes governor role from address\n    /// @param governor ex governor\n    function revokeGovernor(address governor) external override onlyGovernor {\n        revokeRole(GOVERN_ROLE, governor);\n    }\n\n    /// @notice revokes guardian role from address\n    /// @param guardian ex guardian\n    function revokeGuardian(address guardian) external override onlyGovernor {\n        revokeRole(GUARDIAN_ROLE, guardian);\n    }\n\n    /// @notice revokes a role from address\n    /// @param role the role to revoke\n    /// @param account the address to revoke the role from\n    function revokeOverride(bytes32 role, address account)\n        external\n        override\n        onlyGuardian\n    {\n        require(role != GOVERN_ROLE, \"Permissions: Guardian cannot revoke governor\");\n\n        // External call because this contract is appointed as a governor and has access to revoke\n        this.revokeRole(role, account);\n    }\n\n\n    /// @notice checks if address is a minter\n    /// @param _address address to check\n    /// @return true _address is a minter\n    function isMinter(address _address) external view override returns (bool) {\n        return hasRole(MINTER_ROLE, _address);\n    }\n\n    /// @notice checks if address is a burmemberner\n    /// @param _address address to check\n    /// @return true _address is a member\n    function isMember(address _address) external view override returns (bool) {\n        return hasRole(MEMBER_ROLE, _address);\n    }\n\n    /// @notice checks if address is a FMProxy\n    /// @param _address address to check\n    /// @return true _address is a controller\n    function isFMProxy(address _address)\n        public\n        view\n        override\n        returns (bool)\n    {\n        return hasRole(FUNDS_MANAGER_ROLE, _address);\n    }\n\n    /// @notice checks if address is a governor\n    /// @param _address address to check\n    /// @return true _address is a governor\n    // only virtual for testing mock override\n    function isGovernor(address _address)\n        public\n        view\n        virtual\n        override\n        returns (bool)\n    {\n        return hasRole(GOVERN_ROLE, _address);\n    }\n\n    /// @notice checks if address is a guardian\n    /// @param _address address to check\n    /// @return true _address is a guardian\n    function isGuardian(address _address) public view override returns (bool) {\n        return hasRole(GUARDIAN_ROLE, _address);\n    }\n\n    function _setupGovernor(address governor) internal {\n        _setupRole(GOVERN_ROLE, governor);\n    }\n}",
  "sourcePath": "/home/w31rdm4ch1n3s/ConsenSys_dev_bootcamp/final_project/consensys_bootcamp_2021_minimum_viable_final_project/contracts/Permissions.sol",
  "compiler": {
    "name": "solc",
    "version": "0.8.0+commit.c7dfd78e.Emscripten.clang"
  },
  "schemaVersion": "3.4.4",
  "updatedAt": "2022-02-04T20:03:37.871Z",
  "networkType": "ethereum",
  "devdoc": {
    "author": "Fei Protocol",
    "kind": "dev",
    "methods": {
      "createRole(bytes32,bytes32)": {
        "details": "can also be used to update admin of existing role",
        "params": {
          "adminRole": "the admin role id for `role`",
          "role": "the new role id"
        }
      },
      "getRoleAdmin(bytes32)": {
        "details": "Returns the admin role that controls `role`. See {grantRole} and {revokeRole}. To change a role's admin, use {_setRoleAdmin}."
      },
      "getRoleMember(bytes32,uint256)": {
        "details": "Returns one of the accounts that have `role`. `index` must be a value between 0 and {getRoleMemberCount}, non-inclusive. Role bearers are not sorted in any particular way, and their ordering may change at any point. WARNING: When using {getRoleMember} and {getRoleMemberCount}, make sure you perform all queries on the same block. See the following https://forum.openzeppelin.com/t/iterating-over-elements-on-enumerableset-in-openzeppelin-contracts/2296[forum post] for more information."
      },
      "getRoleMemberCount(bytes32)": {
        "details": "Returns the number of accounts that have `role`. Can be used together with {getRoleMember} to enumerate all bearers of a role."
      },
      "grantFMProxy(address)": {
        "params": {
          "fmProxy": "new FM contract instance address / FMProxy"
        }
      },
      "grantGovernor(address)": {
        "params": {
          "governor": "new governor"
        }
      },
      "grantGuardian(address)": {
        "params": {
          "guardian": "new guardian"
        }
      },
      "grantMember(address)": {
        "params": {
          "member": "new member"
        }
      },
      "grantMinter(address)": {
        "params": {
          "minter": "new minter"
        }
      },
      "grantRole(bytes32,address)": {
        "details": "Grants `role` to `account`. If `account` had not been already granted `role`, emits a {RoleGranted} event. Requirements: - the caller must have ``role``'s admin role."
      },
      "hasRole(bytes32,address)": {
        "details": "Returns `true` if `account` has been granted `role`."
      },
      "isFMProxy(address)": {
        "params": {
          "_address": "address to check"
        },
        "returns": {
          "_0": "true _address is a controller"
        }
      },
      "isGovernor(address)": {
        "params": {
          "_address": "address to check"
        },
        "returns": {
          "_0": "true _address is a governor"
        }
      },
      "isGuardian(address)": {
        "params": {
          "_address": "address to check"
        },
        "returns": {
          "_0": "true _address is a guardian"
        }
      },
      "isMember(address)": {
        "params": {
          "_address": "address to check"
        },
        "returns": {
          "_0": "true _address is a member"
        }
      },
      "isMinter(address)": {
        "params": {
          "_address": "address to check"
        },
        "returns": {
          "_0": "true _address is a minter"
        }
      },
      "renounceRole(bytes32,address)": {
        "details": "Revokes `role` from the calling account. Roles are often managed via {grantRole} and {revokeRole}: this function's purpose is to provide a mechanism for accounts to lose their privileges if they are compromised (such as when a trusted device is misplaced). If the calling account had been revoked `role`, emits a {RoleRevoked} event. Requirements: - the caller must be `account`."
      },
      "revokeFMProxy(address)": {
        "params": {
          "fmProxy": "ex fmProxy"
        }
      },
      "revokeGovernor(address)": {
        "params": {
          "governor": "ex governor"
        }
      },
      "revokeGuardian(address)": {
        "params": {
          "guardian": "ex guardian"
        }
      },
      "revokeMember(address)": {
        "params": {
          "member": "ex member"
        }
      },
      "revokeMinter(address)": {
        "params": {
          "minter": "ex minter"
        }
      },
      "revokeOverride(bytes32,address)": {
        "params": {
          "account": "the address to revoke the role from",
          "role": "the role to revoke"
        }
      },
      "revokeRole(bytes32,address)": {
        "details": "Revokes `role` from `account`. If `account` had been granted `role`, emits a {RoleRevoked} event. Requirements: - the caller must have ``role``'s admin role."
      },
      "supportsInterface(bytes4)": {
        "details": "See {IERC165-supportsInterface}."
      }
    },
    "title": "Access control module for Core",
    "version": 1
  },
  "userdoc": {
    "kind": "user",
    "methods": {
      "createRole(bytes32,bytes32)": {
        "notice": "creates a new role to be maintained"
      },
      "grantFMProxy(address)": {
        "notice": "grants Funds Manager Proxy role to address"
      },
      "grantGovernor(address)": {
        "notice": "grants governor role to address"
      },
      "grantGuardian(address)": {
        "notice": "grants guardian role to address"
      },
      "grantMember(address)": {
        "notice": "grants member role to address"
      },
      "grantMinter(address)": {
        "notice": "grants minter role to address"
      },
      "isFMProxy(address)": {
        "notice": "checks if address is a FMProxy"
      },
      "isGovernor(address)": {
        "notice": "checks if address is a governor"
      },
      "isGuardian(address)": {
        "notice": "checks if address is a guardian"
      },
      "isMember(address)": {
        "notice": "checks if address is a burmemberner"
      },
      "isMinter(address)": {
        "notice": "checks if address is a minter"
      },
      "revokeFMProxy(address)": {
        "notice": "revokes FMProxy role from address of currently used instance in the protocol"
      },
      "revokeGovernor(address)": {
        "notice": "revokes governor role from address"
      },
      "revokeGuardian(address)": {
        "notice": "revokes guardian role from address"
      },
      "revokeMember(address)": {
        "notice": "revokes member role from address"
      },
      "revokeMinter(address)": {
        "notice": "revokes minter role from address"
      },
      "revokeOverride(bytes32,address)": {
        "notice": "revokes a role from address"
      }
    },
    "version": 1
  }
}