{
  "contractName": "RequestForContent",
  "abi": [
    {
      "inputs": [],
      "stateMutability": "nonpayable",
      "type": "constructor"
    },
    {
      "anonymous": false,
      "inputs": [
        {
          "indexed": true,
          "internalType": "address",
          "name": "owner",
          "type": "address"
        },
        {
          "indexed": true,
          "internalType": "address",
          "name": "approved",
          "type": "address"
        },
        {
          "indexed": true,
          "internalType": "uint256",
          "name": "tokenId",
          "type": "uint256"
        }
      ],
      "name": "Approval",
      "type": "event"
    },
    {
      "anonymous": false,
      "inputs": [
        {
          "indexed": true,
          "internalType": "address",
          "name": "owner",
          "type": "address"
        },
        {
          "indexed": true,
          "internalType": "address",
          "name": "operator",
          "type": "address"
        },
        {
          "indexed": false,
          "internalType": "bool",
          "name": "approved",
          "type": "bool"
        }
      ],
      "name": "ApprovalForAll",
      "type": "event"
    },
    {
      "anonymous": false,
      "inputs": [
        {
          "indexed": true,
          "internalType": "address",
          "name": "RfCTokenAddress",
          "type": "address"
        },
        {
          "indexed": false,
          "internalType": "uint256",
          "name": "RfCidCounter",
          "type": "uint256"
        }
      ],
      "name": "RfCMinted",
      "type": "event"
    },
    {
      "anonymous": false,
      "inputs": [
        {
          "indexed": false,
          "internalType": "address",
          "name": "proposer",
          "type": "address"
        },
        {
          "indexed": false,
          "internalType": "bool",
          "name": "success",
          "type": "bool"
        }
      ],
      "name": "RfCProposal",
      "type": "event"
    },
    {
      "anonymous": false,
      "inputs": [
        {
          "indexed": true,
          "internalType": "bytes32",
          "name": "role",
          "type": "bytes32"
        },
        {
          "indexed": true,
          "internalType": "bytes32",
          "name": "previousAdminRole",
          "type": "bytes32"
        },
        {
          "indexed": true,
          "internalType": "bytes32",
          "name": "newAdminRole",
          "type": "bytes32"
        }
      ],
      "name": "RoleAdminChanged",
      "type": "event"
    },
    {
      "anonymous": false,
      "inputs": [
        {
          "indexed": true,
          "internalType": "bytes32",
          "name": "role",
          "type": "bytes32"
        },
        {
          "indexed": true,
          "internalType": "address",
          "name": "account",
          "type": "address"
        },
        {
          "indexed": true,
          "internalType": "address",
          "name": "sender",
          "type": "address"
        }
      ],
      "name": "RoleGranted",
      "type": "event"
    },
    {
      "anonymous": false,
      "inputs": [
        {
          "indexed": true,
          "internalType": "bytes32",
          "name": "role",
          "type": "bytes32"
        },
        {
          "indexed": true,
          "internalType": "address",
          "name": "account",
          "type": "address"
        },
        {
          "indexed": true,
          "internalType": "address",
          "name": "sender",
          "type": "address"
        }
      ],
      "name": "RoleRevoked",
      "type": "event"
    },
    {
      "anonymous": false,
      "inputs": [
        {
          "indexed": false,
          "internalType": "address",
          "name": "RfC",
          "type": "address"
        },
        {
          "indexed": false,
          "internalType": "uint256",
          "name": "id",
          "type": "uint256"
        },
        {
          "indexed": false,
          "internalType": "uint256",
          "name": "time",
          "type": "uint256"
        }
      ],
      "name": "SucessfullyMinted",
      "type": "event"
    },
    {
      "anonymous": false,
      "inputs": [
        {
          "indexed": true,
          "internalType": "address",
          "name": "from",
          "type": "address"
        },
        {
          "indexed": true,
          "internalType": "address",
          "name": "to",
          "type": "address"
        },
        {
          "indexed": true,
          "internalType": "uint256",
          "name": "tokenId",
          "type": "uint256"
        }
      ],
      "name": "Transfer",
      "type": "event"
    },
    {
      "inputs": [],
      "name": "DEFAULT_ADMIN_ROLE",
      "outputs": [
        {
          "internalType": "bytes32",
          "name": "",
          "type": "bytes32"
        }
      ],
      "stateMutability": "view",
      "type": "function"
    },
    {
      "inputs": [],
      "name": "FUNDS_MANAGER_ROLE",
      "outputs": [
        {
          "internalType": "bytes32",
          "name": "",
          "type": "bytes32"
        }
      ],
      "stateMutability": "view",
      "type": "function"
    },
    {
      "inputs": [],
      "name": "GOVERN_ROLE",
      "outputs": [
        {
          "internalType": "bytes32",
          "name": "",
          "type": "bytes32"
        }
      ],
      "stateMutability": "view",
      "type": "function"
    },
    {
      "inputs": [],
      "name": "GUARDIAN_ROLE",
      "outputs": [
        {
          "internalType": "bytes32",
          "name": "",
          "type": "bytes32"
        }
      ],
      "stateMutability": "view",
      "type": "function"
    },
    {
      "inputs": [],
      "name": "MEMBER_ROLE",
      "outputs": [
        {
          "internalType": "bytes32",
          "name": "",
          "type": "bytes32"
        }
      ],
      "stateMutability": "view",
      "type": "function"
    },
    {
      "inputs": [],
      "name": "MINTER_ROLE",
      "outputs": [
        {
          "internalType": "bytes32",
          "name": "",
          "type": "bytes32"
        }
      ],
      "stateMutability": "view",
      "type": "function"
    },
    {
      "inputs": [],
      "name": "allocatedBudgetForPC",
      "outputs": [
        {
          "internalType": "uint256",
          "name": "",
          "type": "uint256"
        }
      ],
      "stateMutability": "view",
      "type": "function"
    },
    {
      "inputs": [
        {
          "internalType": "address",
          "name": "to",
          "type": "address"
        },
        {
          "internalType": "uint256",
          "name": "tokenId",
          "type": "uint256"
        }
      ],
      "name": "approve",
      "outputs": [],
      "stateMutability": "nonpayable",
      "type": "function"
    },
    {
      "inputs": [
        {
          "internalType": "address",
          "name": "owner",
          "type": "address"
        }
      ],
      "name": "balanceOf",
      "outputs": [
        {
          "internalType": "uint256",
          "name": "",
          "type": "uint256"
        }
      ],
      "stateMutability": "view",
      "type": "function"
    },
    {
      "inputs": [
        {
          "internalType": "bytes32",
          "name": "role",
          "type": "bytes32"
        },
        {
          "internalType": "bytes32",
          "name": "adminRole",
          "type": "bytes32"
        }
      ],
      "name": "createRole",
      "outputs": [],
      "stateMutability": "nonpayable",
      "type": "function"
    },
    {
      "inputs": [
        {
          "internalType": "uint256",
          "name": "tokenId",
          "type": "uint256"
        }
      ],
      "name": "getApproved",
      "outputs": [
        {
          "internalType": "address",
          "name": "",
          "type": "address"
        }
      ],
      "stateMutability": "view",
      "type": "function"
    },
    {
      "inputs": [
        {
          "internalType": "bytes32",
          "name": "role",
          "type": "bytes32"
        }
      ],
      "name": "getRoleAdmin",
      "outputs": [
        {
          "internalType": "bytes32",
          "name": "",
          "type": "bytes32"
        }
      ],
      "stateMutability": "view",
      "type": "function"
    },
    {
      "inputs": [
        {
          "internalType": "bytes32",
          "name": "role",
          "type": "bytes32"
        },
        {
          "internalType": "uint256",
          "name": "index",
          "type": "uint256"
        }
      ],
      "name": "getRoleMember",
      "outputs": [
        {
          "internalType": "address",
          "name": "",
          "type": "address"
        }
      ],
      "stateMutability": "view",
      "type": "function"
    },
    {
      "inputs": [
        {
          "internalType": "bytes32",
          "name": "role",
          "type": "bytes32"
        }
      ],
      "name": "getRoleMemberCount",
      "outputs": [
        {
          "internalType": "uint256",
          "name": "",
          "type": "uint256"
        }
      ],
      "stateMutability": "view",
      "type": "function"
    },
    {
      "inputs": [
        {
          "internalType": "address",
          "name": "fmProxy",
          "type": "address"
        }
      ],
      "name": "grantFMProxy",
      "outputs": [],
      "stateMutability": "nonpayable",
      "type": "function"
    },
    {
      "inputs": [
        {
          "internalType": "address",
          "name": "governor",
          "type": "address"
        }
      ],
      "name": "grantGovernor",
      "outputs": [],
      "stateMutability": "nonpayable",
      "type": "function"
    },
    {
      "inputs": [
        {
          "internalType": "address",
          "name": "guardian",
          "type": "address"
        }
      ],
      "name": "grantGuardian",
      "outputs": [],
      "stateMutability": "nonpayable",
      "type": "function"
    },
    {
      "inputs": [
        {
          "internalType": "address",
          "name": "member",
          "type": "address"
        }
      ],
      "name": "grantMember",
      "outputs": [],
      "stateMutability": "nonpayable",
      "type": "function"
    },
    {
      "inputs": [
        {
          "internalType": "address",
          "name": "minter",
          "type": "address"
        }
      ],
      "name": "grantMinter",
      "outputs": [],
      "stateMutability": "nonpayable",
      "type": "function"
    },
    {
      "inputs": [
        {
          "internalType": "bytes32",
          "name": "role",
          "type": "bytes32"
        },
        {
          "internalType": "address",
          "name": "account",
          "type": "address"
        }
      ],
      "name": "grantRole",
      "outputs": [],
      "stateMutability": "nonpayable",
      "type": "function"
    },
    {
      "inputs": [
        {
          "internalType": "bytes32",
          "name": "role",
          "type": "bytes32"
        },
        {
          "internalType": "address",
          "name": "account",
          "type": "address"
        }
      ],
      "name": "hasRole",
      "outputs": [
        {
          "internalType": "bool",
          "name": "",
          "type": "bool"
        }
      ],
      "stateMutability": "view",
      "type": "function"
    },
    {
      "inputs": [
        {
          "internalType": "address",
          "name": "owner",
          "type": "address"
        },
        {
          "internalType": "address",
          "name": "operator",
          "type": "address"
        }
      ],
      "name": "isApprovedForAll",
      "outputs": [
        {
          "internalType": "bool",
          "name": "",
          "type": "bool"
        }
      ],
      "stateMutability": "view",
      "type": "function"
    },
    {
      "inputs": [
        {
          "internalType": "address",
          "name": "_address",
          "type": "address"
        }
      ],
      "name": "isFMProxy",
      "outputs": [
        {
          "internalType": "bool",
          "name": "",
          "type": "bool"
        }
      ],
      "stateMutability": "view",
      "type": "function"
    },
    {
      "inputs": [
        {
          "internalType": "address",
          "name": "_address",
          "type": "address"
        }
      ],
      "name": "isGovernor",
      "outputs": [
        {
          "internalType": "bool",
          "name": "",
          "type": "bool"
        }
      ],
      "stateMutability": "view",
      "type": "function"
    },
    {
      "inputs": [
        {
          "internalType": "address",
          "name": "_address",
          "type": "address"
        }
      ],
      "name": "isGuardian",
      "outputs": [
        {
          "internalType": "bool",
          "name": "",
          "type": "bool"
        }
      ],
      "stateMutability": "view",
      "type": "function"
    },
    {
      "inputs": [
        {
          "internalType": "address",
          "name": "_address",
          "type": "address"
        }
      ],
      "name": "isMember",
      "outputs": [
        {
          "internalType": "bool",
          "name": "",
          "type": "bool"
        }
      ],
      "stateMutability": "view",
      "type": "function"
    },
    {
      "inputs": [
        {
          "internalType": "address",
          "name": "_address",
          "type": "address"
        }
      ],
      "name": "isMinter",
      "outputs": [
        {
          "internalType": "bool",
          "name": "",
          "type": "bool"
        }
      ],
      "stateMutability": "view",
      "type": "function"
    },
    {
      "inputs": [],
      "name": "name",
      "outputs": [
        {
          "internalType": "string",
          "name": "",
          "type": "string"
        }
      ],
      "stateMutability": "view",
      "type": "function"
    },
    {
      "inputs": [
        {
          "internalType": "uint256",
          "name": "tokenId",
          "type": "uint256"
        }
      ],
      "name": "ownerOf",
      "outputs": [
        {
          "internalType": "address",
          "name": "",
          "type": "address"
        }
      ],
      "stateMutability": "view",
      "type": "function"
    },
    {
      "inputs": [
        {
          "internalType": "bytes32",
          "name": "role",
          "type": "bytes32"
        },
        {
          "internalType": "address",
          "name": "account",
          "type": "address"
        }
      ],
      "name": "renounceRole",
      "outputs": [],
      "stateMutability": "nonpayable",
      "type": "function"
    },
    {
      "inputs": [
        {
          "internalType": "address",
          "name": "fmProxy",
          "type": "address"
        }
      ],
      "name": "revokeFMProxy",
      "outputs": [],
      "stateMutability": "nonpayable",
      "type": "function"
    },
    {
      "inputs": [
        {
          "internalType": "address",
          "name": "governor",
          "type": "address"
        }
      ],
      "name": "revokeGovernor",
      "outputs": [],
      "stateMutability": "nonpayable",
      "type": "function"
    },
    {
      "inputs": [
        {
          "internalType": "address",
          "name": "guardian",
          "type": "address"
        }
      ],
      "name": "revokeGuardian",
      "outputs": [],
      "stateMutability": "nonpayable",
      "type": "function"
    },
    {
      "inputs": [
        {
          "internalType": "address",
          "name": "member",
          "type": "address"
        }
      ],
      "name": "revokeMember",
      "outputs": [],
      "stateMutability": "nonpayable",
      "type": "function"
    },
    {
      "inputs": [
        {
          "internalType": "address",
          "name": "minter",
          "type": "address"
        }
      ],
      "name": "revokeMinter",
      "outputs": [],
      "stateMutability": "nonpayable",
      "type": "function"
    },
    {
      "inputs": [
        {
          "internalType": "bytes32",
          "name": "role",
          "type": "bytes32"
        },
        {
          "internalType": "address",
          "name": "account",
          "type": "address"
        }
      ],
      "name": "revokeOverride",
      "outputs": [],
      "stateMutability": "nonpayable",
      "type": "function"
    },
    {
      "inputs": [
        {
          "internalType": "bytes32",
          "name": "role",
          "type": "bytes32"
        },
        {
          "internalType": "address",
          "name": "account",
          "type": "address"
        }
      ],
      "name": "revokeRole",
      "outputs": [],
      "stateMutability": "nonpayable",
      "type": "function"
    },
    {
      "inputs": [
        {
          "internalType": "address",
          "name": "from",
          "type": "address"
        },
        {
          "internalType": "address",
          "name": "to",
          "type": "address"
        },
        {
          "internalType": "uint256",
          "name": "tokenId",
          "type": "uint256"
        }
      ],
      "name": "safeTransferFrom",
      "outputs": [],
      "stateMutability": "nonpayable",
      "type": "function"
    },
    {
      "inputs": [
        {
          "internalType": "address",
          "name": "from",
          "type": "address"
        },
        {
          "internalType": "address",
          "name": "to",
          "type": "address"
        },
        {
          "internalType": "uint256",
          "name": "tokenId",
          "type": "uint256"
        },
        {
          "internalType": "bytes",
          "name": "_data",
          "type": "bytes"
        }
      ],
      "name": "safeTransferFrom",
      "outputs": [],
      "stateMutability": "nonpayable",
      "type": "function"
    },
    {
      "inputs": [
        {
          "internalType": "address",
          "name": "operator",
          "type": "address"
        },
        {
          "internalType": "bool",
          "name": "approved",
          "type": "bool"
        }
      ],
      "name": "setApprovalForAll",
      "outputs": [],
      "stateMutability": "nonpayable",
      "type": "function"
    },
    {
      "inputs": [],
      "name": "symbol",
      "outputs": [
        {
          "internalType": "string",
          "name": "",
          "type": "string"
        }
      ],
      "stateMutability": "view",
      "type": "function"
    },
    {
      "inputs": [],
      "name": "timeForDelivery",
      "outputs": [
        {
          "internalType": "uint256",
          "name": "",
          "type": "uint256"
        }
      ],
      "stateMutability": "view",
      "type": "function"
    },
    {
      "inputs": [
        {
          "internalType": "uint256",
          "name": "tokenId",
          "type": "uint256"
        }
      ],
      "name": "tokenURI",
      "outputs": [
        {
          "internalType": "string",
          "name": "",
          "type": "string"
        }
      ],
      "stateMutability": "view",
      "type": "function"
    },
    {
      "inputs": [
        {
          "internalType": "address",
          "name": "",
          "type": "address"
        },
        {
          "internalType": "address",
          "name": "",
          "type": "address"
        }
      ],
      "name": "trackFundsUseByCP",
      "outputs": [
        {
          "internalType": "uint256",
          "name": "",
          "type": "uint256"
        }
      ],
      "stateMutability": "view",
      "type": "function"
    },
    {
      "inputs": [
        {
          "internalType": "address",
          "name": "from",
          "type": "address"
        },
        {
          "internalType": "address",
          "name": "to",
          "type": "address"
        },
        {
          "internalType": "uint256",
          "name": "tokenId",
          "type": "uint256"
        }
      ],
      "name": "transferFrom",
      "outputs": [],
      "stateMutability": "nonpayable",
      "type": "function"
    },
    {
      "inputs": [
        {
          "internalType": "bytes4",
          "name": "interfaceId",
          "type": "bytes4"
        }
      ],
      "name": "supportsInterface",
      "outputs": [
        {
          "internalType": "bool",
          "name": "",
          "type": "bool"
        }
      ],
      "stateMutability": "view",
      "type": "function"
    },
    {
      "inputs": [],
      "name": "getRfCTracker",
      "outputs": [
        {
          "internalType": "uint256",
          "name": "",
          "type": "uint256"
        }
      ],
      "stateMutability": "nonpayable",
      "type": "function"
    },
    {
      "inputs": [
        {
          "internalType": "address",
          "name": "to",
          "type": "address"
        }
      ],
      "name": "safeMint",
      "outputs": [],
      "stateMutability": "nonpayable",
      "type": "function"
    },
    {
      "inputs": [
        {
          "internalType": "bool",
          "name": "isFunded",
          "type": "bool"
        },
        {
          "internalType": "int256",
          "name": "fundsPooledInvestorsAmount",
          "type": "int256"
        },
        {
          "internalType": "uint256",
          "name": "fundsPooledCPsAmount",
          "type": "uint256"
        }
      ],
      "name": "setRfCReadyForMint",
      "outputs": [],
      "stateMutability": "nonpayable",
      "type": "function"
    },
    {
      "inputs": [
        {
          "internalType": "uint256",
          "name": "_tmpRfCId",
          "type": "uint256"
        }
      ],
      "name": "burnRfCInCaseNotPassed",
      "outputs": [],
      "stateMutability": "nonpayable",
      "type": "function"
    },
    {
      "inputs": [],
      "name": "reportRfCPayouts",
      "outputs": [],
      "stateMutability": "nonpayable",
      "type": "function"
    },
    {
      "inputs": [
        {
          "internalType": "address",
          "name": "_contentCreationOG",
          "type": "address"
        },
        {
          "internalType": "uint256",
          "name": "_contentPrice",
          "type": "uint256"
        }
      ],
      "name": "burnSharesNFTforERC20",
      "outputs": [
        {
          "internalType": "bool",
          "name": "success",
          "type": "bool"
        }
      ],
      "stateMutability": "nonpayable",
      "type": "function"
    }
  ],
  "bytecode": "0x60806040523480156200001157600080fd5b506040518060400160405280601181526020017f52657175657374466f72436f6e74656e740000000000000000000000000000008152506040518060400160405280600381526020017f52464300000000000000000000000000000000000000000000000000000000008152506200008f306200021160201b60201c565b620000e17f9f2df0fed2c77648de5860a4cc508cd0818c85b8b8a1ab4ceeef8d981c8956a67f899bd46557473cb80307a9dabc297131ced39608330a2d29b2d52b660c03923e6200024660201b60201c565b620001337f829b824e2329e205435d941c9f13baf578548505283d29261236d8e6596d46367f899bd46557473cb80307a9dabc297131ced39608330a2d29b2d52b660c03923e6200024660201b60201c565b620001857f9d98d3d08f0062b192694645e127c98e5f96f3bbec331d061acaac3ace2327f97f899bd46557473cb80307a9dabc297131ced39608330a2d29b2d52b660c03923e6200024660201b60201c565b620001d77f55435dd261a4b9b3364963f7738a7a662ad9c84396d64be3365284bb7f0a50417f899bd46557473cb80307a9dabc297131ced39608330a2d29b2d52b660c03923e6200024660201b60201c565b8160029080519060200190620001ef9291906200055e565b508060039080519060200190620002089291906200055e565b50505062000673565b620002437f899bd46557473cb80307a9dabc297131ced39608330a2d29b2d52b660c03923e82620002a960201b60201c565b50565b60006200025983620002bf60201b60201c565b905081600080858152602001908152602001600020600101819055508181847fbd79b86ffe0ab8e8776151514217cd7cacd52c909f66475c3af44e129f0b00ff60405160405180910390a4505050565b620002bb8282620002de60201b60201c565b5050565b6000806000838152602001908152602001600020600101549050919050565b620002f582826200032660201b62001b461760201c565b6200032181600160008581526020019081526020016000206200041760201b62001c261790919060201c565b505050565b6200033882826200044f60201b60201c565b6200041357600160008084815260200190815260200160002060000160008373ffffffffffffffffffffffffffffffffffffffff1673ffffffffffffffffffffffffffffffffffffffff16815260200190815260200160002060006101000a81548160ff021916908315150217905550620003b8620004b960201b60201c565b73ffffffffffffffffffffffffffffffffffffffff168173ffffffffffffffffffffffffffffffffffffffff16837f2f8788117e7eff1d82e926ec794901d17c78024a50270940304540a733656f0d60405160405180910390a45b5050565b600062000447836000018373ffffffffffffffffffffffffffffffffffffffff1660001b620004c160201b60201c565b905092915050565b600080600084815260200190815260200160002060000160008373ffffffffffffffffffffffffffffffffffffffff1673ffffffffffffffffffffffffffffffffffffffff16815260200190815260200160002060009054906101000a900460ff16905092915050565b600033905090565b6000620004d583836200053b60201b60201c565b6200053057826000018290806001815401808255809150506001900390600052602060002001600090919091909150558260000180549050836001016000848152602001908152602001600020819055506001905062000535565b600090505b92915050565b600080836001016000848152602001908152602001600020541415905092915050565b8280546200056c906200060e565b90600052602060002090601f016020900481019282620005905760008555620005dc565b82601f10620005ab57805160ff1916838001178555620005dc565b82800160010185558215620005dc579182015b82811115620005db578251825591602001919060010190620005be565b5b509050620005eb9190620005ef565b5090565b5b808211156200060a576000816000905550600101620005f0565b5090565b600060028204905060018216806200062757607f821691505b602082108114156200063e576200063d62000644565b5b50919050565b7f4e487b7100000000000000000000000000000000000000000000000000000000600052602260045260246000fd5b614a3680620006836000396000f3fe608060405234801561001057600080fd5b506004361061030c5760003560e01c80638667c2981161019d578063b88d4fde116100e9578063cfbd4885116100a2578063d547741f1161007c578063d547741f14610981578063e43581b81461099d578063e6eb982f146109cd578063e985e9c5146109e95761030c565b8063cfbd488514610929578063d5056dab14610945578063d5391393146109635761030c565b8063b88d4fde14610843578063bcb9d2dd1461085f578063c4707a831461087b578063c87b56dd14610899578063c9876d54146108c9578063ca15c873146108f95761030c565b8063a0c2b03611610156578063a22cb46511610130578063a22cb465146107ab578063a230c524146107c7578063aa271e1a146107f7578063af648c3d146108275761030c565b8063a0c2b0361461073f578063a10f469e1461076f578063a217fddf1461078d5761030c565b80638667c2981461066b5780638adf23b9146106895780639010d07c146106a557806391d14854146106d557806394b1d2c01461070557806395d89b41146107215761030c565b80632f832d351161025c5780634c9f9384116102155780636073e406116101ef5780636073e406146105bf5780636352211e146105ef57806369bfca8d1461061f57806370a082311461063b5761030c565b80634c9f93841461057d578063535865b1146105995780635e64b75b146105a35761030c565b80632f832d35146104d157806336568abe146104ef57806338b7f4461461050b578063395c62e81461052957806340d097c31461054557806342842e0e146105615761030c565b806313e15efc116102c9578063248a9ca3116102a3578063248a9ca31461044b57806324ea54f41461047b578063261707fa146104995780632f2ff15d146104b55761030c565b806313e15efc146103f75780632320eabf1461041357806323b872dd1461042f5761030c565b806301ffc9a71461031157806306fdde0314610341578063080bf57c1461035f578063081812fc1461037b578063095ea7b3146103ab5780630c68ba21146103c7575b600080fd5b61032b600480360381019061032691906137a1565b610a19565b60405161033891906141fd565b60405180910390f35b610349610a2b565b604051610356919061425c565b60405180910390f35b610379600480360381019061037491906136ed565b610abd565b005b610395600480360381019061039091906137f3565b610bd9565b6040516103a2919061415f565b60405180910390f35b6103c560048036038101906103c09190613639565b610c5e565b005b6103e160048036038101906103dc91906134ce565b610d76565b6040516103ee91906141fd565b60405180910390f35b610411600480360381019061040c91906134ce565b610da9565b005b61042d600480360381019061042891906134ce565b610e1e565b005b61044960048036038101906104449190613533565b610e93565b005b610465600480360381019061046091906136c4565b610ef3565b6040516104729190614218565b60405180910390f35b610483610f12565b6040516104909190614218565b60405180910390f35b6104b360048036038101906104ae91906134ce565b610f36565b005b6104cf60048036038101906104ca91906136ed565b610fab565b005b6104d9610fd4565b6040516104e691906144fe565b60405180910390f35b610509600480360381019061050491906136ed565b61102d565b005b6105136110b0565b6040516105209190614218565b60405180910390f35b610543600480360381019061053e91906134ce565b6110d4565b005b61055f600480360381019061055a91906134ce565b611149565b005b61057b60048036038101906105769190613533565b6111f2565b005b61059760048036038101906105929190613729565b611212565b005b6105a1611268565b005b6105bd60048036038101906105b891906137f3565b61126a565b005b6105d960048036038101906105d49190613639565b611276565b6040516105e691906141fd565b60405180910390f35b610609600480360381019061060491906137f3565b61127e565b604051610616919061415f565b60405180910390f35b61063960048036038101906106349190613675565b611330565b005b610655600480360381019061065091906134ce565b611335565b60405161066291906144fe565b60405180910390f35b6106736113ed565b60405161068091906144fe565b60405180910390f35b6106a3600480360381019061069e91906134ce565b6113f3565b005b6106bf60048036038101906106ba9190613765565b611468565b6040516106cc919061415f565b60405180910390f35b6106ef60048036038101906106ea91906136ed565b611497565b6040516106fc91906141fd565b60405180910390f35b61071f600480360381019061071a91906134ce565b611501565b005b610729611576565b604051610736919061425c565b60405180910390f35b610759600480360381019061075491906134f7565b611608565b60405161076691906144fe565b60405180910390f35b61077761162d565b6040516107849190614218565b60405180910390f35b610795611651565b6040516107a29190614218565b60405180910390f35b6107c560048036038101906107c091906135fd565b611658565b005b6107e160048036038101906107dc91906134ce565b61166e565b6040516107ee91906141fd565b60405180910390f35b610811600480360381019061080c91906134ce565b6116a1565b60405161081e91906141fd565b60405180910390f35b610841600480360381019061083c91906134ce565b6116d4565b005b61085d60048036038101906108589190613582565b611749565b005b610879600480360381019061087491906134ce565b6117ab565b005b610883611820565b6040516108909190614218565b60405180910390f35b6108b360048036038101906108ae91906137f3565b611844565b6040516108c0919061425c565b60405180910390f35b6108e360048036038101906108de91906134ce565b6118eb565b6040516108f091906141fd565b60405180910390f35b610913600480360381019061090e91906136c4565b61191e565b60405161092091906144fe565b60405180910390f35b610943600480360381019061093e91906134ce565b611942565b005b61094d6119b7565b60405161095a91906144fe565b60405180910390f35b61096b6119bd565b6040516109789190614218565b60405180910390f35b61099b600480360381019061099691906136ed565b6119e1565b005b6109b760048036038101906109b291906134ce565b611a0a565b6040516109c491906141fd565b60405180910390f35b6109e760048036038101906109e291906134ce565b611a3d565b005b610a0360048036038101906109fe91906134f7565b611ab2565b604051610a1091906141fd565b60405180910390f35b6000610a2482611c56565b9050919050565b606060028054610a3a906147c6565b80601f0160208091040260200160405190810160405280929190818152602001828054610a66906147c6565b8015610ab35780601f10610a8857610100808354040283529160200191610ab3565b820191906000526020600020905b815481529060010190602001808311610a9657829003601f168201915b5050505050905090565b610ac633610d76565b610b05576040517f08c379a0000000000000000000000000000000000000000000000000000000008152600401610afc9061445e565b60405180910390fd5b7f899bd46557473cb80307a9dabc297131ced39608330a2d29b2d52b660c03923e821415610b68576040517f08c379a0000000000000000000000000000000000000000000000000000000008152600401610b5f9061449e565b60405180910390fd5b3073ffffffffffffffffffffffffffffffffffffffff1663d547741f83836040518363ffffffff1660e01b8152600401610ba3929190614233565b600060405180830381600087803b158015610bbd57600080fd5b505af1158015610bd1573d6000803e3d6000fd5b505050505050565b6000610be482611d38565b610c23576040517f08c379a0000000000000000000000000000000000000000000000000000000008152600401610c1a906143de565b60405180910390fd5b6006600083815260200190815260200160002060009054906101000a900473ffffffffffffffffffffffffffffffffffffffff169050919050565b6000610c698261127e565b90508073ffffffffffffffffffffffffffffffffffffffff168373ffffffffffffffffffffffffffffffffffffffff161415610cda576040517f08c379a0000000000000000000000000000000000000000000000000000000008152600401610cd19061443e565b60405180910390fd5b8073ffffffffffffffffffffffffffffffffffffffff16610cf9611da4565b73ffffffffffffffffffffffffffffffffffffffff161480610d285750610d2781610d22611da4565b611ab2565b5b610d67576040517f08c379a0000000000000000000000000000000000000000000000000000000008152600401610d5e9061435e565b60405180910390fd5b610d718383611dac565b505050565b6000610da27f55435dd261a4b9b3364963f7738a7a662ad9c84396d64be3365284bb7f0a504183611497565b9050919050565b610db233611a0a565b610df1576040517f08c379a0000000000000000000000000000000000000000000000000000000008152600401610de89061429e565b60405180910390fd5b610e1b7f829b824e2329e205435d941c9f13baf578548505283d29261236d8e6596d463682610fab565b50565b610e2733611a0a565b610e66576040517f08c379a0000000000000000000000000000000000000000000000000000000008152600401610e5d9061429e565b60405180910390fd5b610e907f9d98d3d08f0062b192694645e127c98e5f96f3bbec331d061acaac3ace2327f982610fab565b50565b610ea4610e9e611da4565b82611e65565b610ee3576040517f08c379a0000000000000000000000000000000000000000000000000000000008152600401610eda9061447e565b60405180910390fd5b610eee838383611f43565b505050565b6000806000838152602001908152602001600020600101549050919050565b7f55435dd261a4b9b3364963f7738a7a662ad9c84396d64be3365284bb7f0a504181565b610f3f33611a0a565b610f7e576040517f08c379a0000000000000000000000000000000000000000000000000000000008152600401610f759061429e565b60405180910390fd5b610fa87f9f2df0fed2c77648de5860a4cc508cd0818c85b8b8a1ab4ceeef8d981c8956a682610fab565b50565b610fb482610ef3565b610fc581610fc0611da4565b61219f565b610fcf838361223c565b505050565b6000610fdf336118eb565b61101e576040517f08c379a0000000000000000000000000000000000000000000000000000000008152600401611015906144be565b60405180910390fd5b6110286008612270565b905090565b611035611da4565b73ffffffffffffffffffffffffffffffffffffffff168173ffffffffffffffffffffffffffffffffffffffff16146110a2576040517f08c379a0000000000000000000000000000000000000000000000000000000008152600401611099906144de565b60405180910390fd5b6110ac828261227e565b5050565b7f899bd46557473cb80307a9dabc297131ced39608330a2d29b2d52b660c03923e81565b6110dd33611a0a565b61111c576040517f08c379a00000000000000000000000000000000000000000000000000000000081526004016111139061429e565b60405180910390fd5b6111467f899bd46557473cb80307a9dabc297131ced39608330a2d29b2d52b660c03923e82610fab565b50565b611152336118eb565b611191576040517f08c379a0000000000000000000000000000000000000000000000000000000008152600401611188906144be565b60405180910390fd5b600061119d6008612270565b90506111a960086122b2565b6111b382826122c8565b7f0e8f1329102f0782f62a7d1a4cabe52055721bce7cf1e4768db820abf1dc79e78282426040516111e6939291906141c6565b60405180910390a15050565b61120d83838360405180602001604052806000815250611749565b505050565b61121b33611a0a565b61125a576040517f08c379a00000000000000000000000000000000000000000000000000000000081526004016112519061429e565b60405180910390fd5b61126482826122e6565b5050565b565b61127381612341565b50565b600092915050565b6000806004600084815260200190815260200160002060009054906101000a900473ffffffffffffffffffffffffffffffffffffffff169050600073ffffffffffffffffffffffffffffffffffffffff168173ffffffffffffffffffffffffffffffffffffffff161415611327576040517f08c379a000000000000000000000000000000000000000000000000000000000815260040161131e9061439e565b60405180910390fd5b80915050919050565b505050565b60008073ffffffffffffffffffffffffffffffffffffffff168273ffffffffffffffffffffffffffffffffffffffff1614156113a6576040517f08c379a000000000000000000000000000000000000000000000000000000000815260040161139d9061437e565b60405180910390fd5b600560008373ffffffffffffffffffffffffffffffffffffffff1673ffffffffffffffffffffffffffffffffffffffff168152602001908152602001600020549050919050565b600c5481565b6113fc33611a0a565b61143b576040517f08c379a00000000000000000000000000000000000000000000000000000000081526004016114329061429e565b60405180910390fd5b6114657f829b824e2329e205435d941c9f13baf578548505283d29261236d8e6596d4636826119e1565b50565b600061148f826001600086815260200190815260200160002061245290919063ffffffff16565b905092915050565b600080600084815260200190815260200160002060000160008373ffffffffffffffffffffffffffffffffffffffff1673ffffffffffffffffffffffffffffffffffffffff16815260200190815260200160002060009054906101000a900460ff16905092915050565b61150a33611a0a565b611549576040517f08c379a00000000000000000000000000000000000000000000000000000000081526004016115409061429e565b60405180910390fd5b6115737f55435dd261a4b9b3364963f7738a7a662ad9c84396d64be3365284bb7f0a504182610fab565b50565b606060038054611585906147c6565b80601f01602080910402602001604051908101604052809291908181526020018280546115b1906147c6565b80156115fe5780601f106115d3576101008083540402835291602001916115fe565b820191906000526020600020905b8154815290600101906020018083116115e157829003601f168201915b5050505050905090565b600d602052816000526040600020602052806000526040600020600091509150505481565b7f829b824e2329e205435d941c9f13baf578548505283d29261236d8e6596d463681565b6000801b81565b61166a611663611da4565b838361246c565b5050565b600061169a7f829b824e2329e205435d941c9f13baf578548505283d29261236d8e6596d463683611497565b9050919050565b60006116cd7f9f2df0fed2c77648de5860a4cc508cd0818c85b8b8a1ab4ceeef8d981c8956a683611497565b9050919050565b6116dd33611a0a565b61171c576040517f08c379a00000000000000000000000000000000000000000000000000000000081526004016117139061429e565b60405180910390fd5b6117467f55435dd261a4b9b3364963f7738a7a662ad9c84396d64be3365284bb7f0a5041826119e1565b50565b61175a611754611da4565b83611e65565b611799576040517f08c379a00000000000000000000000000000000000000000000000000000000081526004016117909061447e565b60405180910390fd5b6117a5848484846125d9565b50505050565b6117b433611a0a565b6117f3576040517f08c379a00000000000000000000000000000000000000000000000000000000081526004016117ea9061429e565b60405180910390fd5b61181d7f9d98d3d08f0062b192694645e127c98e5f96f3bbec331d061acaac3ace2327f9826119e1565b50565b7f9d98d3d08f0062b192694645e127c98e5f96f3bbec331d061acaac3ace2327f981565b606061184f82611d38565b61188e576040517f08c379a00000000000000000000000000000000000000000000000000000000081526004016118859061441e565b60405180910390fd5b6000611898612635565b905060008151116118b857604051806020016040528060008152506118e3565b806118c284612655565b6040516020016118d3929190614101565b6040516020818303038152906040525b915050919050565b60006119177f9d98d3d08f0062b192694645e127c98e5f96f3bbec331d061acaac3ace2327f983611497565b9050919050565b600061193b60016000848152602001908152602001600020612802565b9050919050565b61194b33611a0a565b61198a576040517f08c379a00000000000000000000000000000000000000000000000000000000081526004016119819061429e565b60405180910390fd5b6119b47f9f2df0fed2c77648de5860a4cc508cd0818c85b8b8a1ab4ceeef8d981c8956a6826119e1565b50565b600f5481565b7f9f2df0fed2c77648de5860a4cc508cd0818c85b8b8a1ab4ceeef8d981c8956a681565b6119ea82610ef3565b6119fb816119f6611da4565b61219f565b611a05838361227e565b505050565b6000611a367f899bd46557473cb80307a9dabc297131ced39608330a2d29b2d52b660c03923e83611497565b9050919050565b611a4633611a0a565b611a85576040517f08c379a0000000000000000000000000000000000000000000000000000000008152600401611a7c9061429e565b60405180910390fd5b611aaf7f899bd46557473cb80307a9dabc297131ced39608330a2d29b2d52b660c03923e826119e1565b50565b6000600760008473ffffffffffffffffffffffffffffffffffffffff1673ffffffffffffffffffffffffffffffffffffffff16815260200190815260200160002060008373ffffffffffffffffffffffffffffffffffffffff1673ffffffffffffffffffffffffffffffffffffffff16815260200190815260200160002060009054906101000a900460ff16905092915050565b611b508282611497565b611c2257600160008084815260200190815260200160002060000160008373ffffffffffffffffffffffffffffffffffffffff1673ffffffffffffffffffffffffffffffffffffffff16815260200190815260200160002060006101000a81548160ff021916908315150217905550611bc7611da4565b73ffffffffffffffffffffffffffffffffffffffff168173ffffffffffffffffffffffffffffffffffffffff16837f2f8788117e7eff1d82e926ec794901d17c78024a50270940304540a733656f0d60405160405180910390a45b5050565b6000611c4e836000018373ffffffffffffffffffffffffffffffffffffffff1660001b612817565b905092915050565b60007f80ac58cd000000000000000000000000000000000000000000000000000000007bffffffffffffffffffffffffffffffffffffffffffffffffffffffff1916827bffffffffffffffffffffffffffffffffffffffffffffffffffffffff19161480611d2157507f5b5e139f000000000000000000000000000000000000000000000000000000007bffffffffffffffffffffffffffffffffffffffffffffffffffffffff1916827bffffffffffffffffffffffffffffffffffffffffffffffffffffffff1916145b80611d315750611d3082612887565b5b9050919050565b60008073ffffffffffffffffffffffffffffffffffffffff166004600084815260200190815260200160002060009054906101000a900473ffffffffffffffffffffffffffffffffffffffff1673ffffffffffffffffffffffffffffffffffffffff1614159050919050565b600033905090565b816006600083815260200190815260200160002060006101000a81548173ffffffffffffffffffffffffffffffffffffffff021916908373ffffffffffffffffffffffffffffffffffffffff160217905550808273ffffffffffffffffffffffffffffffffffffffff16611e1f8361127e565b73ffffffffffffffffffffffffffffffffffffffff167f8c5be1e5ebec7d5bd14f71427d1e84f3dd0314c0f7b2291e5b200ac8c7c3b92560405160405180910390a45050565b6000611e7082611d38565b611eaf576040517f08c379a0000000000000000000000000000000000000000000000000000000008152600401611ea69061433e565b60405180910390fd5b6000611eba8361127e565b90508073ffffffffffffffffffffffffffffffffffffffff168473ffffffffffffffffffffffffffffffffffffffff161480611f2957508373ffffffffffffffffffffffffffffffffffffffff16611f1184610bd9565b73ffffffffffffffffffffffffffffffffffffffff16145b80611f3a5750611f398185611ab2565b5b91505092915050565b8273ffffffffffffffffffffffffffffffffffffffff16611f638261127e565b73ffffffffffffffffffffffffffffffffffffffff1614611fb9576040517f08c379a0000000000000000000000000000000000000000000000000000000008152600401611fb0906143fe565b60405180910390fd5b600073ffffffffffffffffffffffffffffffffffffffff168273ffffffffffffffffffffffffffffffffffffffff161415612029576040517f08c379a0000000000000000000000000000000000000000000000000000000008152600401612020906142fe565b60405180910390fd5b612034838383612901565b61203f600082611dac565b6001600560008573ffffffffffffffffffffffffffffffffffffffff1673ffffffffffffffffffffffffffffffffffffffff168152602001908152602001600020600082825461208f919061469e565b925050819055506001600560008473ffffffffffffffffffffffffffffffffffffffff1673ffffffffffffffffffffffffffffffffffffffff16815260200190815260200160002060008282546120e691906145bd565b92505081905550816004600083815260200190815260200160002060006101000a81548173ffffffffffffffffffffffffffffffffffffffff021916908373ffffffffffffffffffffffffffffffffffffffff160217905550808273ffffffffffffffffffffffffffffffffffffffff168473ffffffffffffffffffffffffffffffffffffffff167fddf252ad1be2c89b69c2b068fc378daa952ba7f163c4a11628f55a4df523b3ef60405160405180910390a4505050565b6121a98282611497565b612238576121ce8173ffffffffffffffffffffffffffffffffffffffff166014612906565b6121dc8360001c6020612906565b6040516020016121ed929190614125565b6040516020818303038152906040526040517f08c379a000000000000000000000000000000000000000000000000000000000815260040161222f919061425c565b60405180910390fd5b5050565b6122468282611b46565b61226b8160016000858152602001908152602001600020611c2690919063ffffffff16565b505050565b600081600001549050919050565b6122888282612c00565b6122ad8160016000858152602001908152602001600020612ce190919063ffffffff16565b505050565b6001816000016000828254019250508190555050565b6122e2828260405180602001604052806000815250612d11565b5050565b60006122f183610ef3565b905081600080858152602001908152602001600020600101819055508181847fbd79b86ffe0ab8e8776151514217cd7cacd52c909f66475c3af44e129f0b00ff60405160405180910390a4505050565b600061234c8261127e565b905061235a81600084612901565b612365600083611dac565b6001600560008373ffffffffffffffffffffffffffffffffffffffff1673ffffffffffffffffffffffffffffffffffffffff16815260200190815260200160002060008282546123b5919061469e565b925050819055506004600083815260200190815260200160002060006101000a81549073ffffffffffffffffffffffffffffffffffffffff021916905581600073ffffffffffffffffffffffffffffffffffffffff168273ffffffffffffffffffffffffffffffffffffffff167fddf252ad1be2c89b69c2b068fc378daa952ba7f163c4a11628f55a4df523b3ef60405160405180910390a45050565b60006124618360000183612d6c565b60001c905092915050565b8173ffffffffffffffffffffffffffffffffffffffff168373ffffffffffffffffffffffffffffffffffffffff1614156124db576040517f08c379a00000000000000000000000000000000000000000000000000000000081526004016124d29061431e565b60405180910390fd5b80600760008573ffffffffffffffffffffffffffffffffffffffff1673ffffffffffffffffffffffffffffffffffffffff16815260200190815260200160002060008473ffffffffffffffffffffffffffffffffffffffff1673ffffffffffffffffffffffffffffffffffffffff16815260200190815260200160002060006101000a81548160ff0219169083151502179055508173ffffffffffffffffffffffffffffffffffffffff168373ffffffffffffffffffffffffffffffffffffffff167f17307eab39ab6107e8899845ad3d59bd9653f200f220920489ca2b5937696c31836040516125cc91906141fd565b60405180910390a3505050565b6125e4848484611f43565b6125f084848484612dbd565b61262f576040517f08c379a0000000000000000000000000000000000000000000000000000000008152600401612626906142be565b60405180910390fd5b50505050565b60606040518060600160405280603781526020016149ca60379139905090565b6060600082141561269d576040518060400160405280600181526020017f300000000000000000000000000000000000000000000000000000000000000081525090506127fd565b600082905060005b600082146126cf5780806126b8906147f8565b915050600a826126c89190614613565b91506126a5565b60008167ffffffffffffffff811115612711577f4e487b7100000000000000000000000000000000000000000000000000000000600052604160045260246000fd5b6040519080825280601f01601f1916602001820160405280156127435781602001600182028036833780820191505090505b5090505b600085146127f65760018261275c919061469e565b9150600a8561276b9190614841565b603061277791906145bd565b60f81b8183815181106127b3577f4e487b7100000000000000000000000000000000000000000000000000000000600052603260045260246000fd5b60200101907effffffffffffffffffffffffffffffffffffffffffffffffffffffffffffff1916908160001a905350600a856127ef9190614613565b9450612747565b8093505050505b919050565b600061281082600001612f54565b9050919050565b60006128238383612f65565b61287c578260000182908060018154018082558091505060019003906000526020600020016000909190919091505582600001805490508360010160008481526020019081526020016000208190555060019050612881565b600090505b92915050565b60007f5a05180f000000000000000000000000000000000000000000000000000000007bffffffffffffffffffffffffffffffffffffffffffffffffffffffff1916827bffffffffffffffffffffffffffffffffffffffffffffffffffffffff191614806128fa57506128f982612f88565b5b9050919050565b505050565b6060600060028360026129199190614644565b61292391906145bd565b67ffffffffffffffff811115612962577f4e487b7100000000000000000000000000000000000000000000000000000000600052604160045260246000fd5b6040519080825280601f01601f1916602001820160405280156129945781602001600182028036833780820191505090505b5090507f3000000000000000000000000000000000000000000000000000000000000000816000815181106129f2577f4e487b7100000000000000000000000000000000000000000000000000000000600052603260045260246000fd5b60200101907effffffffffffffffffffffffffffffffffffffffffffffffffffffffffffff1916908160001a9053507f780000000000000000000000000000000000000000000000000000000000000081600181518110612a7c577f4e487b7100000000000000000000000000000000000000000000000000000000600052603260045260246000fd5b60200101907effffffffffffffffffffffffffffffffffffffffffffffffffffffffffffff1916908160001a90535060006001846002612abc9190614644565b612ac691906145bd565b90505b6001811115612bb2577f3031323334353637383961626364656600000000000000000000000000000000600f861660108110612b2e577f4e487b7100000000000000000000000000000000000000000000000000000000600052603260045260246000fd5b1a60f81b828281518110612b6b577f4e487b7100000000000000000000000000000000000000000000000000000000600052603260045260246000fd5b60200101907effffffffffffffffffffffffffffffffffffffffffffffffffffffffffffff1916908160001a905350600485901c945080612bab9061479c565b9050612ac9565b5060008414612bf6576040517f08c379a0000000000000000000000000000000000000000000000000000000008152600401612bed9061427e565b60405180910390fd5b8091505092915050565b612c0a8282611497565b15612cdd57600080600084815260200190815260200160002060000160008373ffffffffffffffffffffffffffffffffffffffff1673ffffffffffffffffffffffffffffffffffffffff16815260200190815260200160002060006101000a81548160ff021916908315150217905550612c82611da4565b73ffffffffffffffffffffffffffffffffffffffff168173ffffffffffffffffffffffffffffffffffffffff16837ff6391f5c32d9c69d2a47ea670b442974b53935d1edc7fd64eb21e047a839171b60405160405180910390a45b5050565b6000612d09836000018373ffffffffffffffffffffffffffffffffffffffff1660001b613002565b905092915050565b612d1b8383613188565b612d286000848484612dbd565b612d67576040517f08c379a0000000000000000000000000000000000000000000000000000000008152600401612d5e906142be565b60405180910390fd5b505050565b6000826000018281548110612daa577f4e487b7100000000000000000000000000000000000000000000000000000000600052603260045260246000fd5b9060005260206000200154905092915050565b6000612dde8473ffffffffffffffffffffffffffffffffffffffff16613356565b15612f47578373ffffffffffffffffffffffffffffffffffffffff1663150b7a02612e07611da4565b8786866040518563ffffffff1660e01b8152600401612e29949392919061417a565b602060405180830381600087803b158015612e4357600080fd5b505af1925050508015612e7457506040513d601f19601f82011682018060405250810190612e7191906137ca565b60015b612ef7573d8060008114612ea4576040519150601f19603f3d011682016040523d82523d6000602084013e612ea9565b606091505b50600081511415612eef576040517f08c379a0000000000000000000000000000000000000000000000000000000008152600401612ee6906142be565b60405180910390fd5b805181602001fd5b63150b7a0260e01b7bffffffffffffffffffffffffffffffffffffffffffffffffffffffff1916817bffffffffffffffffffffffffffffffffffffffffffffffffffffffff191614915050612f4c565b600190505b949350505050565b600081600001805490509050919050565b600080836001016000848152602001908152602001600020541415905092915050565b60007f7965db0b000000000000000000000000000000000000000000000000000000007bffffffffffffffffffffffffffffffffffffffffffffffffffffffff1916827bffffffffffffffffffffffffffffffffffffffffffffffffffffffff19161480612ffb5750612ffa82613369565b5b9050919050565b6000808360010160008481526020019081526020016000205490506000811461317c576000600182613034919061469e565b905060006001866000018054905061304c919061469e565b9050818114613107576000866000018281548110613093577f4e487b7100000000000000000000000000000000000000000000000000000000600052603260045260246000fd5b90600052602060002001549050808760000184815481106130dd577f4e487b7100000000000000000000000000000000000000000000000000000000600052603260045260246000fd5b90600052602060002001819055508387600101600083815260200190815260200160002081905550505b85600001805480613141577f4e487b7100000000000000000000000000000000000000000000000000000000600052603160045260246000fd5b600190038181906000526020600020016000905590558560010160008681526020019081526020016000206000905560019350505050613182565b60009150505b92915050565b600073ffffffffffffffffffffffffffffffffffffffff168273ffffffffffffffffffffffffffffffffffffffff1614156131f8576040517f08c379a00000000000000000000000000000000000000000000000000000000081526004016131ef906143be565b60405180910390fd5b61320181611d38565b15613241576040517f08c379a0000000000000000000000000000000000000000000000000000000008152600401613238906142de565b60405180910390fd5b61324d60008383612901565b6001600560008473ffffffffffffffffffffffffffffffffffffffff1673ffffffffffffffffffffffffffffffffffffffff168152602001908152602001600020600082825461329d91906145bd565b92505081905550816004600083815260200190815260200160002060006101000a81548173ffffffffffffffffffffffffffffffffffffffff021916908373ffffffffffffffffffffffffffffffffffffffff160217905550808273ffffffffffffffffffffffffffffffffffffffff16600073ffffffffffffffffffffffffffffffffffffffff167fddf252ad1be2c89b69c2b068fc378daa952ba7f163c4a11628f55a4df523b3ef60405160405180910390a45050565b600080823b905060008111915050919050565b60007f01ffc9a7000000000000000000000000000000000000000000000000000000007bffffffffffffffffffffffffffffffffffffffffffffffffffffffff1916827bffffffffffffffffffffffffffffffffffffffffffffffffffffffff1916149050919050565b60006133e66133e18461454a565b614519565b9050828152602081018484840111156133fe57600080fd5b61340984828561475a565b509392505050565b6000813590506134208161493f565b92915050565b60008135905061343581614956565b92915050565b60008135905061344a8161496d565b92915050565b60008135905061345f81614984565b92915050565b60008151905061347481614984565b92915050565b600082601f83011261348b57600080fd5b813561349b8482602086016133d3565b91505092915050565b6000813590506134b38161499b565b92915050565b6000813590506134c8816149b2565b92915050565b6000602082840312156134e057600080fd5b60006134ee84828501613411565b91505092915050565b6000806040838503121561350a57600080fd5b600061351885828601613411565b925050602061352985828601613411565b9150509250929050565b60008060006060848603121561354857600080fd5b600061355686828701613411565b935050602061356786828701613411565b9250506040613578868287016134b9565b9150509250925092565b6000806000806080858703121561359857600080fd5b60006135a687828801613411565b94505060206135b787828801613411565b93505060406135c8878288016134b9565b925050606085013567ffffffffffffffff8111156135e557600080fd5b6135f18782880161347a565b91505092959194509250565b6000806040838503121561361057600080fd5b600061361e85828601613411565b925050602061362f85828601613426565b9150509250929050565b6000806040838503121561364c57600080fd5b600061365a85828601613411565b925050602061366b858286016134b9565b9150509250929050565b60008060006060848603121561368a57600080fd5b600061369886828701613426565b93505060206136a9868287016134a4565b92505060406136ba868287016134b9565b9150509250925092565b6000602082840312156136d657600080fd5b60006136e48482850161343b565b91505092915050565b6000806040838503121561370057600080fd5b600061370e8582860161343b565b925050602061371f85828601613411565b9150509250929050565b6000806040838503121561373c57600080fd5b600061374a8582860161343b565b925050602061375b8582860161343b565b9150509250929050565b6000806040838503121561377857600080fd5b60006137868582860161343b565b9250506020613797858286016134b9565b9150509250929050565b6000602082840312156137b357600080fd5b60006137c184828501613450565b91505092915050565b6000602082840312156137dc57600080fd5b60006137ea84828501613465565b91505092915050565b60006020828403121561380557600080fd5b6000613813848285016134b9565b91505092915050565b613825816146d2565b82525050565b613834816146e4565b82525050565b613843816146f0565b82525050565b60006138548261457a565b61385e8185614590565b935061386e818560208601614769565b6138778161492e565b840191505092915050565b600061388d82614585565b61389781856145a1565b93506138a7818560208601614769565b6138b08161492e565b840191505092915050565b60006138c682614585565b6138d081856145b2565b93506138e0818560208601614769565b80840191505092915050565b60006138f96020836145a1565b91507f537472696e67733a20686578206c656e67746820696e73756666696369656e746000830152602082019050919050565b60006139396025836145a1565b91507f5065726d697373696f6e733a2043616c6c6572206973206e6f74206120676f7660008301527f65726e6f720000000000000000000000000000000000000000000000000000006020830152604082019050919050565b600061399f6032836145a1565b91507f4552433732313a207472616e7366657220746f206e6f6e20455243373231526560008301527f63656976657220696d706c656d656e74657200000000000000000000000000006020830152604082019050919050565b6000613a05601c836145a1565b91507f4552433732313a20746f6b656e20616c7265616479206d696e746564000000006000830152602082019050919050565b6000613a456024836145a1565b91507f4552433732313a207472616e7366657220746f20746865207a65726f2061646460008301527f72657373000000000000000000000000000000000000000000000000000000006020830152604082019050919050565b6000613aab6019836145a1565b91507f4552433732313a20617070726f766520746f2063616c6c6572000000000000006000830152602082019050919050565b6000613aeb602c836145a1565b91507f4552433732313a206f70657261746f7220717565727920666f72206e6f6e657860008301527f697374656e7420746f6b656e00000000000000000000000000000000000000006020830152604082019050919050565b6000613b516038836145a1565b91507f4552433732313a20617070726f76652063616c6c6572206973206e6f74206f7760008301527f6e6572206e6f7220617070726f76656420666f7220616c6c00000000000000006020830152604082019050919050565b6000613bb7602a836145a1565b91507f4552433732313a2062616c616e636520717565727920666f7220746865207a6560008301527f726f2061646472657373000000000000000000000000000000000000000000006020830152604082019050919050565b6000613c1d6029836145a1565b91507f4552433732313a206f776e657220717565727920666f72206e6f6e657869737460008301527f656e7420746f6b656e00000000000000000000000000000000000000000000006020830152604082019050919050565b6000613c836020836145a1565b91507f4552433732313a206d696e7420746f20746865207a65726f20616464726573736000830152602082019050919050565b6000613cc3602c836145a1565b91507f4552433732313a20617070726f76656420717565727920666f72206e6f6e657860008301527f697374656e7420746f6b656e00000000000000000000000000000000000000006020830152604082019050919050565b6000613d296029836145a1565b91507f4552433732313a207472616e73666572206f6620746f6b656e2074686174206960008301527f73206e6f74206f776e00000000000000000000000000000000000000000000006020830152604082019050919050565b6000613d8f602f836145a1565b91507f4552433732314d657461646174613a2055524920717565727920666f72206e6f60008301527f6e6578697374656e7420746f6b656e00000000000000000000000000000000006020830152604082019050919050565b6000613df56021836145a1565b91507f4552433732313a20617070726f76616c20746f2063757272656e74206f776e6560008301527f72000000000000000000000000000000000000000000000000000000000000006020830152604082019050919050565b6000613e5b6025836145a1565b91507f5065726d697373696f6e733a2043616c6c6572206973206e6f7420612067756160008301527f726469616e0000000000000000000000000000000000000000000000000000006020830152604082019050919050565b6000613ec16031836145a1565b91507f4552433732313a207472616e736665722063616c6c6572206973206e6f74206f60008301527f776e6572206e6f7220617070726f7665640000000000000000000000000000006020830152604082019050919050565b6000613f27602c836145a1565b91507f5065726d697373696f6e733a20477561726469616e2063616e6e6f742072657660008301527f6f6b6520676f7665726e6f7200000000000000000000000000000000000000006020830152604082019050919050565b6000613f8d6017836145b2565b91507f416363657373436f6e74726f6c3a206163636f756e74200000000000000000006000830152601782019050919050565b6000613fcd6046836145a1565b91507f5065726d697373696f6e733a2043616c6c6572206973206e6f7420612046756e60008301527f64734d616e616765722070726f746f636f6c277320636f6e747261637420696e60208301527f7374616e636500000000000000000000000000000000000000000000000000006040830152606082019050919050565b60006140596011836145b2565b91507f206973206d697373696e6720726f6c65200000000000000000000000000000006000830152601182019050919050565b6000614099602f836145a1565b91507f416363657373436f6e74726f6c3a2063616e206f6e6c792072656e6f756e636560008301527f20726f6c657320666f722073656c6600000000000000000000000000000000006020830152604082019050919050565b6140fb81614750565b82525050565b600061410d82856138bb565b915061411982846138bb565b91508190509392505050565b600061413082613f80565b915061413c82856138bb565b91506141478261404c565b915061415382846138bb565b91508190509392505050565b6000602082019050614174600083018461381c565b92915050565b600060808201905061418f600083018761381c565b61419c602083018661381c565b6141a960408301856140f2565b81810360608301526141bb8184613849565b905095945050505050565b60006060820190506141db600083018661381c565b6141e860208301856140f2565b6141f560408301846140f2565b949350505050565b6000602082019050614212600083018461382b565b92915050565b600060208201905061422d600083018461383a565b92915050565b6000604082019050614248600083018561383a565b614255602083018461381c565b9392505050565b600060208201905081810360008301526142768184613882565b905092915050565b60006020820190508181036000830152614297816138ec565b9050919050565b600060208201905081810360008301526142b78161392c565b9050919050565b600060208201905081810360008301526142d781613992565b9050919050565b600060208201905081810360008301526142f7816139f8565b9050919050565b6000602082019050818103600083015261431781613a38565b9050919050565b6000602082019050818103600083015261433781613a9e565b9050919050565b6000602082019050818103600083015261435781613ade565b9050919050565b6000602082019050818103600083015261437781613b44565b9050919050565b6000602082019050818103600083015261439781613baa565b9050919050565b600060208201905081810360008301526143b781613c10565b9050919050565b600060208201905081810360008301526143d781613c76565b9050919050565b600060208201905081810360008301526143f781613cb6565b9050919050565b6000602082019050818103600083015261441781613d1c565b9050919050565b6000602082019050818103600083015261443781613d82565b9050919050565b6000602082019050818103600083015261445781613de8565b9050919050565b6000602082019050818103600083015261447781613e4e565b9050919050565b6000602082019050818103600083015261449781613eb4565b9050919050565b600060208201905081810360008301526144b781613f1a565b9050919050565b600060208201905081810360008301526144d781613fc0565b9050919050565b600060208201905081810360008301526144f78161408c565b9050919050565b600060208201905061451360008301846140f2565b92915050565b6000604051905081810181811067ffffffffffffffff821117156145405761453f6148ff565b5b8060405250919050565b600067ffffffffffffffff821115614565576145646148ff565b5b601f19601f8301169050602081019050919050565b600081519050919050565b600081519050919050565b600082825260208201905092915050565b600082825260208201905092915050565b600081905092915050565b60006145c882614750565b91506145d383614750565b9250827fffffffffffffffffffffffffffffffffffffffffffffffffffffffffffffffff0382111561460857614607614872565b5b828201905092915050565b600061461e82614750565b915061462983614750565b925082614639576146386148a1565b5b828204905092915050565b600061464f82614750565b915061465a83614750565b9250817fffffffffffffffffffffffffffffffffffffffffffffffffffffffffffffffff048311821515161561469357614692614872565b5b828202905092915050565b60006146a982614750565b91506146b483614750565b9250828210156146c7576146c6614872565b5b828203905092915050565b60006146dd82614730565b9050919050565b60008115159050919050565b6000819050919050565b60007fffffffff0000000000000000000000000000000000000000000000000000000082169050919050565b6000819050919050565b600073ffffffffffffffffffffffffffffffffffffffff82169050919050565b6000819050919050565b82818337600083830152505050565b60005b8381101561478757808201518184015260208101905061476c565b83811115614796576000848401525b50505050565b60006147a782614750565b915060008214156147bb576147ba614872565b5b600182039050919050565b600060028204905060018216806147de57607f821691505b602082108114156147f2576147f16148d0565b5b50919050565b600061480382614750565b91507fffffffffffffffffffffffffffffffffffffffffffffffffffffffffffffffff82141561483657614835614872565b5b600182019050919050565b600061484c82614750565b915061485783614750565b925082614867576148666148a1565b5b828206905092915050565b7f4e487b7100000000000000000000000000000000000000000000000000000000600052601160045260246000fd5b7f4e487b7100000000000000000000000000000000000000000000000000000000600052601260045260246000fd5b7f4e487b7100000000000000000000000000000000000000000000000000000000600052602260045260246000fd5b7f4e487b7100000000000000000000000000000000000000000000000000000000600052604160045260246000fd5b6000601f19601f8301169050919050565b614948816146d2565b811461495357600080fd5b50565b61495f816146e4565b811461496a57600080fd5b50565b614976816146f0565b811461498157600080fd5b50565b61498d816146fa565b811461499857600080fd5b50565b6149a481614726565b81146149af57600080fd5b50565b6149bb81614750565b81146149c657600080fd5b5056fe697066733a2f2f626c61626c615f6d617374657270696563655f67656e6172745f62795f73757061647570614e4654737461722e6d7034a2646970667358221220d3109553d8c849135e6325c44d509b9ce295abc62822c1bd00bca2fce81d6f2f64736f6c63430008000033",
  "immutableReferences": {},
  "source": "// SPDX-License-Identifier: GPL-3.0-or-later\npragma solidity ^0.8.0;\n\n\n/** Simplify: make it ERC-721 instead of ERC-1155 for now **/\nimport \"@openzeppelin/contracts/token/ERC721/ERC721.sol\";\nimport \"@openzeppelin/contracts/token/ERC721/extensions/ERC721Enumerable.sol\";\nimport \"@openzeppelin/contracts/token/ERC721/extensions/ERC721Burnable.sol\";\nimport \"@openzeppelin/contracts/token/ERC721/utils/ERC721Holder.sol\";\nimport \"@openzeppelin/contracts/token/ERC721/extensions/ERC721URIStorage.sol\";\nimport \"@openzeppelin/contracts/utils/Context.sol\";\nimport \"@openzeppelin/contracts/utils/Counters.sol\";\n//import \"@openzeppelin/contracts/access/Ownable.sol\";\nimport \"@openzeppelin/contracts/utils/math/SafeMath.sol\";\n//import \"@openzeppelin/contracts/utils/Arrays.sol\";  // not used so far\n\n// for defining role-based access control:\n//import \"@openzeppelin/contracts/access/AccessControlEnumerable.sol\";\nimport \"./FundsManager.sol\";\nimport \"./Permissions.sol\";\n//import \"./IRequestForContent.sol\";\n\ncontract RequestForContent is Permissions, /*IRequestForContent, */ERC721 {          \n\n    using Counters for Counters.Counter;\n    using SafeMath for uint256;\n\n    Counters.Counter private tokenIdTracker;\n    \n    // tracking address of an NFT through its id should likely be done off-chain => with web3.js!! \n\n    mapping (address => Counters.Counter) private rfcNFTTokenAddressAssociatedID;\n\n    address private owner;\n\n    uint256 private fundsPooledForRfC;  // should be set after mint...? (because unknown at proposal)\n\n    uint256 public allocatedBudgetForPC; // see if you tokenize this (probably)\n\n    mapping (address => mapping(address => uint256)) public trackFundsUseByCP; // see if doable in a simple way for now\n\n    //FundsManager fundsManager /* = address of contract deployed on the testnet*/;\n\n    /**\n    *\n    *   \n    *   REQUEST FOR CONTENT ELEMENTS OF DEFINITION => just a sketch at this step \n    *   (will include on-chain Proofs, etc. to increase trustless aspect, and decrease ways for CPs to cheat, \n    *   or anticipate on most possible disagreements)\n    *\n    * \n    **/\n\n    //(Phases/Cycles/Steps/)**Components that can translated *unambiguously* in a requirement** for the Content delivery:\n\n    enum DeliveryStatus {\n        investorsVote,\n        cancelled,  //can happen at several stage on a mechanism of coordination between investors (that you might not implement\n                    // for this iteration)\n        mintedRfC,\n        CPsProposition,\n        contentInProduction, // pendingDelivery (?)\n        contentDelivered,\n        qualityEvaluation,  // not sure I will implement any mechanism fo that at this point   \n        contentAccepted,    //triggers the CP(s) payment\n        contentRefusedAsIs, // starts a new proposition for CP(s) (either calling the function \"contentEnrichment()\", or resets\n                            // to CPsProposition step (it avoids cost of new minting and the cost of the compounded Yield assotiated \n                            // operations))\n        contentAccessibleByInvestors,\n        contentAccessForEveryone,\n        //...,\n        unknown\n    }\n\n    DeliveryStatus RfCRoundStatus;\n\n    //>>>>>>Request for Content tokenization definition - check the way Gnosis tokenizes its \"rich-logic/data tokens\":<<<<<<<<\\\\\n\n\n    //mandatory\n    enum When {\n        Live,\n        Stored,\n        Archived\n    }\n\n    When when;\n\n    enum ContentMediumDelivered {\n        NFT,\n        Stream,\n        Video,\n        Audio,\n        Article,\n        Software,\n        //...,\n        undefined               // => just used to disqualified a proposal before it reaches the proposal round (there will be also a grey/uncliclable \n                                // are as long as the proposal don't include this mandatory field)\n    }\n\n    ContentMediumDelivered contentMedium;\n\n        // => result which could be passed in a tx from the frontend would be a value that triggers a certain call among the ERC1155 functions:\n        //  _mint(), and with more time (TO DO), more complex integrations like call to mint an NFT of a LivePeer video feed, etc.\n\n    //optional for definition from the user and the minting of an RfC(not for the CP)\n    enum ContentDigitalFileFormats {\n        EthBlock,\n        EthTx,\n        jpg,\n        gif,\n        raw,\n        svg,\n        mp4,\n        mp3,\n        ogg,\n        txt,\n        pdf,\n        latex,\n        css,\n        html,\n        javascript,\n        typescript,\n        rust,\n        WindowsExe,\n        LinuxApp,\n        dockerizedImage,\n        //...,\n        undefined\n    }\n        // => result: add a component (that can be split later if necessary) to the RfC tokenized set of requirements\n    ContentDigitalFileFormats fileFormat;\n\n    //optional\n    enum PlatformCompatibilityAtDelivery {\n        OpenSea,\n        LivePeer,\n        Audius,\n        Filecoin,\n        Arweave,\n        Siacoin,\n        //...,\n        undefined\n    }\n\n    PlatformCompatibilityAtDelivery integratedTo;    \n\n    //mandatory\n    enum StoragePlatformUsedToDeliverContent {\n        EthBlocks,\n        IPFS,\n        Arweave,\n        Siacoin,\n        OpenSea,\n        LivePeer,\n        Audius,\n        AWS,\n        Azure,\n        //...,\n        undefined\n    }\n\n    StoragePlatformUsedToDeliverContent storageSolution;\n\n    // optional => can be forgotten for the purpose of this final project (just an exemple of how multiple use cases could be integrated in the protocol)\n    enum dataAPIToBeUsed {\n        Google,\n        GoogleMap,\n        TheGraph,\n        //...,\n        undefined\n    }\n\n    dataAPIToBeUsed apiUsed;\n\n    //mandatory => define further and more clearly the use of this choice of collateral => and maybe it will require more fields if it \n    // has to be decided for several uses in the protocol\n    enum ContentIsRedeemableFor {\n        ETH,\n        WETH,\n        wFIL,\n        WBTC,\n        LVP,\n        //...,\n        USDT,\n        wUST,\n        DAI,\n        DecentralandIsland,\n        SandboxSpace\n    } \n\n    ContentIsRedeemableFor contentRedeemableFor; \n\n    uint256 public timeForDelivery;\n\n\n    // Set arrays with values from enums passed (and checked for validity) from web3/MM tx \n    //The RfC struct, leading to the set of components and properties to be eventually tokenized as representing the request for content\n    \n    struct RequestForContentStruct {\n        //Define 1st the \"mandatory\" fields (for the RfC to even be considered to be proposed )\n        // set arrays with possibly several values of one enum\n        string[] contentTimeRequirements;\n        string[] media;\n        string[] storageSolutions;\n        string[] fileFormats;\n        string[] contentIntegrations;\n        string[] redeemableFor;\n        //...;\n        //Properties[] RfCProperties;\n    }\n\n    //read function of te struct to extract offsets for properties, and metadata to be used, like length, etc.\n    // function readRfCStruct(RequestForContent RfC) internal returns(int256 length, uint256[] proertiesOffsets, ..?) {\n    //     //TO DO\n    // }\n\n    modifier onlyOwner() {\n        require(msg.sender == owner, \"the caller is not the FundsManager contract\");\n        _;\n    }\n\n    event RfCProposal(address proposer, bool success);\n\n    event RfCMinted(address indexed RfCTokenAddress, uint256 RfCidCounter); // => get the token address through web3.js and keep a dynamic array of the NFT address and Ids, so you can use this \n                                                                            //  data somewhere else in the contract\n\n    //event RfCCPselected();\n\n\n    //Set a RfC structure (built with inputs from the Proposer) to enter the proposal to CPs cycle will require from investors to commit funds/send funds to the escrow \n    // contract\n\n    //RfC struct has to pass some basic conditions: => make those part of your tests (?)\n    // length != null\n    // length > 0 \n    // components <= 256 (check if data type like struct can have more elements??)\n    // controls on the mandatory fields (to be defined in your contract - eg. at least one contentType, etc.) \n\n     //modifiers:\n\n\n    event SucessfullyMinted(address RfC, uint256 id, uint256 time);\n\n    // Definitively better if you can do all that with ERC1155.... Otherwise get back to Ownable pattern\n    constructor() ERC721(\"RequestForContent\", \"RFC\") {\n        \n    }\n\n    // avoid err double inheritance of supportsInterface in this contract \n    function supportsInterface(bytes4 interfaceId) \n    public \n    view \n    virtual \n    override(\n        ERC721, \n        AccessControlEnumerable\n        ) \n        returns (bool) {\n        return super.supportsInterface(interfaceId);\n    }\n\n    function getRfCTracker() external onlyFMProxy returns (uint256) { \n        return tokenIdTracker.current();\n    }\n\n    function getRfCNFTTokenAddress(uint256 _rfcId) internal returns (address) {\n\n\n        //return \n    }\n\n    function _baseURI() internal pure override returns (string memory) {\n        return \"ipfs://blabla_masterpiece_genart_by_supadupaNFTstar.mp4\";\n    }\n\n\n    function safeMint(address to) external onlyFMProxy {\n        uint256 tokenId = tokenIdTracker.current();\n        tokenIdTracker.increment();\n        _safeMint(to, tokenId);\n\n        emit SucessfullyMinted(to, tokenId, block.timestamp);   // \"now\" gives the time in unix standard = make a conversion in your js\n    }\n\n    // The following functions are overrides required by Solidity.\n\n    // function _beforeTokenTransfer(address from, address to, uint256 tokenId)\n    //     internal\n    //     override(ERC721, ERC721Enumerable)\n    // {\n    //     super._beforeTokenTransfer(from, to, tokenId);\n    // }\n\n    // function supportsInterface(bytes4 interfaceId)\n    //     public\n    //     view\n    //     override(ERC721, ERC721Enumerable, AccessControl)\n    //     returns (bool)\n    // {\n    //     return super.supportsInterface(interfaceId);\n    // }\n\n\n    /** \n    \n        >>>CHECK what you should keep, as what precedes are the standard functions of NFTs (=> OpenZeppelin Contracts Wizard)<<<\n    \n    **/\n\n    function setEnums(uint256 _data) internal {\n        // Find a way (simpler) than with offsets in bytes, but if necessary... do it\n        //contentTimeRequirements = ...; \n    }\n\n    /** ==>>> NEW IDEA TO IMPLEMENT THE \"Check the values for RfC to be valid, and then only minted... <<<=== **/\n    // You likely should use the utils/Arrays.sol OpenZeppelin contract to iterate (knowing they will have minimize space and gas overhead):\n    //  adding import \"@openzeppelin/contracts/utils/Arrays.sol\"; => and then takes the values sent through the frontend (or better: \n    //  update the frontend listing with the values of your smart contract! => the limited set that the protocol integrates at a given time and that\n    //  protocol's particpants can use to define an RfC)\n    function setRfCForMint() internal /**returns (RequestForContentStruct RfC)**/ {\n\n        //cf. above: TO DO\n\n        // set struct with the values set in setEnums:\n        //RequestForContentStruct.When = when;\n        //RequestForContentStruct.ContentTypeDelivered = _contentType;\n        //...\n\n    } \n\n        // =>>>>> USE THIS struct states to avoid 2 mints and keep this track state during the CP silent auction\n\n    // Then, once CP selected, mint it (wit the info like fundsAllocated, etc. that allow to leverage ERC1155 possibilities):\n    function setRfCReadyForMint(bool isFunded, int256 fundsPooledInvestorsAmount, uint256 fundsPooledCPsAmount) external {\n\n        //TO DO\n        //mintRfC()\n\n        //NFT minted, incorporating the possibilities to be then splitted (as for Gnosis Conditional Tokens)\n    }\n\n    function burnRfCInCaseNotPassed(uint256 _tmpRfCId) external {\n        _burn(_tmpRfCId);\n    }\n\n    // //Following ERC1155 standard:\n    // //minting the RfC => calls to ERC1155 contracts/interfaces (import them)\n    // function mintRfC() external {\n    //     //To do in order to check that the data from the transaction coming are in the set of RfC valid inputs => loop through the enum (or\n    //     //  anything more efficient/involving less computation ops...)\n\n    //     _mint(toRfCEscrow, RfCId,  )\n\n    // }\n\n    //called in mint function (probably?)\n    function collaterlizedRfCMint() internal  {\n        //TO DO\n    }\n\n    function reportRfCPayouts() external {\n        //TO DO\n    }\n\n    // QUESTION: in FundsManager contract or here??\n    //comparable to the split function in the Gnosis Conditional Token contract:\n    function burnSharesNFTforERC20(address _contentCreationOG, uint256 _contentPrice/**, anything else? **/ ) external returns(bool success) {\n        //TO DO: allow investors to sell their shares for some ERC20 stablecoin(DAI)/Eth\n\n    }\n\n    // // Lkely not to be implemented in this iteration\n    // //for readability and clarity (in function call for instance), separate the function below from the one adding new elements:\n    // function addNewElToRfC() internal {\n    //     //TO DO: enrich an existing RfC by adding richer content/properties (eg. might be interesting if it is a software or an investigative article)\n    // }\n\n}\n",
  "sourcePath": "/home/w31rdm4ch1n3s/ConsenSys_dev_bootcamp/final_project/consensys_bootcamp_2021_minimum_viable_final_project/contracts/RequestForContent.sol",
  "compiler": {
    "name": "solc",
    "version": "0.8.0+commit.c7dfd78e.Emscripten.clang"
  },
  "schemaVersion": "3.4.4",
  "updatedAt": "2022-02-03T18:00:55.084Z",
  "devdoc": {
    "kind": "dev",
    "methods": {
      "approve(address,uint256)": {
        "details": "See {IERC721-approve}."
      },
      "balanceOf(address)": {
        "details": "See {IERC721-balanceOf}."
      },
      "createRole(bytes32,bytes32)": {
        "details": "can also be used to update admin of existing role",
        "params": {
          "adminRole": "the admin role id for `role`",
          "role": "the new role id"
        }
      },
      "getApproved(uint256)": {
        "details": "See {IERC721-getApproved}."
      },
      "getRoleAdmin(bytes32)": {
        "details": "Returns the admin role that controls `role`. See {grantRole} and {revokeRole}. To change a role's admin, use {_setRoleAdmin}."
      },
      "getRoleMember(bytes32,uint256)": {
        "details": "Returns one of the accounts that have `role`. `index` must be a value between 0 and {getRoleMemberCount}, non-inclusive. Role bearers are not sorted in any particular way, and their ordering may change at any point. WARNING: When using {getRoleMember} and {getRoleMemberCount}, make sure you perform all queries on the same block. See the following https://forum.openzeppelin.com/t/iterating-over-elements-on-enumerableset-in-openzeppelin-contracts/2296[forum post] for more information."
      },
      "getRoleMemberCount(bytes32)": {
        "details": "Returns the number of accounts that have `role`. Can be used together with {getRoleMember} to enumerate all bearers of a role."
      },
      "grantFMProxy(address)": {
        "params": {
          "fmProxy": "new FM contract instance address / FMProxy"
        }
      },
      "grantGovernor(address)": {
        "params": {
          "governor": "new governor"
        }
      },
      "grantGuardian(address)": {
        "params": {
          "guardian": "new guardian"
        }
      },
      "grantMember(address)": {
        "params": {
          "member": "new member"
        }
      },
      "grantMinter(address)": {
        "params": {
          "minter": "new minter"
        }
      },
      "grantRole(bytes32,address)": {
        "details": "Grants `role` to `account`. If `account` had not been already granted `role`, emits a {RoleGranted} event. Requirements: - the caller must have ``role``'s admin role."
      },
      "hasRole(bytes32,address)": {
        "details": "Returns `true` if `account` has been granted `role`."
      },
      "isApprovedForAll(address,address)": {
        "details": "See {IERC721-isApprovedForAll}."
      },
      "isFMProxy(address)": {
        "params": {
          "_address": "address to check"
        },
        "returns": {
          "_0": "true _address is a controller"
        }
      },
      "isGovernor(address)": {
        "params": {
          "_address": "address to check"
        },
        "returns": {
          "_0": "true _address is a governor"
        }
      },
      "isGuardian(address)": {
        "params": {
          "_address": "address to check"
        },
        "returns": {
          "_0": "true _address is a guardian"
        }
      },
      "isMember(address)": {
        "params": {
          "_address": "address to check"
        },
        "returns": {
          "_0": "true _address is a member"
        }
      },
      "isMinter(address)": {
        "params": {
          "_address": "address to check"
        },
        "returns": {
          "_0": "true _address is a minter"
        }
      },
      "name()": {
        "details": "See {IERC721Metadata-name}."
      },
      "ownerOf(uint256)": {
        "details": "See {IERC721-ownerOf}."
      },
      "renounceRole(bytes32,address)": {
        "details": "Revokes `role` from the calling account. Roles are often managed via {grantRole} and {revokeRole}: this function's purpose is to provide a mechanism for accounts to lose their privileges if they are compromised (such as when a trusted device is misplaced). If the calling account had been revoked `role`, emits a {RoleRevoked} event. Requirements: - the caller must be `account`."
      },
      "revokeFMProxy(address)": {
        "params": {
          "fmProxy": "ex fmProxy"
        }
      },
      "revokeGovernor(address)": {
        "params": {
          "governor": "ex governor"
        }
      },
      "revokeGuardian(address)": {
        "params": {
          "guardian": "ex guardian"
        }
      },
      "revokeMember(address)": {
        "params": {
          "member": "ex member"
        }
      },
      "revokeMinter(address)": {
        "params": {
          "minter": "ex minter"
        }
      },
      "revokeOverride(bytes32,address)": {
        "params": {
          "account": "the address to revoke the role from",
          "role": "the role to revoke"
        }
      },
      "revokeRole(bytes32,address)": {
        "details": "Revokes `role` from `account`. If `account` had been granted `role`, emits a {RoleRevoked} event. Requirements: - the caller must have ``role``'s admin role."
      },
      "safeTransferFrom(address,address,uint256)": {
        "details": "See {IERC721-safeTransferFrom}."
      },
      "safeTransferFrom(address,address,uint256,bytes)": {
        "details": "See {IERC721-safeTransferFrom}."
      },
      "setApprovalForAll(address,bool)": {
        "details": "See {IERC721-setApprovalForAll}."
      },
      "symbol()": {
        "details": "See {IERC721Metadata-symbol}."
      },
      "tokenURI(uint256)": {
        "details": "See {IERC721Metadata-tokenURI}."
      },
      "transferFrom(address,address,uint256)": {
        "details": "See {IERC721-transferFrom}."
      }
    },
    "version": 1
  },
  "userdoc": {
    "kind": "user",
    "methods": {
      "createRole(bytes32,bytes32)": {
        "notice": "creates a new role to be maintained"
      },
      "grantFMProxy(address)": {
        "notice": "grants Funds Manager Proxy role to address"
      },
      "grantGovernor(address)": {
        "notice": "grants governor role to address"
      },
      "grantGuardian(address)": {
        "notice": "grants guardian role to address"
      },
      "grantMember(address)": {
        "notice": "grants member role to address"
      },
      "grantMinter(address)": {
        "notice": "grants minter role to address"
      },
      "isFMProxy(address)": {
        "notice": "checks if address is a FMProxy"
      },
      "isGovernor(address)": {
        "notice": "checks if address is a governor"
      },
      "isGuardian(address)": {
        "notice": "checks if address is a guardian"
      },
      "isMember(address)": {
        "notice": "checks if address is a burmemberner"
      },
      "isMinter(address)": {
        "notice": "checks if address is a minter"
      },
      "revokeFMProxy(address)": {
        "notice": "revokes FMProxy role from address of currently used instance in the protocol"
      },
      "revokeGovernor(address)": {
        "notice": "revokes governor role from address"
      },
      "revokeGuardian(address)": {
        "notice": "revokes guardian role from address"
      },
      "revokeMember(address)": {
        "notice": "revokes member role from address"
      },
      "revokeMinter(address)": {
        "notice": "revokes minter role from address"
      },
      "revokeOverride(bytes32,address)": {
        "notice": "revokes a role from address"
      }
    },
    "version": 1
  }
}