{
  "contractName": "RfCPooledFunds",
  "abi": [
    {
      "anonymous": false,
      "inputs": [
        {
          "indexed": true,
          "internalType": "bytes32",
          "name": "role",
          "type": "bytes32"
        },
        {
          "indexed": true,
          "internalType": "bytes32",
          "name": "previousAdminRole",
          "type": "bytes32"
        },
        {
          "indexed": true,
          "internalType": "bytes32",
          "name": "newAdminRole",
          "type": "bytes32"
        }
      ],
      "name": "RoleAdminChanged",
      "type": "event"
    },
    {
      "anonymous": false,
      "inputs": [
        {
          "indexed": true,
          "internalType": "bytes32",
          "name": "role",
          "type": "bytes32"
        },
        {
          "indexed": true,
          "internalType": "address",
          "name": "account",
          "type": "address"
        },
        {
          "indexed": true,
          "internalType": "address",
          "name": "sender",
          "type": "address"
        }
      ],
      "name": "RoleGranted",
      "type": "event"
    },
    {
      "anonymous": false,
      "inputs": [
        {
          "indexed": true,
          "internalType": "bytes32",
          "name": "role",
          "type": "bytes32"
        },
        {
          "indexed": true,
          "internalType": "address",
          "name": "account",
          "type": "address"
        },
        {
          "indexed": true,
          "internalType": "address",
          "name": "sender",
          "type": "address"
        }
      ],
      "name": "RoleRevoked",
      "type": "event"
    },
    {
      "inputs": [],
      "name": "DEFAULT_ADMIN_ROLE",
      "outputs": [
        {
          "internalType": "bytes32",
          "name": "",
          "type": "bytes32"
        }
      ],
      "stateMutability": "view",
      "type": "function"
    },
    {
      "inputs": [],
      "name": "FUNDS_MANAGER_ROLE",
      "outputs": [
        {
          "internalType": "bytes32",
          "name": "",
          "type": "bytes32"
        }
      ],
      "stateMutability": "view",
      "type": "function"
    },
    {
      "inputs": [],
      "name": "GOVERN_ROLE",
      "outputs": [
        {
          "internalType": "bytes32",
          "name": "",
          "type": "bytes32"
        }
      ],
      "stateMutability": "view",
      "type": "function"
    },
    {
      "inputs": [],
      "name": "GUARDIAN_ROLE",
      "outputs": [
        {
          "internalType": "bytes32",
          "name": "",
          "type": "bytes32"
        }
      ],
      "stateMutability": "view",
      "type": "function"
    },
    {
      "inputs": [],
      "name": "MEMBER_ROLE",
      "outputs": [
        {
          "internalType": "bytes32",
          "name": "",
          "type": "bytes32"
        }
      ],
      "stateMutability": "view",
      "type": "function"
    },
    {
      "inputs": [],
      "name": "MINTER_ROLE",
      "outputs": [
        {
          "internalType": "bytes32",
          "name": "",
          "type": "bytes32"
        }
      ],
      "stateMutability": "view",
      "type": "function"
    },
    {
      "inputs": [
        {
          "internalType": "bytes32",
          "name": "role",
          "type": "bytes32"
        },
        {
          "internalType": "bytes32",
          "name": "adminRole",
          "type": "bytes32"
        }
      ],
      "name": "createRole",
      "outputs": [],
      "stateMutability": "nonpayable",
      "type": "function"
    },
    {
      "inputs": [
        {
          "internalType": "bytes32",
          "name": "role",
          "type": "bytes32"
        }
      ],
      "name": "getRoleAdmin",
      "outputs": [
        {
          "internalType": "bytes32",
          "name": "",
          "type": "bytes32"
        }
      ],
      "stateMutability": "view",
      "type": "function"
    },
    {
      "inputs": [
        {
          "internalType": "bytes32",
          "name": "role",
          "type": "bytes32"
        },
        {
          "internalType": "uint256",
          "name": "index",
          "type": "uint256"
        }
      ],
      "name": "getRoleMember",
      "outputs": [
        {
          "internalType": "address",
          "name": "",
          "type": "address"
        }
      ],
      "stateMutability": "view",
      "type": "function"
    },
    {
      "inputs": [
        {
          "internalType": "bytes32",
          "name": "role",
          "type": "bytes32"
        }
      ],
      "name": "getRoleMemberCount",
      "outputs": [
        {
          "internalType": "uint256",
          "name": "",
          "type": "uint256"
        }
      ],
      "stateMutability": "view",
      "type": "function"
    },
    {
      "inputs": [
        {
          "internalType": "address",
          "name": "fmProxy",
          "type": "address"
        }
      ],
      "name": "grantFMProxy",
      "outputs": [],
      "stateMutability": "nonpayable",
      "type": "function"
    },
    {
      "inputs": [
        {
          "internalType": "address",
          "name": "governor",
          "type": "address"
        }
      ],
      "name": "grantGovernor",
      "outputs": [],
      "stateMutability": "nonpayable",
      "type": "function"
    },
    {
      "inputs": [
        {
          "internalType": "address",
          "name": "guardian",
          "type": "address"
        }
      ],
      "name": "grantGuardian",
      "outputs": [],
      "stateMutability": "nonpayable",
      "type": "function"
    },
    {
      "inputs": [
        {
          "internalType": "address",
          "name": "member",
          "type": "address"
        }
      ],
      "name": "grantMember",
      "outputs": [],
      "stateMutability": "nonpayable",
      "type": "function"
    },
    {
      "inputs": [
        {
          "internalType": "address",
          "name": "minter",
          "type": "address"
        }
      ],
      "name": "grantMinter",
      "outputs": [],
      "stateMutability": "nonpayable",
      "type": "function"
    },
    {
      "inputs": [
        {
          "internalType": "bytes32",
          "name": "role",
          "type": "bytes32"
        },
        {
          "internalType": "address",
          "name": "account",
          "type": "address"
        }
      ],
      "name": "grantRole",
      "outputs": [],
      "stateMutability": "nonpayable",
      "type": "function"
    },
    {
      "inputs": [
        {
          "internalType": "bytes32",
          "name": "role",
          "type": "bytes32"
        },
        {
          "internalType": "address",
          "name": "account",
          "type": "address"
        }
      ],
      "name": "hasRole",
      "outputs": [
        {
          "internalType": "bool",
          "name": "",
          "type": "bool"
        }
      ],
      "stateMutability": "view",
      "type": "function"
    },
    {
      "inputs": [
        {
          "internalType": "address",
          "name": "_address",
          "type": "address"
        }
      ],
      "name": "isFMProxy",
      "outputs": [
        {
          "internalType": "bool",
          "name": "",
          "type": "bool"
        }
      ],
      "stateMutability": "view",
      "type": "function"
    },
    {
      "inputs": [
        {
          "internalType": "address",
          "name": "_address",
          "type": "address"
        }
      ],
      "name": "isGovernor",
      "outputs": [
        {
          "internalType": "bool",
          "name": "",
          "type": "bool"
        }
      ],
      "stateMutability": "view",
      "type": "function"
    },
    {
      "inputs": [
        {
          "internalType": "address",
          "name": "_address",
          "type": "address"
        }
      ],
      "name": "isGuardian",
      "outputs": [
        {
          "internalType": "bool",
          "name": "",
          "type": "bool"
        }
      ],
      "stateMutability": "view",
      "type": "function"
    },
    {
      "inputs": [
        {
          "internalType": "address",
          "name": "_address",
          "type": "address"
        }
      ],
      "name": "isMember",
      "outputs": [
        {
          "internalType": "bool",
          "name": "",
          "type": "bool"
        }
      ],
      "stateMutability": "view",
      "type": "function"
    },
    {
      "inputs": [
        {
          "internalType": "address",
          "name": "_address",
          "type": "address"
        }
      ],
      "name": "isMinter",
      "outputs": [
        {
          "internalType": "bool",
          "name": "",
          "type": "bool"
        }
      ],
      "stateMutability": "view",
      "type": "function"
    },
    {
      "inputs": [
        {
          "internalType": "bytes32",
          "name": "role",
          "type": "bytes32"
        },
        {
          "internalType": "address",
          "name": "account",
          "type": "address"
        }
      ],
      "name": "renounceRole",
      "outputs": [],
      "stateMutability": "nonpayable",
      "type": "function"
    },
    {
      "inputs": [
        {
          "internalType": "address",
          "name": "fmProxy",
          "type": "address"
        }
      ],
      "name": "revokeFMProxy",
      "outputs": [],
      "stateMutability": "nonpayable",
      "type": "function"
    },
    {
      "inputs": [
        {
          "internalType": "address",
          "name": "governor",
          "type": "address"
        }
      ],
      "name": "revokeGovernor",
      "outputs": [],
      "stateMutability": "nonpayable",
      "type": "function"
    },
    {
      "inputs": [
        {
          "internalType": "address",
          "name": "guardian",
          "type": "address"
        }
      ],
      "name": "revokeGuardian",
      "outputs": [],
      "stateMutability": "nonpayable",
      "type": "function"
    },
    {
      "inputs": [
        {
          "internalType": "address",
          "name": "member",
          "type": "address"
        }
      ],
      "name": "revokeMember",
      "outputs": [],
      "stateMutability": "nonpayable",
      "type": "function"
    },
    {
      "inputs": [
        {
          "internalType": "address",
          "name": "minter",
          "type": "address"
        }
      ],
      "name": "revokeMinter",
      "outputs": [],
      "stateMutability": "nonpayable",
      "type": "function"
    },
    {
      "inputs": [
        {
          "internalType": "bytes32",
          "name": "role",
          "type": "bytes32"
        },
        {
          "internalType": "address",
          "name": "account",
          "type": "address"
        }
      ],
      "name": "revokeOverride",
      "outputs": [],
      "stateMutability": "nonpayable",
      "type": "function"
    },
    {
      "inputs": [
        {
          "internalType": "bytes32",
          "name": "role",
          "type": "bytes32"
        },
        {
          "internalType": "address",
          "name": "account",
          "type": "address"
        }
      ],
      "name": "revokeRole",
      "outputs": [],
      "stateMutability": "nonpayable",
      "type": "function"
    },
    {
      "inputs": [
        {
          "internalType": "bytes4",
          "name": "interfaceId",
          "type": "bytes4"
        }
      ],
      "name": "supportsInterface",
      "outputs": [
        {
          "internalType": "bool",
          "name": "",
          "type": "bool"
        }
      ],
      "stateMutability": "view",
      "type": "function"
    },
    {
      "inputs": [],
      "name": "poolFundsForRfC",
      "outputs": [],
      "stateMutability": "nonpayable",
      "type": "function"
    }
  ],
  "bytecode": "0x60806040523480156200001157600080fd5b5062000023306200017160201b60201c565b620000757f9f2df0fed2c77648de5860a4cc508cd0818c85b8b8a1ab4ceeef8d981c8956a67f899bd46557473cb80307a9dabc297131ced39608330a2d29b2d52b660c03923e620001a660201b60201c565b620000c77f829b824e2329e205435d941c9f13baf578548505283d29261236d8e6596d46367f899bd46557473cb80307a9dabc297131ced39608330a2d29b2d52b660c03923e620001a660201b60201c565b620001197f9d98d3d08f0062b192694645e127c98e5f96f3bbec331d061acaac3ace2327f97f899bd46557473cb80307a9dabc297131ced39608330a2d29b2d52b660c03923e620001a660201b60201c565b6200016b7f55435dd261a4b9b3364963f7738a7a662ad9c84396d64be3365284bb7f0a50417f899bd46557473cb80307a9dabc297131ced39608330a2d29b2d52b660c03923e620001a660201b60201c565b620004be565b620001a37f899bd46557473cb80307a9dabc297131ced39608330a2d29b2d52b660c03923e826200020960201b60201c565b50565b6000620001b9836200021f60201b60201c565b905081600080858152602001908152602001600020600101819055508181847fbd79b86ffe0ab8e8776151514217cd7cacd52c909f66475c3af44e129f0b00ff60405160405180910390a4505050565b6200021b82826200023e60201b60201c565b5050565b6000806000838152602001908152602001600020600101549050919050565b6200025582826200028660201b6200106a1760201c565b6200028181600160008581526020019081526020016000206200037760201b6200114a1790919060201c565b505050565b620002988282620003af60201b60201c565b6200037357600160008084815260200190815260200160002060000160008373ffffffffffffffffffffffffffffffffffffffff1673ffffffffffffffffffffffffffffffffffffffff16815260200190815260200160002060006101000a81548160ff021916908315150217905550620003186200041960201b60201c565b73ffffffffffffffffffffffffffffffffffffffff168173ffffffffffffffffffffffffffffffffffffffff16837f2f8788117e7eff1d82e926ec794901d17c78024a50270940304540a733656f0d60405160405180910390a45b5050565b6000620003a7836000018373ffffffffffffffffffffffffffffffffffffffff1660001b6200042160201b60201c565b905092915050565b600080600084815260200190815260200160002060000160008373ffffffffffffffffffffffffffffffffffffffff1673ffffffffffffffffffffffffffffffffffffffff16815260200190815260200160002060009054906101000a900460ff16905092915050565b600033905090565b60006200043583836200049b60201b60201c565b6200049057826000018290806001815401808255809150506001900390600052602060002001600090919091909150558260000180549050836001016000848152602001908152602001600020819055506001905062000495565b600090505b92915050565b600080836001016000848152602001908152602001600020541415905092915050565b6123f180620004ce6000396000f3fe608060405234801561001057600080fd5b50600436106101f05760003560e01c806391d148541161010f578063c4707a83116100a2578063d539139311610071578063d5391393146105b1578063d547741f146105cf578063e43581b8146105eb578063e6eb982f1461061b576101f0565b8063c4707a8314610517578063c9876d5414610535578063ca15c87314610565578063cfbd488514610595576101f0565b8063a230c524116100de578063a230c5241461047f578063aa271e1a146104af578063af648c3d146104df578063bcb9d2dd146104fb576101f0565b806391d14854146103f757806394b1d2c014610427578063a10f469e14610443578063a217fddf14610461576101f0565b80632f2ff15d116101875780634c9f9384116101565780634c9f9384146103855780637c8542d3146103a15780638adf23b9146103ab5780639010d07c146103c7576101f0565b80632f2ff15d1461031357806336568abe1461032f57806338b7f4461461034b578063395c62e814610369576101f0565b80632320eabf116101c35780632320eabf1461028d578063248a9ca3146102a957806324ea54f4146102d9578063261707fa146102f7576101f0565b806301ffc9a7146101f5578063080bf57c146102255780630c68ba211461024157806313e15efc14610271575b600080fd5b61020f600480360381019061020a9190611bd5565b610637565b60405161021c9190611fdd565b60405180910390f35b61023f600480360381019061023a9190611b21565b6106b1565b005b61025b60048036038101906102569190611acf565b6107cd565b6040516102689190611fdd565b60405180910390f35b61028b60048036038101906102869190611acf565b610800565b005b6102a760048036038101906102a29190611acf565b610875565b005b6102c360048036038101906102be9190611af8565b6108ea565b6040516102d09190611ff8565b60405180910390f35b6102e1610909565b6040516102ee9190611ff8565b60405180910390f35b610311600480360381019061030c9190611acf565b61092d565b005b61032d60048036038101906103289190611b21565b6109a2565b005b61034960048036038101906103449190611b21565b6109cb565b005b610353610a4e565b6040516103609190611ff8565b60405180910390f35b610383600480360381019061037e9190611acf565b610a72565b005b61039f600480360381019061039a9190611b5d565b610ae7565b005b6103a9610b3d565b005b6103c560048036038101906103c09190611acf565b610b87565b005b6103e160048036038101906103dc9190611b99565b610bfc565b6040516103ee9190611fc2565b60405180910390f35b610411600480360381019061040c9190611b21565b610c2b565b60405161041e9190611fdd565b60405180910390f35b610441600480360381019061043c9190611acf565b610c95565b005b61044b610d0a565b6040516104589190611ff8565b60405180910390f35b610469610d2e565b6040516104769190611ff8565b60405180910390f35b61049960048036038101906104949190611acf565b610d35565b6040516104a69190611fdd565b60405180910390f35b6104c960048036038101906104c49190611acf565b610d68565b6040516104d69190611fdd565b60405180910390f35b6104f960048036038101906104f49190611acf565b610d9b565b005b61051560048036038101906105109190611acf565b610e10565b005b61051f610e85565b60405161052c9190611ff8565b60405180910390f35b61054f600480360381019061054a9190611acf565b610ea9565b60405161055c9190611fdd565b60405180910390f35b61057f600480360381019061057a9190611af8565b610edc565b60405161058c919061211e565b60405180910390f35b6105af60048036038101906105aa9190611acf565b610f00565b005b6105b9610f75565b6040516105c69190611ff8565b60405180910390f35b6105e960048036038101906105e49190611b21565b610f99565b005b61060560048036038101906106009190611acf565b610fc2565b6040516106129190611fdd565b60405180910390f35b61063560048036038101906106309190611acf565b610ff5565b005b60007f5a05180f000000000000000000000000000000000000000000000000000000007bffffffffffffffffffffffffffffffffffffffffffffffffffffffff1916827bffffffffffffffffffffffffffffffffffffffffffffffffffffffff191614806106aa57506106a98261117a565b5b9050919050565b6106ba336107cd565b6106f9576040517f08c379a00000000000000000000000000000000000000000000000000000000081526004016106f09061209e565b60405180910390fd5b7f899bd46557473cb80307a9dabc297131ced39608330a2d29b2d52b660c03923e82141561075c576040517f08c379a0000000000000000000000000000000000000000000000000000000008152600401610753906120be565b60405180910390fd5b3073ffffffffffffffffffffffffffffffffffffffff1663d547741f83836040518363ffffffff1660e01b8152600401610797929190612013565b600060405180830381600087803b1580156107b157600080fd5b505af11580156107c5573d6000803e3d6000fd5b505050505050565b60006107f97f55435dd261a4b9b3364963f7738a7a662ad9c84396d64be3365284bb7f0a504183610c2b565b9050919050565b61080933610fc2565b610848576040517f08c379a000000000000000000000000000000000000000000000000000000000815260040161083f9061207e565b60405180910390fd5b6108727f829b824e2329e205435d941c9f13baf578548505283d29261236d8e6596d4636826109a2565b50565b61087e33610fc2565b6108bd576040517f08c379a00000000000000000000000000000000000000000000000000000000081526004016108b49061207e565b60405180910390fd5b6108e77f9d98d3d08f0062b192694645e127c98e5f96f3bbec331d061acaac3ace2327f9826109a2565b50565b6000806000838152602001908152602001600020600101549050919050565b7f55435dd261a4b9b3364963f7738a7a662ad9c84396d64be3365284bb7f0a504181565b61093633610fc2565b610975576040517f08c379a000000000000000000000000000000000000000000000000000000000815260040161096c9061207e565b60405180910390fd5b61099f7f9f2df0fed2c77648de5860a4cc508cd0818c85b8b8a1ab4ceeef8d981c8956a6826109a2565b50565b6109ab826108ea565b6109bc816109b76111f4565b6111fc565b6109c68383611299565b505050565b6109d36111f4565b73ffffffffffffffffffffffffffffffffffffffff168173ffffffffffffffffffffffffffffffffffffffff1614610a40576040517f08c379a0000000000000000000000000000000000000000000000000000000008152600401610a37906120fe565b60405180910390fd5b610a4a82826112cd565b5050565b7f899bd46557473cb80307a9dabc297131ced39608330a2d29b2d52b660c03923e81565b610a7b33610fc2565b610aba576040517f08c379a0000000000000000000000000000000000000000000000000000000008152600401610ab19061207e565b60405180910390fd5b610ae47f899bd46557473cb80307a9dabc297131ced39608330a2d29b2d52b660c03923e826109a2565b50565b610af033610fc2565b610b2f576040517f08c379a0000000000000000000000000000000000000000000000000000000008152600401610b269061207e565b60405180910390fd5b610b398282611301565b5050565b610b4633610ea9565b610b85576040517f08c379a0000000000000000000000000000000000000000000000000000000008152600401610b7c906120de565b60405180910390fd5b565b610b9033610fc2565b610bcf576040517f08c379a0000000000000000000000000000000000000000000000000000000008152600401610bc69061207e565b60405180910390fd5b610bf97f829b824e2329e205435d941c9f13baf578548505283d29261236d8e6596d463682610f99565b50565b6000610c23826001600086815260200190815260200160002061135c90919063ffffffff16565b905092915050565b600080600084815260200190815260200160002060000160008373ffffffffffffffffffffffffffffffffffffffff1673ffffffffffffffffffffffffffffffffffffffff16815260200190815260200160002060009054906101000a900460ff16905092915050565b610c9e33610fc2565b610cdd576040517f08c379a0000000000000000000000000000000000000000000000000000000008152600401610cd49061207e565b60405180910390fd5b610d077f55435dd261a4b9b3364963f7738a7a662ad9c84396d64be3365284bb7f0a5041826109a2565b50565b7f829b824e2329e205435d941c9f13baf578548505283d29261236d8e6596d463681565b6000801b81565b6000610d617f829b824e2329e205435d941c9f13baf578548505283d29261236d8e6596d463683610c2b565b9050919050565b6000610d947f9f2df0fed2c77648de5860a4cc508cd0818c85b8b8a1ab4ceeef8d981c8956a683610c2b565b9050919050565b610da433610fc2565b610de3576040517f08c379a0000000000000000000000000000000000000000000000000000000008152600401610dda9061207e565b60405180910390fd5b610e0d7f55435dd261a4b9b3364963f7738a7a662ad9c84396d64be3365284bb7f0a504182610f99565b50565b610e1933610fc2565b610e58576040517f08c379a0000000000000000000000000000000000000000000000000000000008152600401610e4f9061207e565b60405180910390fd5b610e827f9d98d3d08f0062b192694645e127c98e5f96f3bbec331d061acaac3ace2327f982610f99565b50565b7f9d98d3d08f0062b192694645e127c98e5f96f3bbec331d061acaac3ace2327f981565b6000610ed57f9d98d3d08f0062b192694645e127c98e5f96f3bbec331d061acaac3ace2327f983610c2b565b9050919050565b6000610ef960016000848152602001908152602001600020611376565b9050919050565b610f0933610fc2565b610f48576040517f08c379a0000000000000000000000000000000000000000000000000000000008152600401610f3f9061207e565b60405180910390fd5b610f727f9f2df0fed2c77648de5860a4cc508cd0818c85b8b8a1ab4ceeef8d981c8956a682610f99565b50565b7f9f2df0fed2c77648de5860a4cc508cd0818c85b8b8a1ab4ceeef8d981c8956a681565b610fa2826108ea565b610fb381610fae6111f4565b6111fc565b610fbd83836112cd565b505050565b6000610fee7f899bd46557473cb80307a9dabc297131ced39608330a2d29b2d52b660c03923e83610c2b565b9050919050565b610ffe33610fc2565b61103d576040517f08c379a00000000000000000000000000000000000000000000000000000000081526004016110349061207e565b60405180910390fd5b6110677f899bd46557473cb80307a9dabc297131ced39608330a2d29b2d52b660c03923e82610f99565b50565b6110748282610c2b565b61114657600160008084815260200190815260200160002060000160008373ffffffffffffffffffffffffffffffffffffffff1673ffffffffffffffffffffffffffffffffffffffff16815260200190815260200160002060006101000a81548160ff0219169083151502179055506110eb6111f4565b73ffffffffffffffffffffffffffffffffffffffff168173ffffffffffffffffffffffffffffffffffffffff16837f2f8788117e7eff1d82e926ec794901d17c78024a50270940304540a733656f0d60405160405180910390a45b5050565b6000611172836000018373ffffffffffffffffffffffffffffffffffffffff1660001b61138b565b905092915050565b60007f7965db0b000000000000000000000000000000000000000000000000000000007bffffffffffffffffffffffffffffffffffffffffffffffffffffffff1916827bffffffffffffffffffffffffffffffffffffffffffffffffffffffff191614806111ed57506111ec826113fb565b5b9050919050565b600033905090565b6112068282610c2b565b6112955761122b8173ffffffffffffffffffffffffffffffffffffffff166014611465565b6112398360001c6020611465565b60405160200161124a929190611f88565b6040516020818303038152906040526040517f08c379a000000000000000000000000000000000000000000000000000000000815260040161128c919061203c565b60405180910390fd5b5050565b6112a3828261106a565b6112c8816001600085815260200190815260200160002061114a90919063ffffffff16565b505050565b6112d7828261175f565b6112fc816001600085815260200190815260200160002061184090919063ffffffff16565b505050565b600061130c836108ea565b905081600080858152602001908152602001600020600101819055508181847fbd79b86ffe0ab8e8776151514217cd7cacd52c909f66475c3af44e129f0b00ff60405160405180910390a4505050565b600061136b8360000183611870565b60001c905092915050565b6000611384826000016118c1565b9050919050565b600061139783836118d2565b6113f05782600001829080600181540180825580915050600190039060005260206000200160009091909190915055826000018054905083600101600084815260200190815260200160002081905550600190506113f5565b600090505b92915050565b60007f01ffc9a7000000000000000000000000000000000000000000000000000000007bffffffffffffffffffffffffffffffffffffffffffffffffffffffff1916827bffffffffffffffffffffffffffffffffffffffffffffffffffffffff1916149050919050565b60606000600283600261147891906121b6565b6114829190612160565b67ffffffffffffffff8111156114c1577f4e487b7100000000000000000000000000000000000000000000000000000000600052604160045260246000fd5b6040519080825280601f01601f1916602001820160405280156114f35781602001600182028036833780820191505090505b5090507f300000000000000000000000000000000000000000000000000000000000000081600081518110611551577f4e487b7100000000000000000000000000000000000000000000000000000000600052603260045260246000fd5b60200101907effffffffffffffffffffffffffffffffffffffffffffffffffffffffffffff1916908160001a9053507f7800000000000000000000000000000000000000000000000000000000000000816001815181106115db577f4e487b7100000000000000000000000000000000000000000000000000000000600052603260045260246000fd5b60200101907effffffffffffffffffffffffffffffffffffffffffffffffffffffffffffff1916908160001a9053506000600184600261161b91906121b6565b6116259190612160565b90505b6001811115611711577f3031323334353637383961626364656600000000000000000000000000000000600f86166010811061168d577f4e487b7100000000000000000000000000000000000000000000000000000000600052603260045260246000fd5b1a60f81b8282815181106116ca577f4e487b7100000000000000000000000000000000000000000000000000000000600052603260045260246000fd5b60200101907effffffffffffffffffffffffffffffffffffffffffffffffffffffffffffff1916908160001a905350600485901c94508061170a906122f5565b9050611628565b5060008414611755576040517f08c379a000000000000000000000000000000000000000000000000000000000815260040161174c9061205e565b60405180910390fd5b8091505092915050565b6117698282610c2b565b1561183c57600080600084815260200190815260200160002060000160008373ffffffffffffffffffffffffffffffffffffffff1673ffffffffffffffffffffffffffffffffffffffff16815260200190815260200160002060006101000a81548160ff0219169083151502179055506117e16111f4565b73ffffffffffffffffffffffffffffffffffffffff168173ffffffffffffffffffffffffffffffffffffffff16837ff6391f5c32d9c69d2a47ea670b442974b53935d1edc7fd64eb21e047a839171b60405160405180910390a45b5050565b6000611868836000018373ffffffffffffffffffffffffffffffffffffffff1660001b6118f5565b905092915050565b60008260000182815481106118ae577f4e487b7100000000000000000000000000000000000000000000000000000000600052603260045260246000fd5b9060005260206000200154905092915050565b600081600001805490509050919050565b600080836001016000848152602001908152602001600020541415905092915050565b60008083600101600084815260200190815260200160002054905060008114611a6f5760006001826119279190612210565b905060006001866000018054905061193f9190612210565b90508181146119fa576000866000018281548110611986577f4e487b7100000000000000000000000000000000000000000000000000000000600052603260045260246000fd5b90600052602060002001549050808760000184815481106119d0577f4e487b7100000000000000000000000000000000000000000000000000000000600052603260045260246000fd5b90600052602060002001819055508387600101600083815260200190815260200160002081905550505b85600001805480611a34577f4e487b7100000000000000000000000000000000000000000000000000000000600052603160045260246000fd5b600190038181906000526020600020016000905590558560010160008681526020019081526020016000206000905560019350505050611a75565b60009150505b92915050565b600081359050611a8a8161235f565b92915050565b600081359050611a9f81612376565b92915050565b600081359050611ab48161238d565b92915050565b600081359050611ac9816123a4565b92915050565b600060208284031215611ae157600080fd5b6000611aef84828501611a7b565b91505092915050565b600060208284031215611b0a57600080fd5b6000611b1884828501611a90565b91505092915050565b60008060408385031215611b3457600080fd5b6000611b4285828601611a90565b9250506020611b5385828601611a7b565b9150509250929050565b60008060408385031215611b7057600080fd5b6000611b7e85828601611a90565b9250506020611b8f85828601611a90565b9150509250929050565b60008060408385031215611bac57600080fd5b6000611bba85828601611a90565b9250506020611bcb85828601611aba565b9150509250929050565b600060208284031215611be757600080fd5b6000611bf584828501611aa5565b91505092915050565b611c0781612244565b82525050565b611c1681612256565b82525050565b611c2581612262565b82525050565b6000611c3682612139565b611c408185612144565b9350611c508185602086016122c2565b611c598161234e565b840191505092915050565b6000611c6f82612139565b611c798185612155565b9350611c898185602086016122c2565b80840191505092915050565b6000611ca2602083612144565b91507f537472696e67733a20686578206c656e67746820696e73756666696369656e746000830152602082019050919050565b6000611ce2602583612144565b91507f5065726d697373696f6e733a2043616c6c6572206973206e6f74206120676f7660008301527f65726e6f720000000000000000000000000000000000000000000000000000006020830152604082019050919050565b6000611d48602583612144565b91507f5065726d697373696f6e733a2043616c6c6572206973206e6f7420612067756160008301527f726469616e0000000000000000000000000000000000000000000000000000006020830152604082019050919050565b6000611dae602c83612144565b91507f5065726d697373696f6e733a20477561726469616e2063616e6e6f742072657660008301527f6f6b6520676f7665726e6f7200000000000000000000000000000000000000006020830152604082019050919050565b6000611e14601783612155565b91507f416363657373436f6e74726f6c3a206163636f756e74200000000000000000006000830152601782019050919050565b6000611e54604683612144565b91507f5065726d697373696f6e733a2043616c6c6572206973206e6f7420612046756e60008301527f64734d616e616765722070726f746f636f6c277320636f6e747261637420696e60208301527f7374616e636500000000000000000000000000000000000000000000000000006040830152606082019050919050565b6000611ee0601183612155565b91507f206973206d697373696e6720726f6c65200000000000000000000000000000006000830152601182019050919050565b6000611f20602f83612144565b91507f416363657373436f6e74726f6c3a2063616e206f6e6c792072656e6f756e636560008301527f20726f6c657320666f722073656c6600000000000000000000000000000000006020830152604082019050919050565b611f82816122b8565b82525050565b6000611f9382611e07565b9150611f9f8285611c64565b9150611faa82611ed3565b9150611fb68284611c64565b91508190509392505050565b6000602082019050611fd76000830184611bfe565b92915050565b6000602082019050611ff26000830184611c0d565b92915050565b600060208201905061200d6000830184611c1c565b92915050565b60006040820190506120286000830185611c1c565b6120356020830184611bfe565b9392505050565b600060208201905081810360008301526120568184611c2b565b905092915050565b6000602082019050818103600083015261207781611c95565b9050919050565b6000602082019050818103600083015261209781611cd5565b9050919050565b600060208201905081810360008301526120b781611d3b565b9050919050565b600060208201905081810360008301526120d781611da1565b9050919050565b600060208201905081810360008301526120f781611e47565b9050919050565b6000602082019050818103600083015261211781611f13565b9050919050565b60006020820190506121336000830184611f79565b92915050565b600081519050919050565b600082825260208201905092915050565b600081905092915050565b600061216b826122b8565b9150612176836122b8565b9250827fffffffffffffffffffffffffffffffffffffffffffffffffffffffffffffffff038211156121ab576121aa61231f565b5b828201905092915050565b60006121c1826122b8565b91506121cc836122b8565b9250817fffffffffffffffffffffffffffffffffffffffffffffffffffffffffffffffff04831182151516156122055761220461231f565b5b828202905092915050565b600061221b826122b8565b9150612226836122b8565b9250828210156122395761223861231f565b5b828203905092915050565b600061224f82612298565b9050919050565b60008115159050919050565b6000819050919050565b60007fffffffff0000000000000000000000000000000000000000000000000000000082169050919050565b600073ffffffffffffffffffffffffffffffffffffffff82169050919050565b6000819050919050565b60005b838110156122e05780820151818401526020810190506122c5565b838111156122ef576000848401525b50505050565b6000612300826122b8565b915060008214156123145761231361231f565b5b600182039050919050565b7f4e487b7100000000000000000000000000000000000000000000000000000000600052601160045260246000fd5b6000601f19601f8301169050919050565b61236881612244565b811461237357600080fd5b50565b61237f81612262565b811461238a57600080fd5b50565b6123968161226c565b81146123a157600080fd5b50565b6123ad816122b8565b81146123b857600080fd5b5056fea26469706673582212209ea678baccecddd2160f63cbe5463d6afb74be9c2f58e7641c37d84f06ddb93f64736f6c63430008000033",
  "immutableReferences": {},
  "source": "// SPDX-License-Identifier: GPL-3.0-or-later\npragma solidity ^0.8.0;\n\nimport \"./RequestForContent.sol\";\nimport \"./Permissions.sol\";\n\ncontract RfCPooledFunds is Permissions {\n\n    //TO DO:\n    //Contracts that allows to keep track of the funds associated to an RfC token \n    // and also the share of those by an individual account in that pooled fund.\n    //      => eventually: ERC20 contract (WETH over Eth) => goes hand in hand with ERC1155 shift\n\n    function poolFundsForRfC() external onlyFMProxy /*see for creating a few roles if you have time for that */ {\n\n    } \n\n    \n\n\n}",
  "sourcePath": "/home/w31rdm4ch1n3s/ConsenSys_dev_bootcamp/final_project/consensys_bootcamp_2021_minimum_viable_final_project/contracts/RfCPooledFunds.sol",
  "compiler": {
    "name": "solc",
    "version": "0.8.0+commit.c7dfd78e.Emscripten.clang"
  },
  "schemaVersion": "3.4.4",
  "updatedAt": "2022-02-04T20:03:34.880Z",
  "devdoc": {
    "kind": "dev",
    "methods": {
      "createRole(bytes32,bytes32)": {
        "details": "can also be used to update admin of existing role",
        "params": {
          "adminRole": "the admin role id for `role`",
          "role": "the new role id"
        }
      },
      "getRoleAdmin(bytes32)": {
        "details": "Returns the admin role that controls `role`. See {grantRole} and {revokeRole}. To change a role's admin, use {_setRoleAdmin}."
      },
      "getRoleMember(bytes32,uint256)": {
        "details": "Returns one of the accounts that have `role`. `index` must be a value between 0 and {getRoleMemberCount}, non-inclusive. Role bearers are not sorted in any particular way, and their ordering may change at any point. WARNING: When using {getRoleMember} and {getRoleMemberCount}, make sure you perform all queries on the same block. See the following https://forum.openzeppelin.com/t/iterating-over-elements-on-enumerableset-in-openzeppelin-contracts/2296[forum post] for more information."
      },
      "getRoleMemberCount(bytes32)": {
        "details": "Returns the number of accounts that have `role`. Can be used together with {getRoleMember} to enumerate all bearers of a role."
      },
      "grantFMProxy(address)": {
        "params": {
          "fmProxy": "new FM contract instance address / FMProxy"
        }
      },
      "grantGovernor(address)": {
        "params": {
          "governor": "new governor"
        }
      },
      "grantGuardian(address)": {
        "params": {
          "guardian": "new guardian"
        }
      },
      "grantMember(address)": {
        "params": {
          "member": "new member"
        }
      },
      "grantMinter(address)": {
        "params": {
          "minter": "new minter"
        }
      },
      "grantRole(bytes32,address)": {
        "details": "Grants `role` to `account`. If `account` had not been already granted `role`, emits a {RoleGranted} event. Requirements: - the caller must have ``role``'s admin role."
      },
      "hasRole(bytes32,address)": {
        "details": "Returns `true` if `account` has been granted `role`."
      },
      "isFMProxy(address)": {
        "params": {
          "_address": "address to check"
        },
        "returns": {
          "_0": "true _address is a controller"
        }
      },
      "isGovernor(address)": {
        "params": {
          "_address": "address to check"
        },
        "returns": {
          "_0": "true _address is a governor"
        }
      },
      "isGuardian(address)": {
        "params": {
          "_address": "address to check"
        },
        "returns": {
          "_0": "true _address is a guardian"
        }
      },
      "isMember(address)": {
        "params": {
          "_address": "address to check"
        },
        "returns": {
          "_0": "true _address is a member"
        }
      },
      "isMinter(address)": {
        "params": {
          "_address": "address to check"
        },
        "returns": {
          "_0": "true _address is a minter"
        }
      },
      "renounceRole(bytes32,address)": {
        "details": "Revokes `role` from the calling account. Roles are often managed via {grantRole} and {revokeRole}: this function's purpose is to provide a mechanism for accounts to lose their privileges if they are compromised (such as when a trusted device is misplaced). If the calling account had been revoked `role`, emits a {RoleRevoked} event. Requirements: - the caller must be `account`."
      },
      "revokeFMProxy(address)": {
        "params": {
          "fmProxy": "ex fmProxy"
        }
      },
      "revokeGovernor(address)": {
        "params": {
          "governor": "ex governor"
        }
      },
      "revokeGuardian(address)": {
        "params": {
          "guardian": "ex guardian"
        }
      },
      "revokeMember(address)": {
        "params": {
          "member": "ex member"
        }
      },
      "revokeMinter(address)": {
        "params": {
          "minter": "ex minter"
        }
      },
      "revokeOverride(bytes32,address)": {
        "params": {
          "account": "the address to revoke the role from",
          "role": "the role to revoke"
        }
      },
      "revokeRole(bytes32,address)": {
        "details": "Revokes `role` from `account`. If `account` had been granted `role`, emits a {RoleRevoked} event. Requirements: - the caller must have ``role``'s admin role."
      },
      "supportsInterface(bytes4)": {
        "details": "See {IERC165-supportsInterface}."
      }
    },
    "version": 1
  },
  "userdoc": {
    "kind": "user",
    "methods": {
      "createRole(bytes32,bytes32)": {
        "notice": "creates a new role to be maintained"
      },
      "grantFMProxy(address)": {
        "notice": "grants Funds Manager Proxy role to address"
      },
      "grantGovernor(address)": {
        "notice": "grants governor role to address"
      },
      "grantGuardian(address)": {
        "notice": "grants guardian role to address"
      },
      "grantMember(address)": {
        "notice": "grants member role to address"
      },
      "grantMinter(address)": {
        "notice": "grants minter role to address"
      },
      "isFMProxy(address)": {
        "notice": "checks if address is a FMProxy"
      },
      "isGovernor(address)": {
        "notice": "checks if address is a governor"
      },
      "isGuardian(address)": {
        "notice": "checks if address is a guardian"
      },
      "isMember(address)": {
        "notice": "checks if address is a burmemberner"
      },
      "isMinter(address)": {
        "notice": "checks if address is a minter"
      },
      "revokeFMProxy(address)": {
        "notice": "revokes FMProxy role from address of currently used instance in the protocol"
      },
      "revokeGovernor(address)": {
        "notice": "revokes governor role from address"
      },
      "revokeGuardian(address)": {
        "notice": "revokes guardian role from address"
      },
      "revokeMember(address)": {
        "notice": "revokes member role from address"
      },
      "revokeMinter(address)": {
        "notice": "revokes minter role from address"
      },
      "revokeOverride(bytes32,address)": {
        "notice": "revokes a role from address"
      }
    },
    "version": 1
  }
}